{
  "_format": "hh-sol-artifact-1",
  "contractName": "Simple721NFT",
  "sourceName": "contracts/Simple721NFT.sol",
  "abi": [
    {
      "inputs": [
        {
          "internalType": "string",
          "name": "name",
          "type": "string"
        },
        {
          "internalType": "string",
          "name": "symbol",
          "type": "string"
        },
        {
          "internalType": "string",
          "name": "baseTokenURI",
          "type": "string"
        }
      ],
      "stateMutability": "nonpayable",
      "type": "constructor"
    },
    {
      "inputs": [
        {
          "internalType": "address",
          "name": "sender",
          "type": "address"
        },
        {
          "internalType": "uint256",
          "name": "tokenId",
          "type": "uint256"
        },
        {
          "internalType": "address",
          "name": "owner",
          "type": "address"
        }
      ],
      "name": "ERC721IncorrectOwner",
      "type": "error"
    },
    {
      "inputs": [
        {
          "internalType": "address",
          "name": "operator",
          "type": "address"
        },
        {
          "internalType": "uint256",
          "name": "tokenId",
          "type": "uint256"
        }
      ],
      "name": "ERC721InsufficientApproval",
      "type": "error"
    },
    {
      "inputs": [
        {
          "internalType": "address",
          "name": "approver",
          "type": "address"
        }
      ],
      "name": "ERC721InvalidApprover",
      "type": "error"
    },
    {
      "inputs": [
        {
          "internalType": "address",
          "name": "operator",
          "type": "address"
        }
      ],
      "name": "ERC721InvalidOperator",
      "type": "error"
    },
    {
      "inputs": [
        {
          "internalType": "address",
          "name": "owner",
          "type": "address"
        }
      ],
      "name": "ERC721InvalidOwner",
      "type": "error"
    },
    {
      "inputs": [
        {
          "internalType": "address",
          "name": "receiver",
          "type": "address"
        }
      ],
      "name": "ERC721InvalidReceiver",
      "type": "error"
    },
    {
      "inputs": [
        {
          "internalType": "address",
          "name": "sender",
          "type": "address"
        }
      ],
      "name": "ERC721InvalidSender",
      "type": "error"
    },
    {
      "inputs": [
        {
          "internalType": "uint256",
          "name": "tokenId",
          "type": "uint256"
        }
      ],
      "name": "ERC721NonexistentToken",
      "type": "error"
    },
    {
      "anonymous": false,
      "inputs": [
        {
          "indexed": true,
          "internalType": "address",
          "name": "owner",
          "type": "address"
        },
        {
          "indexed": true,
          "internalType": "address",
          "name": "approved",
          "type": "address"
        },
        {
          "indexed": true,
          "internalType": "uint256",
          "name": "tokenId",
          "type": "uint256"
        }
      ],
      "name": "Approval",
      "type": "event"
    },
    {
      "anonymous": false,
      "inputs": [
        {
          "indexed": true,
          "internalType": "address",
          "name": "owner",
          "type": "address"
        },
        {
          "indexed": true,
          "internalType": "address",
          "name": "operator",
          "type": "address"
        },
        {
          "indexed": false,
          "internalType": "bool",
          "name": "approved",
          "type": "bool"
        }
      ],
      "name": "ApprovalForAll",
      "type": "event"
    },
    {
      "anonymous": false,
      "inputs": [
        {
          "indexed": true,
          "internalType": "address",
          "name": "from",
          "type": "address"
        },
        {
          "indexed": true,
          "internalType": "address",
          "name": "to",
          "type": "address"
        },
        {
          "indexed": true,
          "internalType": "uint256",
          "name": "tokenId",
          "type": "uint256"
        }
      ],
      "name": "Transfer",
      "type": "event"
    },
    {
      "inputs": [
        {
          "internalType": "address",
          "name": "to",
          "type": "address"
        },
        {
          "internalType": "uint256",
          "name": "tokenId",
          "type": "uint256"
        }
      ],
      "name": "approve",
      "outputs": [],
      "stateMutability": "nonpayable",
      "type": "function"
    },
    {
      "inputs": [
        {
          "internalType": "address",
          "name": "owner",
          "type": "address"
        }
      ],
      "name": "balanceOf",
      "outputs": [
        {
          "internalType": "uint256",
          "name": "",
          "type": "uint256"
        }
      ],
      "stateMutability": "view",
      "type": "function"
    },
    {
      "inputs": [
        {
          "internalType": "uint256",
          "name": "tokenId",
          "type": "uint256"
        }
      ],
      "name": "getApproved",
      "outputs": [
        {
          "internalType": "address",
          "name": "",
          "type": "address"
        }
      ],
      "stateMutability": "view",
      "type": "function"
    },
    {
      "inputs": [
        {
          "internalType": "address",
          "name": "owner",
          "type": "address"
        },
        {
          "internalType": "address",
          "name": "operator",
          "type": "address"
        }
      ],
      "name": "isApprovedForAll",
      "outputs": [
        {
          "internalType": "bool",
          "name": "",
          "type": "bool"
        }
      ],
      "stateMutability": "view",
      "type": "function"
    },
    {
      "inputs": [
        {
          "internalType": "address",
          "name": "to",
          "type": "address"
        }
      ],
      "name": "mint",
      "outputs": [],
      "stateMutability": "nonpayable",
      "type": "function"
    },
    {
      "inputs": [],
      "name": "name",
      "outputs": [
        {
          "internalType": "string",
          "name": "",
          "type": "string"
        }
      ],
      "stateMutability": "view",
      "type": "function"
    },
    {
      "inputs": [
        {
          "internalType": "uint256",
          "name": "tokenId",
          "type": "uint256"
        }
      ],
      "name": "ownerOf",
      "outputs": [
        {
          "internalType": "address",
          "name": "",
          "type": "address"
        }
      ],
      "stateMutability": "view",
      "type": "function"
    },
    {
      "inputs": [
        {
          "internalType": "address",
          "name": "from",
          "type": "address"
        },
        {
          "internalType": "address",
          "name": "to",
          "type": "address"
        },
        {
          "internalType": "uint256",
          "name": "tokenId",
          "type": "uint256"
        }
      ],
      "name": "safeTransferFrom",
      "outputs": [],
      "stateMutability": "nonpayable",
      "type": "function"
    },
    {
      "inputs": [
        {
          "internalType": "address",
          "name": "from",
          "type": "address"
        },
        {
          "internalType": "address",
          "name": "to",
          "type": "address"
        },
        {
          "internalType": "uint256",
          "name": "tokenId",
          "type": "uint256"
        },
        {
          "internalType": "bytes",
          "name": "data",
          "type": "bytes"
        }
      ],
      "name": "safeTransferFrom",
      "outputs": [],
      "stateMutability": "nonpayable",
      "type": "function"
    },
    {
      "inputs": [
        {
          "internalType": "address",
          "name": "operator",
          "type": "address"
        },
        {
          "internalType": "bool",
          "name": "approved",
          "type": "bool"
        }
      ],
      "name": "setApprovalForAll",
      "outputs": [],
      "stateMutability": "nonpayable",
      "type": "function"
    },
    {
      "inputs": [
        {
          "internalType": "string",
          "name": "baseTokenURI",
          "type": "string"
        }
      ],
      "name": "setBaseURI",
      "outputs": [],
      "stateMutability": "nonpayable",
      "type": "function"
    },
    {
      "inputs": [
        {
          "internalType": "bytes4",
          "name": "interfaceId",
          "type": "bytes4"
        }
      ],
      "name": "supportsInterface",
      "outputs": [
        {
          "internalType": "bool",
          "name": "",
          "type": "bool"
        }
      ],
      "stateMutability": "view",
      "type": "function"
    },
    {
      "inputs": [],
      "name": "symbol",
      "outputs": [
        {
          "internalType": "string",
          "name": "",
          "type": "string"
        }
      ],
      "stateMutability": "view",
      "type": "function"
    },
    {
      "inputs": [
        {
          "internalType": "uint256",
          "name": "tokenId",
          "type": "uint256"
        }
      ],
      "name": "tokenURI",
      "outputs": [
        {
          "internalType": "string",
          "name": "",
          "type": "string"
        }
      ],
      "stateMutability": "view",
      "type": "function"
    },
    {
      "inputs": [
        {
          "internalType": "address",
          "name": "from",
          "type": "address"
        },
        {
          "internalType": "address",
          "name": "to",
          "type": "address"
        },
        {
          "internalType": "uint256",
          "name": "tokenId",
          "type": "uint256"
        }
      ],
      "name": "transferFrom",
      "outputs": [],
      "stateMutability": "nonpayable",
      "type": "function"
    }
  ],
  "bytecode": "0x6080604052600060065534801561001557600080fd5b5060405161290d38038061290d833981810160405281019061003791906101e8565b8282816000908161004891906104b0565b50806001908161005891906104b0565b505050806007908161006a91906104b0565b50505050610582565b6000604051905090565b600080fd5b600080fd5b600080fd5b600080fd5b6000601f19601f8301169050919050565b7f4e487b7100000000000000000000000000000000000000000000000000000000600052604160045260246000fd5b6100da82610091565b810181811067ffffffffffffffff821117156100f9576100f86100a2565b5b80604052505050565b600061010c610073565b905061011882826100d1565b919050565b600067ffffffffffffffff821115610138576101376100a2565b5b61014182610091565b9050602081019050919050565b60005b8381101561016c578082015181840152602081019050610151565b60008484015250505050565b600061018b6101868461011d565b610102565b9050828152602081018484840111156101a7576101a661008c565b5b6101b284828561014e565b509392505050565b600082601f8301126101cf576101ce610087565b5b81516101df848260208601610178565b91505092915050565b6000806000606084860312156102015761020061007d565b5b600084015167ffffffffffffffff81111561021f5761021e610082565b5b61022b868287016101ba565b935050602084015167ffffffffffffffff81111561024c5761024b610082565b5b610258868287016101ba565b925050604084015167ffffffffffffffff81111561027957610278610082565b5b610285868287016101ba565b9150509250925092565b600081519050919050565b7f4e487b7100000000000000000000000000000000000000000000000000000000600052602260045260246000fd5b600060028204905060018216806102e157607f821691505b6020821081036102f4576102f361029a565b5b50919050565b60008190508160005260206000209050919050565b60006020601f8301049050919050565b600082821b905092915050565b60006008830261035c7fffffffffffffffffffffffffffffffffffffffffffffffffffffffffffffffff8261031f565b610366868361031f565b95508019841693508086168417925050509392505050565b6000819050919050565b6000819050919050565b60006103ad6103a86103a38461037e565b610388565b61037e565b9050919050565b6000819050919050565b6103c783610392565b6103db6103d3826103b4565b84845461032c565b825550505050565b600090565b6103f06103e3565b6103fb8184846103be565b505050565b5b8181101561041f576104146000826103e8565b600181019050610401565b5050565b601f82111561046457610435816102fa565b61043e8461030f565b8101602085101561044d578190505b6104616104598561030f565b830182610400565b50505b505050565b600082821c905092915050565b600061048760001984600802610469565b1980831691505092915050565b60006104a08383610476565b9150826002028217905092915050565b6104b98261028f565b67ffffffffffffffff8111156104d2576104d16100a2565b5b6104dc82546102c9565b6104e7828285610423565b600060209050601f83116001811461051a5760008415610508578287015190505b6105128582610494565b86555061057a565b601f198416610528866102fa565b60005b828110156105505784890151825560018201915060208501945060208101905061052b565b8683101561056d5784890151610569601f891682610476565b8355505b6001600288020188555050505b505050505050565b61237c806105916000396000f3fe608060405234801561001057600080fd5b50600436106100f55760003560e01c80636352211e11610097578063a22cb46511610066578063a22cb46514610282578063b88d4fde1461029e578063c87b56dd146102ba578063e985e9c5146102ea576100f5565b80636352211e146101e85780636a6278421461021857806370a082311461023457806395d89b4114610264576100f5565b8063095ea7b3116100d3578063095ea7b31461017857806323b872dd1461019457806342842e0e146101b057806355f804b3146101cc576100f5565b806301ffc9a7146100fa57806306fdde031461012a578063081812fc14610148575b600080fd5b610114600480360381019061010f919061177b565b61031a565b60405161012191906117c3565b60405180910390f35b6101326103fc565b60405161013f919061186e565b60405180910390f35b610162600480360381019061015d91906118c6565b61048e565b60405161016f9190611934565b60405180910390f35b610192600480360381019061018d919061197b565b6104aa565b005b6101ae60048036038101906101a991906119bb565b6104c0565b005b6101ca60048036038101906101c591906119bb565b6105c2565b005b6101e660048036038101906101e19190611b43565b6105e2565b005b61020260048036038101906101fd91906118c6565b6105f5565b60405161020f9190611934565b60405180910390f35b610232600480360381019061022d9190611b8c565b610607565b005b61024e60048036038101906102499190611b8c565b61069d565b60405161025b9190611bc8565b60405180910390f35b61026c610757565b604051610279919061186e565b60405180910390f35b61029c60048036038101906102979190611c0f565b6107e9565b005b6102b860048036038101906102b39190611cf0565b6107ff565b005b6102d460048036038101906102cf91906118c6565b61081c565b6040516102e1919061186e565b60405180910390f35b61030460048036038101906102ff9190611d73565b610885565b60405161031191906117c3565b60405180910390f35b60007f80ac58cd000000000000000000000000000000000000000000000000000000007bffffffffffffffffffffffffffffffffffffffffffffffffffffffff1916827bffffffffffffffffffffffffffffffffffffffffffffffffffffffff191614806103e557507f5b5e139f000000000000000000000000000000000000000000000000000000007bffffffffffffffffffffffffffffffffffffffffffffffffffffffff1916827bffffffffffffffffffffffffffffffffffffffffffffffffffffffff1916145b806103f557506103f482610919565b5b9050919050565b60606000805461040b90611de2565b80601f016020809104026020016040519081016040528092919081815260200182805461043790611de2565b80156104845780601f1061045957610100808354040283529160200191610484565b820191906000526020600020905b81548152906001019060200180831161046757829003601f168201915b5050505050905090565b600061049982610983565b506104a382610a0b565b9050919050565b6104bc82826104b7610a48565b610a50565b5050565b600073ffffffffffffffffffffffffffffffffffffffff168273ffffffffffffffffffffffffffffffffffffffff16036105325760006040517f64a0ae920000000000000000000000000000000000000000000000000000000081526004016105299190611934565b60405180910390fd5b60006105468383610541610a48565b610a62565b90508373ffffffffffffffffffffffffffffffffffffffff168173ffffffffffffffffffffffffffffffffffffffff16146105bc578382826040517f64283d7b0000000000000000000000000000000000000000000000000000000081526004016105b393929190611e13565b60405180910390fd5b50505050565b6105dd838383604051806020016040528060008152506107ff565b505050565b80600790816105f19190611ff6565b5050565b600061060082610983565b9050919050565b600073ffffffffffffffffffffffffffffffffffffffff168173ffffffffffffffffffffffffffffffffffffffff1603610676576040517f08c379a000000000000000000000000000000000000000000000000000000000815260040161066d90612114565b60405180910390fd5b6006600081548092919061068990612163565b919050555061069a81600654610c7c565b50565b60008073ffffffffffffffffffffffffffffffffffffffff168273ffffffffffffffffffffffffffffffffffffffff16036107105760006040517f89c62b640000000000000000000000000000000000000000000000000000000081526004016107079190611934565b60405180910390fd5b600360008373ffffffffffffffffffffffffffffffffffffffff1673ffffffffffffffffffffffffffffffffffffffff168152602001908152602001600020549050919050565b60606001805461076690611de2565b80601f016020809104026020016040519081016040528092919081815260200182805461079290611de2565b80156107df5780601f106107b4576101008083540402835291602001916107df565b820191906000526020600020905b8154815290600101906020018083116107c257829003601f168201915b5050505050905090565b6107fb6107f4610a48565b8383610c9a565b5050565b61080a8484846104c0565b61081684848484610e09565b50505050565b606061082782610983565b506000610832610fc0565b90506000815111610852576040518060200160405280600081525061087d565b8061085c84611052565b60405160200161086d9291906121e7565b6040516020818303038152906040525b915050919050565b6000600560008473ffffffffffffffffffffffffffffffffffffffff1673ffffffffffffffffffffffffffffffffffffffff16815260200190815260200160002060008373ffffffffffffffffffffffffffffffffffffffff1673ffffffffffffffffffffffffffffffffffffffff16815260200190815260200160002060009054906101000a900460ff16905092915050565b60007f01ffc9a7000000000000000000000000000000000000000000000000000000007bffffffffffffffffffffffffffffffffffffffffffffffffffffffff1916827bffffffffffffffffffffffffffffffffffffffffffffffffffffffff1916149050919050565b60008061098f83611120565b9050600073ffffffffffffffffffffffffffffffffffffffff168173ffffffffffffffffffffffffffffffffffffffff1603610a0257826040517f7e2732890000000000000000000000000000000000000000000000000000000081526004016109f99190611bc8565b60405180910390fd5b80915050919050565b60006004600083815260200190815260200160002060009054906101000a900473ffffffffffffffffffffffffffffffffffffffff169050919050565b600033905090565b610a5d838383600161115d565b505050565b600080610a6e84611120565b9050600073ffffffffffffffffffffffffffffffffffffffff168373ffffffffffffffffffffffffffffffffffffffff1614610ab057610aaf818486611322565b5b600073ffffffffffffffffffffffffffffffffffffffff168173ffffffffffffffffffffffffffffffffffffffff1614610b4157610af260008560008061115d565b6001600360008373ffffffffffffffffffffffffffffffffffffffff1673ffffffffffffffffffffffffffffffffffffffff168152602001908152602001600020600082825403925050819055505b600073ffffffffffffffffffffffffffffffffffffffff168573ffffffffffffffffffffffffffffffffffffffff1614610bc4576001600360008773ffffffffffffffffffffffffffffffffffffffff1673ffffffffffffffffffffffffffffffffffffffff168152602001908152602001600020600082825401925050819055505b846002600086815260200190815260200160002060006101000a81548173ffffffffffffffffffffffffffffffffffffffff021916908373ffffffffffffffffffffffffffffffffffffffff160217905550838573ffffffffffffffffffffffffffffffffffffffff168273ffffffffffffffffffffffffffffffffffffffff167fddf252ad1be2c89b69c2b068fc378daa952ba7f163c4a11628f55a4df523b3ef60405160405180910390a4809150509392505050565b610c968282604051806020016040528060008152506113e6565b5050565b600073ffffffffffffffffffffffffffffffffffffffff168273ffffffffffffffffffffffffffffffffffffffff1603610d0b57816040517f5b08ba18000000000000000000000000000000000000000000000000000000008152600401610d029190611934565b60405180910390fd5b80600560008573ffffffffffffffffffffffffffffffffffffffff1673ffffffffffffffffffffffffffffffffffffffff16815260200190815260200160002060008473ffffffffffffffffffffffffffffffffffffffff1673ffffffffffffffffffffffffffffffffffffffff16815260200190815260200160002060006101000a81548160ff0219169083151502179055508173ffffffffffffffffffffffffffffffffffffffff168373ffffffffffffffffffffffffffffffffffffffff167f17307eab39ab6107e8899845ad3d59bd9653f200f220920489ca2b5937696c3183604051610dfc91906117c3565b60405180910390a3505050565b60008373ffffffffffffffffffffffffffffffffffffffff163b1115610fba578273ffffffffffffffffffffffffffffffffffffffff1663150b7a02610e4d610a48565b8685856040518563ffffffff1660e01b8152600401610e6f9493929190612260565b6020604051808303816000875af1925050508015610eab57506040513d601f19601f82011682018060405250810190610ea891906122c1565b60015b610f2f573d8060008114610edb576040519150601f19603f3d011682016040523d82523d6000602084013e610ee0565b606091505b506000815103610f2757836040517f64a0ae92000000000000000000000000000000000000000000000000000000008152600401610f1e9190611934565b60405180910390fd5b805181602001fd5b63150b7a0260e01b7bffffffffffffffffffffffffffffffffffffffffffffffffffffffff1916817bffffffffffffffffffffffffffffffffffffffffffffffffffffffff191614610fb857836040517f64a0ae92000000000000000000000000000000000000000000000000000000008152600401610faf9190611934565b60405180910390fd5b505b50505050565b606060078054610fcf90611de2565b80601f0160208091040260200160405190810160405280929190818152602001828054610ffb90611de2565b80156110485780601f1061101d57610100808354040283529160200191611048565b820191906000526020600020905b81548152906001019060200180831161102b57829003601f168201915b5050505050905090565b60606000600161106184611402565b01905060008167ffffffffffffffff8111156110805761107f611a18565b5b6040519080825280601f01601f1916602001820160405280156110b25781602001600182028036833780820191505090505b509050600082602001820190505b600115611115578080600190039150507f3031323334353637383961626364656600000000000000000000000000000000600a86061a8153600a8581611109576111086122ee565b5b049450600085036110c0575b819350505050919050565b60006002600083815260200190815260200160002060009054906101000a900473ffffffffffffffffffffffffffffffffffffffff169050919050565b80806111965750600073ffffffffffffffffffffffffffffffffffffffff168273ffffffffffffffffffffffffffffffffffffffff1614155b156112ca5760006111a684610983565b9050600073ffffffffffffffffffffffffffffffffffffffff168373ffffffffffffffffffffffffffffffffffffffff161415801561121157508273ffffffffffffffffffffffffffffffffffffffff168173ffffffffffffffffffffffffffffffffffffffff1614155b801561122457506112228184610885565b155b1561126657826040517fa9fbf51f00000000000000000000000000000000000000000000000000000000815260040161125d9190611934565b60405180910390fd5b81156112c857838573ffffffffffffffffffffffffffffffffffffffff168273ffffffffffffffffffffffffffffffffffffffff167f8c5be1e5ebec7d5bd14f71427d1e84f3dd0314c0f7b2291e5b200ac8c7c3b92560405160405180910390a45b505b836004600085815260200190815260200160002060006101000a81548173ffffffffffffffffffffffffffffffffffffffff021916908373ffffffffffffffffffffffffffffffffffffffff16021790555050505050565b61132d838383611555565b6113e157600073ffffffffffffffffffffffffffffffffffffffff168373ffffffffffffffffffffffffffffffffffffffff16036113a257806040517f7e2732890000000000000000000000000000000000000000000000000000000081526004016113999190611bc8565b60405180910390fd5b81816040517f177e802f0000000000000000000000000000000000000000000000000000000081526004016113d892919061231d565b60405180910390fd5b505050565b6113f08383611616565b6113fd6000848484610e09565b505050565b600080600090507a184f03e93ff9f4daa797ed6e38ed64bf6a1f0100000000000000008310611460577a184f03e93ff9f4daa797ed6e38ed64bf6a1f0100000000000000008381611456576114556122ee565b5b0492506040810190505b6d04ee2d6d415b85acef8100000000831061149d576d04ee2d6d415b85acef81000000008381611493576114926122ee565b5b0492506020810190505b662386f26fc1000083106114cc57662386f26fc1000083816114c2576114c16122ee565b5b0492506010810190505b6305f5e10083106114f5576305f5e10083816114eb576114ea6122ee565b5b0492506008810190505b612710831061151a5761271083816115105761150f6122ee565b5b0492506004810190505b6064831061153d5760648381611533576115326122ee565b5b0492506002810190505b600a831061154c576001810190505b80915050919050565b60008073ffffffffffffffffffffffffffffffffffffffff168373ffffffffffffffffffffffffffffffffffffffff161415801561160d57508273ffffffffffffffffffffffffffffffffffffffff168473ffffffffffffffffffffffffffffffffffffffff1614806115ce57506115cd8484610885565b5b8061160c57508273ffffffffffffffffffffffffffffffffffffffff166115f483610a0b565b73ffffffffffffffffffffffffffffffffffffffff16145b5b90509392505050565b600073ffffffffffffffffffffffffffffffffffffffff168273ffffffffffffffffffffffffffffffffffffffff16036116885760006040517f64a0ae9200000000000000000000000000000000000000000000000000000000815260040161167f9190611934565b60405180910390fd5b600061169683836000610a62565b9050600073ffffffffffffffffffffffffffffffffffffffff168173ffffffffffffffffffffffffffffffffffffffff161461170a5760006040517f73c6ac6e0000000000000000000000000000000000000000000000000000000081526004016117019190611934565b60405180910390fd5b505050565b6000604051905090565b600080fd5b600080fd5b60007fffffffff0000000000000000000000000000000000000000000000000000000082169050919050565b61175881611723565b811461176357600080fd5b50565b6000813590506117758161174f565b92915050565b60006020828403121561179157611790611719565b5b600061179f84828501611766565b91505092915050565b60008115159050919050565b6117bd816117a8565b82525050565b60006020820190506117d860008301846117b4565b92915050565b600081519050919050565b600082825260208201905092915050565b60005b838110156118185780820151818401526020810190506117fd565b60008484015250505050565b6000601f19601f8301169050919050565b6000611840826117de565b61184a81856117e9565b935061185a8185602086016117fa565b61186381611824565b840191505092915050565b600060208201905081810360008301526118888184611835565b905092915050565b6000819050919050565b6118a381611890565b81146118ae57600080fd5b50565b6000813590506118c08161189a565b92915050565b6000602082840312156118dc576118db611719565b5b60006118ea848285016118b1565b91505092915050565b600073ffffffffffffffffffffffffffffffffffffffff82169050919050565b600061191e826118f3565b9050919050565b61192e81611913565b82525050565b60006020820190506119496000830184611925565b92915050565b61195881611913565b811461196357600080fd5b50565b6000813590506119758161194f565b92915050565b6000806040838503121561199257611991611719565b5b60006119a085828601611966565b92505060206119b1858286016118b1565b9150509250929050565b6000806000606084860312156119d4576119d3611719565b5b60006119e286828701611966565b93505060206119f386828701611966565b9250506040611a04868287016118b1565b9150509250925092565b600080fd5b600080fd5b7f4e487b7100000000000000000000000000000000000000000000000000000000600052604160045260246000fd5b611a5082611824565b810181811067ffffffffffffffff82111715611a6f57611a6e611a18565b5b80604052505050565b6000611a8261170f565b9050611a8e8282611a47565b919050565b600067ffffffffffffffff821115611aae57611aad611a18565b5b611ab782611824565b9050602081019050919050565b82818337600083830152505050565b6000611ae6611ae184611a93565b611a78565b905082815260208101848484011115611b0257611b01611a13565b5b611b0d848285611ac4565b509392505050565b600082601f830112611b2a57611b29611a0e565b5b8135611b3a848260208601611ad3565b91505092915050565b600060208284031215611b5957611b58611719565b5b600082013567ffffffffffffffff811115611b7757611b7661171e565b5b611b8384828501611b15565b91505092915050565b600060208284031215611ba257611ba1611719565b5b6000611bb084828501611966565b91505092915050565b611bc281611890565b82525050565b6000602082019050611bdd6000830184611bb9565b92915050565b611bec816117a8565b8114611bf757600080fd5b50565b600081359050611c0981611be3565b92915050565b60008060408385031215611c2657611c25611719565b5b6000611c3485828601611966565b9250506020611c4585828601611bfa565b9150509250929050565b600067ffffffffffffffff821115611c6a57611c69611a18565b5b611c7382611824565b9050602081019050919050565b6000611c93611c8e84611c4f565b611a78565b905082815260208101848484011115611caf57611cae611a13565b5b611cba848285611ac4565b509392505050565b600082601f830112611cd757611cd6611a0e565b5b8135611ce7848260208601611c80565b91505092915050565b60008060008060808587031215611d0a57611d09611719565b5b6000611d1887828801611966565b9450506020611d2987828801611966565b9350506040611d3a878288016118b1565b925050606085013567ffffffffffffffff811115611d5b57611d5a61171e565b5b611d6787828801611cc2565b91505092959194509250565b60008060408385031215611d8a57611d89611719565b5b6000611d9885828601611966565b9250506020611da985828601611966565b9150509250929050565b7f4e487b7100000000000000000000000000000000000000000000000000000000600052602260045260246000fd5b60006002820490506001821680611dfa57607f821691505b602082108103611e0d57611e0c611db3565b5b50919050565b6000606082019050611e286000830186611925565b611e356020830185611bb9565b611e426040830184611925565b949350505050565b60008190508160005260206000209050919050565b60006020601f8301049050919050565b600082821b905092915050565b600060088302611eac7fffffffffffffffffffffffffffffffffffffffffffffffffffffffffffffffff82611e6f565b611eb68683611e6f565b95508019841693508086168417925050509392505050565b6000819050919050565b6000611ef3611eee611ee984611890565b611ece565b611890565b9050919050565b6000819050919050565b611f0d83611ed8565b611f21611f1982611efa565b848454611e7c565b825550505050565b600090565b611f36611f29565b611f41818484611f04565b505050565b5b81811015611f6557611f5a600082611f2e565b600181019050611f47565b5050565b601f821115611faa57611f7b81611e4a565b611f8484611e5f565b81016020851015611f93578190505b611fa7611f9f85611e5f565b830182611f46565b50505b505050565b600082821c905092915050565b6000611fcd60001984600802611faf565b1980831691505092915050565b6000611fe68383611fbc565b9150826002028217905092915050565b611fff826117de565b67ffffffffffffffff81111561201857612017611a18565b5b6120228254611de2565b61202d828285611f69565b600060209050601f831160018114612060576000841561204e578287015190505b6120588582611fda565b8655506120c0565b601f19841661206e86611e4a565b60005b8281101561209657848901518255600182019150602085019450602081019050612071565b868310156120b357848901516120af601f891682611fbc565b8355505b6001600288020188555050505b505050505050565b7f43616e6e6f74206d696e7420746f207a65726f20616464726573730000000000600082015250565b60006120fe601b836117e9565b9150612109826120c8565b602082019050919050565b6000602082019050818103600083015261212d816120f1565b9050919050565b7f4e487b7100000000000000000000000000000000000000000000000000000000600052601160045260246000fd5b600061216e82611890565b91507fffffffffffffffffffffffffffffffffffffffffffffffffffffffffffffffff82036121a05761219f612134565b5b600182019050919050565b600081905092915050565b60006121c1826117de565b6121cb81856121ab565b93506121db8185602086016117fa565b80840191505092915050565b60006121f382856121b6565b91506121ff82846121b6565b91508190509392505050565b600081519050919050565b600082825260208201905092915050565b60006122328261220b565b61223c8185612216565b935061224c8185602086016117fa565b61225581611824565b840191505092915050565b60006080820190506122756000830187611925565b6122826020830186611925565b61228f6040830185611bb9565b81810360608301526122a18184612227565b905095945050505050565b6000815190506122bb8161174f565b92915050565b6000602082840312156122d7576122d6611719565b5b60006122e5848285016122ac565b91505092915050565b7f4e487b7100000000000000000000000000000000000000000000000000000000600052601260045260246000fd5b60006040820190506123326000830185611925565b61233f6020830184611bb9565b939250505056fea2646970667358221220f6d8b3d02d500c4db7a70399ce6943922c9ab33c020f2b85a8f0ce6ed31763ef64736f6c63430008190033",
  "linkReferences": {},
  "deployedLinkReferences": {}
}