{
  "_format": "hh-sol-artifact-1",
  "contractName": "Token",
  "sourceName": "contracts/Token.sol",
  "abi": [
    {
      "inputs": [
        {
          "internalType": "string",
          "name": "_name",
          "type": "string"
        },
        {
          "internalType": "string",
          "name": "_symbol",
          "type": "string"
        }
      ],
      "stateMutability": "nonpayable",
      "type": "constructor"
    },
    {
      "inputs": [
        {
          "internalType": "address",
          "name": "spender",
          "type": "address"
        },
        {
          "internalType": "uint256",
          "name": "allowance",
          "type": "uint256"
        },
        {
          "internalType": "uint256",
          "name": "needed",
          "type": "uint256"
        }
      ],
      "name": "ERC20InsufficientAllowance",
      "type": "error"
    },
    {
      "inputs": [
        {
          "internalType": "address",
          "name": "sender",
          "type": "address"
        },
        {
          "internalType": "uint256",
          "name": "balance",
          "type": "uint256"
        },
        {
          "internalType": "uint256",
          "name": "needed",
          "type": "uint256"
        }
      ],
      "name": "ERC20InsufficientBalance",
      "type": "error"
    },
    {
      "inputs": [
        {
          "internalType": "address",
          "name": "approver",
          "type": "address"
        }
      ],
      "name": "ERC20InvalidApprover",
      "type": "error"
    },
    {
      "inputs": [
        {
          "internalType": "address",
          "name": "receiver",
          "type": "address"
        }
      ],
      "name": "ERC20InvalidReceiver",
      "type": "error"
    },
    {
      "inputs": [
        {
          "internalType": "address",
          "name": "sender",
          "type": "address"
        }
      ],
      "name": "ERC20InvalidSender",
      "type": "error"
    },
    {
      "inputs": [
        {
          "internalType": "address",
          "name": "spender",
          "type": "address"
        }
      ],
      "name": "ERC20InvalidSpender",
      "type": "error"
    },
    {
      "inputs": [
        {
          "internalType": "address",
          "name": "owner",
          "type": "address"
        }
      ],
      "name": "OwnableInvalidOwner",
      "type": "error"
    },
    {
      "inputs": [
        {
          "internalType": "address",
          "name": "account",
          "type": "address"
        }
      ],
      "name": "OwnableUnauthorizedAccount",
      "type": "error"
    },
    {
      "anonymous": false,
      "inputs": [
        {
          "indexed": true,
          "internalType": "address",
          "name": "owner",
          "type": "address"
        },
        {
          "indexed": true,
          "internalType": "address",
          "name": "spender",
          "type": "address"
        },
        {
          "indexed": false,
          "internalType": "uint256",
          "name": "value",
          "type": "uint256"
        }
      ],
      "name": "Approval",
      "type": "event"
    },
    {
      "anonymous": false,
      "inputs": [
        {
          "indexed": true,
          "internalType": "address",
          "name": "previousOwner",
          "type": "address"
        },
        {
          "indexed": true,
          "internalType": "address",
          "name": "newOwner",
          "type": "address"
        }
      ],
      "name": "OwnershipTransferred",
      "type": "event"
    },
    {
      "anonymous": false,
      "inputs": [
        {
          "indexed": true,
          "internalType": "address",
          "name": "from",
          "type": "address"
        },
        {
          "indexed": true,
          "internalType": "address",
          "name": "to",
          "type": "address"
        },
        {
          "indexed": false,
          "internalType": "uint256",
          "name": "value",
          "type": "uint256"
        }
      ],
      "name": "Transfer",
      "type": "event"
    },
    {
      "inputs": [
        {
          "internalType": "address",
          "name": "owner",
          "type": "address"
        },
        {
          "internalType": "address",
          "name": "spender",
          "type": "address"
        }
      ],
      "name": "allowance",
      "outputs": [
        {
          "internalType": "uint256",
          "name": "",
          "type": "uint256"
        }
      ],
      "stateMutability": "view",
      "type": "function"
    },
    {
      "inputs": [
        {
          "internalType": "address",
          "name": "spender",
          "type": "address"
        },
        {
          "internalType": "uint256",
          "name": "value",
          "type": "uint256"
        }
      ],
      "name": "approve",
      "outputs": [
        {
          "internalType": "bool",
          "name": "",
          "type": "bool"
        }
      ],
      "stateMutability": "nonpayable",
      "type": "function"
    },
    {
      "inputs": [
        {
          "internalType": "address",
          "name": "account",
          "type": "address"
        }
      ],
      "name": "balanceOf",
      "outputs": [
        {
          "internalType": "uint256",
          "name": "",
          "type": "uint256"
        }
      ],
      "stateMutability": "view",
      "type": "function"
    },
    {
      "inputs": [],
      "name": "decimals",
      "outputs": [
        {
          "internalType": "uint8",
          "name": "",
          "type": "uint8"
        }
      ],
      "stateMutability": "view",
      "type": "function"
    },
    {
      "inputs": [],
      "name": "name",
      "outputs": [
        {
          "internalType": "string",
          "name": "",
          "type": "string"
        }
      ],
      "stateMutability": "view",
      "type": "function"
    },
    {
      "inputs": [],
      "name": "owner",
      "outputs": [
        {
          "internalType": "address",
          "name": "",
          "type": "address"
        }
      ],
      "stateMutability": "view",
      "type": "function"
    },
    {
      "inputs": [],
      "name": "renounceOwnership",
      "outputs": [],
      "stateMutability": "nonpayable",
      "type": "function"
    },
    {
      "inputs": [],
      "name": "symbol",
      "outputs": [
        {
          "internalType": "string",
          "name": "",
          "type": "string"
        }
      ],
      "stateMutability": "view",
      "type": "function"
    },
    {
      "inputs": [],
      "name": "totalSupply",
      "outputs": [
        {
          "internalType": "uint256",
          "name": "",
          "type": "uint256"
        }
      ],
      "stateMutability": "view",
      "type": "function"
    },
    {
      "inputs": [
        {
          "internalType": "address",
          "name": "to",
          "type": "address"
        },
        {
          "internalType": "uint256",
          "name": "value",
          "type": "uint256"
        }
      ],
      "name": "transfer",
      "outputs": [
        {
          "internalType": "bool",
          "name": "",
          "type": "bool"
        }
      ],
      "stateMutability": "nonpayable",
      "type": "function"
    },
    {
      "inputs": [
        {
          "internalType": "address",
          "name": "from",
          "type": "address"
        },
        {
          "internalType": "address",
          "name": "to",
          "type": "address"
        },
        {
          "internalType": "uint256",
          "name": "value",
          "type": "uint256"
        }
      ],
      "name": "transferFrom",
      "outputs": [
        {
          "internalType": "bool",
          "name": "",
          "type": "bool"
        }
      ],
      "stateMutability": "nonpayable",
      "type": "function"
    },
    {
      "inputs": [
        {
          "internalType": "address",
          "name": "newOwner",
          "type": "address"
        }
      ],
      "name": "transferOwnership",
      "outputs": [],
      "stateMutability": "nonpayable",
      "type": "function"
    }
  ],
  "bytecode": "0x608060405234801561001057600080fd5b50604051611d35380380611d3583398181016040528101906100329190610610565b338282816003908161004491906108a9565b50806004908161005491906108a9565b505050600073ffffffffffffffffffffffffffffffffffffffff168173ffffffffffffffffffffffffffffffffffffffff16036100c95760006040517f1e4fbdf70000000000000000000000000000000000000000000000000000000081526004016100c091906109bc565b60405180910390fd5b6100d88161011f60201b60201c565b50610118336100eb6101e560201b60201c565b60ff16600a6100fa9190610b39565b678ac7230489e8000061010d9190610b84565b6101ee60201b60201c565b5050610c5b565b6000600560009054906101000a900473ffffffffffffffffffffffffffffffffffffffff16905081600560006101000a81548173ffffffffffffffffffffffffffffffffffffffff021916908373ffffffffffffffffffffffffffffffffffffffff1602179055508173ffffffffffffffffffffffffffffffffffffffff168173ffffffffffffffffffffffffffffffffffffffff167f8be0079c531659141344cd1fd0a4f28419497f9722a3daafe3b4186f6b6457e060405160405180910390a35050565b60006012905090565b600073ffffffffffffffffffffffffffffffffffffffff168273ffffffffffffffffffffffffffffffffffffffff16036102605760006040517fec442f0500000000000000000000000000000000000000000000000000000000815260040161025791906109bc565b60405180910390fd5b6102726000838361027660201b60201c565b5050565b600073ffffffffffffffffffffffffffffffffffffffff168373ffffffffffffffffffffffffffffffffffffffff16036102c85780600260008282546102bc9190610bc6565b9250508190555061039b565b60008060008573ffffffffffffffffffffffffffffffffffffffff1673ffffffffffffffffffffffffffffffffffffffff16815260200190815260200160002054905081811015610354578381836040517fe450d38c00000000000000000000000000000000000000000000000000000000815260040161034b93929190610c09565b60405180910390fd5b8181036000808673ffffffffffffffffffffffffffffffffffffffff1673ffffffffffffffffffffffffffffffffffffffff16815260200190815260200160002081905550505b600073ffffffffffffffffffffffffffffffffffffffff168273ffffffffffffffffffffffffffffffffffffffff16036103e45780600260008282540392505081905550610431565b806000808473ffffffffffffffffffffffffffffffffffffffff1673ffffffffffffffffffffffffffffffffffffffff168152602001908152602001600020600082825401925050819055505b8173ffffffffffffffffffffffffffffffffffffffff168373ffffffffffffffffffffffffffffffffffffffff167fddf252ad1be2c89b69c2b068fc378daa952ba7f163c4a11628f55a4df523b3ef8360405161048e9190610c40565b60405180910390a3505050565b6000604051905090565b600080fd5b600080fd5b600080fd5b600080fd5b6000601f19601f8301169050919050565b7f4e487b7100000000000000000000000000000000000000000000000000000000600052604160045260246000fd5b610502826104b9565b810181811067ffffffffffffffff82111715610521576105206104ca565b5b80604052505050565b600061053461049b565b905061054082826104f9565b919050565b600067ffffffffffffffff8211156105605761055f6104ca565b5b610569826104b9565b9050602081019050919050565b60005b83811015610594578082015181840152602081019050610579565b60008484015250505050565b60006105b36105ae84610545565b61052a565b9050828152602081018484840111156105cf576105ce6104b4565b5b6105da848285610576565b509392505050565b600082601f8301126105f7576105f66104af565b5b81516106078482602086016105a0565b91505092915050565b60008060408385031215610627576106266104a5565b5b600083015167ffffffffffffffff811115610645576106446104aa565b5b610651858286016105e2565b925050602083015167ffffffffffffffff811115610672576106716104aa565b5b61067e858286016105e2565b9150509250929050565b600081519050919050565b7f4e487b7100000000000000000000000000000000000000000000000000000000600052602260045260246000fd5b600060028204905060018216806106da57607f821691505b6020821081036106ed576106ec610693565b5b50919050565b60008190508160005260206000209050919050565b60006020601f8301049050919050565b600082821b905092915050565b6000600883026107557fffffffffffffffffffffffffffffffffffffffffffffffffffffffffffffffff82610718565b61075f8683610718565b95508019841693508086168417925050509392505050565b6000819050919050565b6000819050919050565b60006107a66107a161079c84610777565b610781565b610777565b9050919050565b6000819050919050565b6107c08361078b565b6107d46107cc826107ad565b848454610725565b825550505050565b600090565b6107e96107dc565b6107f48184846107b7565b505050565b5b818110156108185761080d6000826107e1565b6001810190506107fa565b5050565b601f82111561085d5761082e816106f3565b61083784610708565b81016020851015610846578190505b61085a61085285610708565b8301826107f9565b50505b505050565b600082821c905092915050565b600061088060001984600802610862565b1980831691505092915050565b6000610899838361086f565b9150826002028217905092915050565b6108b282610688565b67ffffffffffffffff8111156108cb576108ca6104ca565b5b6108d582546106c2565b6108e082828561081c565b600060209050601f8311600181146109135760008415610901578287015190505b61090b858261088d565b865550610973565b601f198416610921866106f3565b60005b8281101561094957848901518255600182019150602085019450602081019050610924565b868310156109665784890151610962601f89168261086f565b8355505b6001600288020188555050505b505050505050565b600073ffffffffffffffffffffffffffffffffffffffff82169050919050565b60006109a68261097b565b9050919050565b6109b68161099b565b82525050565b60006020820190506109d160008301846109ad565b92915050565b7f4e487b7100000000000000000000000000000000000000000000000000000000600052601160045260246000fd5b60008160011c9050919050565b6000808291508390505b6001851115610a5d57808604811115610a3957610a386109d7565b5b6001851615610a485780820291505b8081029050610a5685610a06565b9450610a1d565b94509492505050565b600082610a765760019050610b32565b81610a845760009050610b32565b8160018114610a9a5760028114610aa457610ad3565b6001915050610b32565b60ff841115610ab657610ab56109d7565b5b8360020a915084821115610acd57610acc6109d7565b5b50610b32565b5060208310610133831016604e8410600b8410161715610b085782820a905083811115610b0357610b026109d7565b5b610b32565b610b158484846001610a13565b92509050818404811115610b2c57610b2b6109d7565b5b81810290505b9392505050565b6000610b4482610777565b9150610b4f83610777565b9250610b7c7fffffffffffffffffffffffffffffffffffffffffffffffffffffffffffffffff8484610a66565b905092915050565b6000610b8f82610777565b9150610b9a83610777565b9250828202610ba881610777565b91508282048414831517610bbf57610bbe6109d7565b5b5092915050565b6000610bd182610777565b9150610bdc83610777565b9250828201905080821115610bf457610bf36109d7565b5b92915050565b610c0381610777565b82525050565b6000606082019050610c1e60008301866109ad565b610c2b6020830185610bfa565b610c386040830184610bfa565b949350505050565b6000602082019050610c556000830184610bfa565b92915050565b6110cb80610c6a6000396000f3fe608060405234801561001057600080fd5b50600436106100b45760003560e01c8063715018a611610071578063715018a6146101a35780638da5cb5b146101ad57806395d89b41146101cb578063a9059cbb146101e9578063dd62ed3e14610219578063f2fde38b14610249576100b4565b806306fdde03146100b9578063095ea7b3146100d757806318160ddd1461010757806323b872dd14610125578063313ce5671461015557806370a0823114610173575b600080fd5b6100c1610265565b6040516100ce9190610d1f565b60405180910390f35b6100f160048036038101906100ec9190610dda565b6102f7565b6040516100fe9190610e35565b60405180910390f35b61010f61031a565b60405161011c9190610e5f565b60405180910390f35b61013f600480360381019061013a9190610e7a565b610324565b60405161014c9190610e35565b60405180910390f35b61015d610353565b60405161016a9190610ee9565b60405180910390f35b61018d60048036038101906101889190610f04565b61035c565b60405161019a9190610e5f565b60405180910390f35b6101ab6103a4565b005b6101b56103b8565b6040516101c29190610f40565b60405180910390f35b6101d36103e2565b6040516101e09190610d1f565b60405180910390f35b61020360048036038101906101fe9190610dda565b610474565b6040516102109190610e35565b60405180910390f35b610233600480360381019061022e9190610f5b565b610497565b6040516102409190610e5f565b60405180910390f35b610263600480360381019061025e9190610f04565b61051e565b005b60606003805461027490610fca565b80601f01602080910402602001604051908101604052809291908181526020018280546102a090610fca565b80156102ed5780601f106102c2576101008083540402835291602001916102ed565b820191906000526020600020905b8154815290600101906020018083116102d057829003601f168201915b5050505050905090565b6000806103026105a4565b905061030f8185856105ac565b600191505092915050565b6000600254905090565b60008061032f6105a4565b905061033c8582856105be565b610347858585610652565b60019150509392505050565b60006012905090565b60008060008373ffffffffffffffffffffffffffffffffffffffff1673ffffffffffffffffffffffffffffffffffffffff168152602001908152602001600020549050919050565b6103ac610746565b6103b660006107cd565b565b6000600560009054906101000a900473ffffffffffffffffffffffffffffffffffffffff16905090565b6060600480546103f190610fca565b80601f016020809104026020016040519081016040528092919081815260200182805461041d90610fca565b801561046a5780601f1061043f5761010080835404028352916020019161046a565b820191906000526020600020905b81548152906001019060200180831161044d57829003601f168201915b5050505050905090565b60008061047f6105a4565b905061048c818585610652565b600191505092915050565b6000600160008473ffffffffffffffffffffffffffffffffffffffff1673ffffffffffffffffffffffffffffffffffffffff16815260200190815260200160002060008373ffffffffffffffffffffffffffffffffffffffff1673ffffffffffffffffffffffffffffffffffffffff16815260200190815260200160002054905092915050565b610526610746565b600073ffffffffffffffffffffffffffffffffffffffff168173ffffffffffffffffffffffffffffffffffffffff16036105985760006040517f1e4fbdf700000000000000000000000000000000000000000000000000000000815260040161058f9190610f40565b60405180910390fd5b6105a1816107cd565b50565b600033905090565b6105b98383836001610893565b505050565b60006105ca8484610497565b90507fffffffffffffffffffffffffffffffffffffffffffffffffffffffffffffffff811461064c578181101561063c578281836040517ffb8f41b200000000000000000000000000000000000000000000000000000000815260040161063393929190610ffb565b60405180910390fd5b61064b84848484036000610893565b5b50505050565b600073ffffffffffffffffffffffffffffffffffffffff168373ffffffffffffffffffffffffffffffffffffffff16036106c45760006040517f96c6fd1e0000000000000000000000000000000000000000000000000000000081526004016106bb9190610f40565b60405180910390fd5b600073ffffffffffffffffffffffffffffffffffffffff168273ffffffffffffffffffffffffffffffffffffffff16036107365760006040517fec442f0500000000000000000000000000000000000000000000000000000000815260040161072d9190610f40565b60405180910390fd5b610741838383610a6a565b505050565b61074e6105a4565b73ffffffffffffffffffffffffffffffffffffffff1661076c6103b8565b73ffffffffffffffffffffffffffffffffffffffff16146107cb5761078f6105a4565b6040517f118cdaa70000000000000000000000000000000000000000000000000000000081526004016107c29190610f40565b60405180910390fd5b565b6000600560009054906101000a900473ffffffffffffffffffffffffffffffffffffffff16905081600560006101000a81548173ffffffffffffffffffffffffffffffffffffffff021916908373ffffffffffffffffffffffffffffffffffffffff1602179055508173ffffffffffffffffffffffffffffffffffffffff168173ffffffffffffffffffffffffffffffffffffffff167f8be0079c531659141344cd1fd0a4f28419497f9722a3daafe3b4186f6b6457e060405160405180910390a35050565b600073ffffffffffffffffffffffffffffffffffffffff168473ffffffffffffffffffffffffffffffffffffffff16036109055760006040517fe602df050000000000000000000000000000000000000000000000000000000081526004016108fc9190610f40565b60405180910390fd5b600073ffffffffffffffffffffffffffffffffffffffff168373ffffffffffffffffffffffffffffffffffffffff16036109775760006040517f94280d6200000000000000000000000000000000000000000000000000000000815260040161096e9190610f40565b60405180910390fd5b81600160008673ffffffffffffffffffffffffffffffffffffffff1673ffffffffffffffffffffffffffffffffffffffff16815260200190815260200160002060008573ffffffffffffffffffffffffffffffffffffffff1673ffffffffffffffffffffffffffffffffffffffff168152602001908152602001600020819055508015610a64578273ffffffffffffffffffffffffffffffffffffffff168473ffffffffffffffffffffffffffffffffffffffff167f8c5be1e5ebec7d5bd14f71427d1e84f3dd0314c0f7b2291e5b200ac8c7c3b92584604051610a5b9190610e5f565b60405180910390a35b50505050565b600073ffffffffffffffffffffffffffffffffffffffff168373ffffffffffffffffffffffffffffffffffffffff1603610abc578060026000828254610ab09190611061565b92505081905550610b8f565b60008060008573ffffffffffffffffffffffffffffffffffffffff1673ffffffffffffffffffffffffffffffffffffffff16815260200190815260200160002054905081811015610b48578381836040517fe450d38c000000000000000000000000000000000000000000000000000000008152600401610b3f93929190610ffb565b60405180910390fd5b8181036000808673ffffffffffffffffffffffffffffffffffffffff1673ffffffffffffffffffffffffffffffffffffffff16815260200190815260200160002081905550505b600073ffffffffffffffffffffffffffffffffffffffff168273ffffffffffffffffffffffffffffffffffffffff1603610bd85780600260008282540392505081905550610c25565b806000808473ffffffffffffffffffffffffffffffffffffffff1673ffffffffffffffffffffffffffffffffffffffff168152602001908152602001600020600082825401925050819055505b8173ffffffffffffffffffffffffffffffffffffffff168373ffffffffffffffffffffffffffffffffffffffff167fddf252ad1be2c89b69c2b068fc378daa952ba7f163c4a11628f55a4df523b3ef83604051610c829190610e5f565b60405180910390a3505050565b600081519050919050565b600082825260208201905092915050565b60005b83811015610cc9578082015181840152602081019050610cae565b60008484015250505050565b6000601f19601f8301169050919050565b6000610cf182610c8f565b610cfb8185610c9a565b9350610d0b818560208601610cab565b610d1481610cd5565b840191505092915050565b60006020820190508181036000830152610d398184610ce6565b905092915050565b600080fd5b600073ffffffffffffffffffffffffffffffffffffffff82169050919050565b6000610d7182610d46565b9050919050565b610d8181610d66565b8114610d8c57600080fd5b50565b600081359050610d9e81610d78565b92915050565b6000819050919050565b610db781610da4565b8114610dc257600080fd5b50565b600081359050610dd481610dae565b92915050565b60008060408385031215610df157610df0610d41565b5b6000610dff85828601610d8f565b9250506020610e1085828601610dc5565b9150509250929050565b60008115159050919050565b610e2f81610e1a565b82525050565b6000602082019050610e4a6000830184610e26565b92915050565b610e5981610da4565b82525050565b6000602082019050610e746000830184610e50565b92915050565b600080600060608486031215610e9357610e92610d41565b5b6000610ea186828701610d8f565b9350506020610eb286828701610d8f565b9250506040610ec386828701610dc5565b9150509250925092565b600060ff82169050919050565b610ee381610ecd565b82525050565b6000602082019050610efe6000830184610eda565b92915050565b600060208284031215610f1a57610f19610d41565b5b6000610f2884828501610d8f565b91505092915050565b610f3a81610d66565b82525050565b6000602082019050610f556000830184610f31565b92915050565b60008060408385031215610f7257610f71610d41565b5b6000610f8085828601610d8f565b9250506020610f9185828601610d8f565b9150509250929050565b7f4e487b7100000000000000000000000000000000000000000000000000000000600052602260045260246000fd5b60006002820490506001821680610fe257607f821691505b602082108103610ff557610ff4610f9b565b5b50919050565b60006060820190506110106000830186610f31565b61101d6020830185610e50565b61102a6040830184610e50565b949350505050565b7f4e487b7100000000000000000000000000000000000000000000000000000000600052601160045260246000fd5b600061106c82610da4565b915061107783610da4565b925082820190508082111561108f5761108e611032565b5b9291505056fea2646970667358221220fefb58049d2bafbf0df8ab01ad962831413937e9fdf8e7e3b167c5e6b68fc97464736f6c63430008190033",
  "linkReferences": {},
  "deployedLinkReferences": {}
}