{
  "_format": "hh-sol-artifact-1",
  "contractName": "NFTMarket",
  "sourceName": "contracts/NFTMarket.sol",
  "abi": [
    {
      "inputs": [
        {
          "internalType": "address",
          "name": "_testCDEToken",
          "type": "address"
        },
        {
          "internalType": "address",
          "name": "_testTIMToken",
          "type": "address"
        },
        {
          "internalType": "address",
          "name": "_Owner",
          "type": "address"
        }
      ],
      "stateMutability": "nonpayable",
      "type": "constructor"
    },
    {
      "inputs": [
        {
          "internalType": "uint256",
          "name": "_tokenAmount",
          "type": "uint256"
        },
        {
          "internalType": "address",
          "name": "_vanityAddress",
          "type": "address"
        }
      ],
      "name": "claimTimTokenReward",
      "outputs": [],
      "stateMutability": "nonpayable",
      "type": "function"
    },
    {
      "inputs": [
        {
          "internalType": "address",
          "name": "_userAddress",
          "type": "address"
        }
      ],
      "name": "getUserTestCDETokenBalance",
      "outputs": [
        {
          "internalType": "uint256",
          "name": "_tokenBalance",
          "type": "uint256"
        }
      ],
      "stateMutability": "view",
      "type": "function"
    },
    {
      "inputs": [],
      "name": "owner",
      "outputs": [
        {
          "internalType": "address",
          "name": "",
          "type": "address"
        }
      ],
      "stateMutability": "view",
      "type": "function"
    },
    {
      "inputs": [],
      "name": "testCDEToken",
      "outputs": [
        {
          "internalType": "contract IERC20",
          "name": "",
          "type": "address"
        }
      ],
      "stateMutability": "view",
      "type": "function"
    },
    {
      "inputs": [],
      "name": "testTIMToken",
      "outputs": [
        {
          "internalType": "contract IERC20",
          "name": "",
          "type": "address"
        }
      ],
      "stateMutability": "view",
      "type": "function"
    },
    {
      "inputs": [
        {
          "internalType": "uint256",
          "name": "_ethAmount",
          "type": "uint256"
        },
        {
          "internalType": "address",
          "name": "_receiverAddress",
          "type": "address"
        },
        {
          "internalType": "string",
          "name": "_tokenType",
          "type": "string"
        },
        {
          "internalType": "string",
          "name": "_receiverAddressType",
          "type": "string"
        }
      ],
      "name": "transferEthAndGetTestCDEOrTestTIM",
      "outputs": [],
      "stateMutability": "payable",
      "type": "function"
    },
    {
      "inputs": [
        {
          "internalType": "address",
          "name": "vanityAddress",
          "type": "address"
        },
        {
          "internalType": "address",
          "name": "nftAddress",
          "type": "address"
        },
        {
          "internalType": "uint256",
          "name": "tokenId",
          "type": "uint256"
        },
        {
          "internalType": "string",
          "name": "tokenStandard",
          "type": "string"
        }
      ],
      "name": "transferNFTtoVanityAddress",
      "outputs": [],
      "stateMutability": "nonpayable",
      "type": "function"
    }
  ],
  "bytecode": "0x60806040526002805534801561001457600080fd5b5060405161210a38038061210a83398181016040528101906100369190610163565b826000806101000a81548173ffffffffffffffffffffffffffffffffffffffff021916908373ffffffffffffffffffffffffffffffffffffffff16021790555081600160006101000a81548173ffffffffffffffffffffffffffffffffffffffff021916908373ffffffffffffffffffffffffffffffffffffffff16021790555080600360006101000a81548173ffffffffffffffffffffffffffffffffffffffff021916908373ffffffffffffffffffffffffffffffffffffffff1602179055505050506101b6565b600080fd5b600073ffffffffffffffffffffffffffffffffffffffff82169050919050565b600061013082610105565b9050919050565b61014081610125565b811461014b57600080fd5b50565b60008151905061015d81610137565b92915050565b60008060006060848603121561017c5761017b610100565b5b600061018a8682870161014e565b935050602061019b8682870161014e565b92505060406101ac8682870161014e565b9150509250925092565b611f45806101c56000396000f3fe6080604052600436106100705760003560e01c80635dca04d51161004e5780635dca04d5146100f25780638da5cb5b1461010e578063a4427d8214610139578063ee7b78691461016457610070565b806303671af014610075578063282193ce1461009e5780632cc53bc3146100c7575b600080fd5b34801561008157600080fd5b5061009c60048036038101906100979190611197565b6101a1565b005b3480156100aa57600080fd5b506100c560048036038101906100c0919061121a565b610551565b005b3480156100d357600080fd5b506100dc610760565b6040516100e991906112b9565b60405180910390f35b61010c600480360381019061010791906112d4565b610786565b005b34801561011a57600080fd5b50610123610e74565b6040516101309190611382565b60405180910390f35b34801561014557600080fd5b5061014e610e9a565b60405161015b91906112b9565b60405180910390f35b34801561017057600080fd5b5061018b6004803603810190610186919061139d565b610ebe565b60405161019891906113d9565b60405180910390f35b6040516020016101b09061144b565b60405160208183030381529060405280519060200120816040516020016101d791906114c6565b60405160208183030381529060405280519060200120036103cc578273ffffffffffffffffffffffffffffffffffffffff1663e985e9c533306040518363ffffffff1660e01b815260040161022d9291906114dd565b602060405180830381865afa15801561024a573d6000803e3d6000fd5b505050506040513d601f19601f8201168201806040525081019061026e919061153e565b8061031d57503073ffffffffffffffffffffffffffffffffffffffff168373ffffffffffffffffffffffffffffffffffffffff1663081812fc846040518263ffffffff1660e01b81526004016102c491906113d9565b602060405180830381865afa1580156102e1573d6000803e3d6000fd5b505050506040513d601f19601f820116820180604052508101906103059190611580565b73ffffffffffffffffffffffffffffffffffffffff16145b61035c576040517f08c379a000000000000000000000000000000000000000000000000000000000815260040161035390611630565b60405180910390fd5b8273ffffffffffffffffffffffffffffffffffffffff166342842e0e3386856040518463ffffffff1660e01b815260040161039993929190611650565b600060405180830381600087803b1580156103b357600080fd5b505af11580156103c7573d6000803e3d6000fd5b505050505b6040516020016103db906116d3565b604051602081830303815290604052805190602001208160405160200161040291906114c6565b604051602081830303815290604052805190602001200361054b578273ffffffffffffffffffffffffffffffffffffffff1663e985e9c533306040518363ffffffff1660e01b81526004016104589291906114dd565b602060405180830381865afa158015610475573d6000803e3d6000fd5b505050506040513d601f19601f82011682018060405250810190610499919061153e565b6104d8576040517f08c379a00000000000000000000000000000000000000000000000000000000081526004016104cf90611630565b60405180910390fd5b8273ffffffffffffffffffffffffffffffffffffffff1663f242432a33868560016040518563ffffffff1660e01b8152600401610518949392919061175a565b600060405180830381600087803b15801561053257600080fd5b505af1158015610546573d6000803e3d6000fd5b505050505b50505050565b6000600160009054906101000a900473ffffffffffffffffffffffffffffffffffffffff1673ffffffffffffffffffffffffffffffffffffffff1663dd62ed3e600360009054906101000a900473ffffffffffffffffffffffffffffffffffffffff16306040518363ffffffff1660e01b81526004016105d29291906114dd565b602060405180830381865afa1580156105ef573d6000803e3d6000fd5b505050506040513d601f19601f8201168201806040525081019061061391906117c7565b905082811015610658576040517f08c379a000000000000000000000000000000000000000000000000000000000815260040161064f90611866565b60405180910390fd5b600160009054906101000a900473ffffffffffffffffffffffffffffffffffffffff1673ffffffffffffffffffffffffffffffffffffffff166323b872dd600360009054906101000a900473ffffffffffffffffffffffffffffffffffffffff1684866040518463ffffffff1660e01b81526004016106d993929190611650565b6020604051808303816000875af11580156106f8573d6000803e3d6000fd5b505050506040513d601f19601f8201168201806040525081019061071c919061153e565b61075b576040517f08c379a0000000000000000000000000000000000000000000000000000000008152600401610752906118d2565b60405180910390fd5b505050565b600160009054906101000a900473ffffffffffffffffffffffffffffffffffffffff1681565b600061079185610f62565b90506000670de0b6b3a7640000826107a99190611921565b905060006040516020016107bc906119af565b60405160208183030381529060405280519060200120846040516020016107e391906114c6565b6040516020818303038152906040528051906020012014905080156108e45760405160200161081190611a10565b604051602081830303815290604052805190602001208560405160200161083891906114c6565b60405160208183030381529060405280519060200120036108735760646068836108629190611921565b61086c9190611a54565b91506108e3565b60405160200161088290611ad1565b60405160208183030381529060405280519060200120856040516020016108a991906114c6565b60405160208183030381529060405280519060200120036108e2576103e8610447836108d59190611921565b6108df9190611a54565b91505b5b5b60006040516020016108f590611a10565b604051602081830303815290604052805190602001208660405160200161091c91906114c6565b6040516020818303038152906040528051906020012003610b405760008054906101000a900473ffffffffffffffffffffffffffffffffffffffff1673ffffffffffffffffffffffffffffffffffffffff1663dd62ed3e600360009054906101000a900473ffffffffffffffffffffffffffffffffffffffff16306040518363ffffffff1660e01b81526004016109b49291906114dd565b602060405180830381865afa1580156109d1573d6000803e3d6000fd5b505050506040513d601f19601f820116820180604052508101906109f591906117c7565b905082811015610a3a576040517f08c379a0000000000000000000000000000000000000000000000000000000008152600401610a3190611b58565b60405180910390fd5b60008054906101000a900473ffffffffffffffffffffffffffffffffffffffff1673ffffffffffffffffffffffffffffffffffffffff166323b872dd600360009054906101000a900473ffffffffffffffffffffffffffffffffffffffff1689866040518463ffffffff1660e01b8152600401610ab993929190611650565b6020604051808303816000875af1158015610ad8573d6000803e3d6000fd5b505050506040513d601f19601f82011682018060405250810190610afc919061153e565b610b3b576040517f08c379a0000000000000000000000000000000000000000000000000000000008152600401610b3290611bc4565b60405180910390fd5b610d9b565b604051602001610b4f90611ad1565b6040516020818303038152906040528051906020012086604051602001610b7691906114c6565b6040516020818303038152906040528051906020012003610d9a57600160009054906101000a900473ffffffffffffffffffffffffffffffffffffffff1673ffffffffffffffffffffffffffffffffffffffff1663dd62ed3e600360009054906101000a900473ffffffffffffffffffffffffffffffffffffffff16306040518363ffffffff1660e01b8152600401610c109291906114dd565b602060405180830381865afa158015610c2d573d6000803e3d6000fd5b505050506040513d601f19601f82011682018060405250810190610c5191906117c7565b905082811015610c96576040517f08c379a0000000000000000000000000000000000000000000000000000000008152600401610c8d90611c56565b60405180910390fd5b600160009054906101000a900473ffffffffffffffffffffffffffffffffffffffff1673ffffffffffffffffffffffffffffffffffffffff166323b872dd600360009054906101000a900473ffffffffffffffffffffffffffffffffffffffff1689866040518463ffffffff1660e01b8152600401610d1793929190611650565b6020604051808303816000875af1158015610d36573d6000803e3d6000fd5b505050506040513d601f19601f82011682018060405250810190610d5a919061153e565b610d99576040517f08c379a0000000000000000000000000000000000000000000000000000000008152600401610d9090611cc2565b60405180910390fd5b5b5b6000600360009054906101000a900473ffffffffffffffffffffffffffffffffffffffff1673ffffffffffffffffffffffffffffffffffffffff1634604051610de390611d10565b60006040518083038185875af1925050503d8060008114610e20576040519150601f19603f3d011682016040523d82523d6000602084013e610e25565b606091505b5050905080610e69576040517f08c379a0000000000000000000000000000000000000000000000000000000008152600401610e6090611d71565b60405180910390fd5b505050505050505050565b600360009054906101000a900473ffffffffffffffffffffffffffffffffffffffff1681565b60008054906101000a900473ffffffffffffffffffffffffffffffffffffffff1681565b60008060009054906101000a900473ffffffffffffffffffffffffffffffffffffffff1673ffffffffffffffffffffffffffffffffffffffff166370a08231836040518263ffffffff1660e01b8152600401610f1a9190611382565b602060405180830381865afa158015610f37573d6000803e3d6000fd5b505050506040513d601f19601f82011682018060405250810190610f5b91906117c7565b9050919050565b6000806012600a610f739190611ec4565b600254610f809190611921565b9050670de0b6b3a76400008184610f979190611921565b610fa19190611a54565b915050919050565b6000604051905090565b600080fd5b600080fd5b600073ffffffffffffffffffffffffffffffffffffffff82169050919050565b6000610fe882610fbd565b9050919050565b610ff881610fdd565b811461100357600080fd5b50565b60008135905061101581610fef565b92915050565b6000819050919050565b61102e8161101b565b811461103957600080fd5b50565b60008135905061104b81611025565b92915050565b600080fd5b600080fd5b6000601f19601f8301169050919050565b7f4e487b7100000000000000000000000000000000000000000000000000000000600052604160045260246000fd5b6110a48261105b565b810181811067ffffffffffffffff821117156110c3576110c261106c565b5b80604052505050565b60006110d6610fa9565b90506110e2828261109b565b919050565b600067ffffffffffffffff8211156111025761110161106c565b5b61110b8261105b565b9050602081019050919050565b82818337600083830152505050565b600061113a611135846110e7565b6110cc565b90508281526020810184848401111561115657611155611056565b5b611161848285611118565b509392505050565b600082601f83011261117e5761117d611051565b5b813561118e848260208601611127565b91505092915050565b600080600080608085870312156111b1576111b0610fb3565b5b60006111bf87828801611006565b94505060206111d087828801611006565b93505060406111e18782880161103c565b925050606085013567ffffffffffffffff81111561120257611201610fb8565b5b61120e87828801611169565b91505092959194509250565b6000806040838503121561123157611230610fb3565b5b600061123f8582860161103c565b925050602061125085828601611006565b9150509250929050565b6000819050919050565b600061127f61127a61127584610fbd565b61125a565b610fbd565b9050919050565b600061129182611264565b9050919050565b60006112a382611286565b9050919050565b6112b381611298565b82525050565b60006020820190506112ce60008301846112aa565b92915050565b600080600080608085870312156112ee576112ed610fb3565b5b60006112fc8782880161103c565b945050602061130d87828801611006565b935050604085013567ffffffffffffffff81111561132e5761132d610fb8565b5b61133a87828801611169565b925050606085013567ffffffffffffffff81111561135b5761135a610fb8565b5b61136787828801611169565b91505092959194509250565b61137c81610fdd565b82525050565b60006020820190506113976000830184611373565b92915050565b6000602082840312156113b3576113b2610fb3565b5b60006113c184828501611006565b91505092915050565b6113d38161101b565b82525050565b60006020820190506113ee60008301846113ca565b92915050565b600081905092915050565b7f4552433732310000000000000000000000000000000000000000000000000000600082015250565b60006114356006836113f4565b9150611440826113ff565b600682019050919050565b600061145682611428565b9150819050919050565b600081519050919050565b60005b8381101561148957808201518184015260208101905061146e565b60008484015250505050565b60006114a082611460565b6114aa81856113f4565b93506114ba81856020860161146b565b80840191505092915050565b60006114d28284611495565b915081905092915050565b60006040820190506114f26000830185611373565b6114ff6020830184611373565b9392505050565b60008115159050919050565b61151b81611506565b811461152657600080fd5b50565b60008151905061153881611512565b92915050565b60006020828403121561155457611553610fb3565b5b600061156284828501611529565b91505092915050565b60008151905061157a81610fef565b92915050565b60006020828403121561159657611595610fb3565b5b60006115a48482850161156b565b91505092915050565b600082825260208201905092915050565b7f436f6e7472616374206e6f7420617070726f76656420746f207472616e73666560008201527f72204e4654000000000000000000000000000000000000000000000000000000602082015250565b600061161a6025836115ad565b9150611625826115be565b604082019050919050565b600060208201905081810360008301526116498161160d565b9050919050565b60006060820190506116656000830186611373565b6116726020830185611373565b61167f60408301846113ca565b949350505050565b7f4552433131353500000000000000000000000000000000000000000000000000600082015250565b60006116bd6007836113f4565b91506116c882611687565b600782019050919050565b60006116de826116b0565b9150819050919050565b6000819050919050565b600061170d611708611703846116e8565b61125a565b61101b565b9050919050565b61171d816116f2565b82525050565b600082825260208201905092915050565b50565b6000611744600083611723565b915061174f82611734565b600082019050919050565b600060a08201905061176f6000830187611373565b61177c6020830186611373565b61178960408301856113ca565b6117966060830184611714565b81810360808301526117a781611737565b905095945050505050565b6000815190506117c181611025565b92915050565b6000602082840312156117dd576117dc610fb3565b5b60006117eb848285016117b2565b91505092915050565b7f496e73756666696369656e7420616c6c6f77616e636520666f7220746f6b656e60008201527f207472616e736665720000000000000000000000000000000000000000000000602082015250565b60006118506029836115ad565b915061185b826117f4565b604082019050919050565b6000602082019050818103600083015261187f81611843565b9050919050565b7f546f6b656e207472616e73666572206661696c65640000000000000000000000600082015250565b60006118bc6015836115ad565b91506118c782611886565b602082019050919050565b600060208201905081810360008301526118eb816118af565b9050919050565b7f4e487b7100000000000000000000000000000000000000000000000000000000600052601160045260246000fd5b600061192c8261101b565b91506119378361101b565b92508282026119458161101b565b9150828204841483151761195c5761195b6118f2565b5b5092915050565b7f76616e6974794164647265737300000000000000000000000000000000000000600082015250565b6000611999600d836113f4565b91506119a482611963565b600d82019050919050565b60006119ba8261198c565b9150819050919050565b7f4344450000000000000000000000000000000000000000000000000000000000600082015250565b60006119fa6003836113f4565b9150611a05826119c4565b600382019050919050565b6000611a1b826119ed565b9150819050919050565b7f4e487b7100000000000000000000000000000000000000000000000000000000600052601260045260246000fd5b6000611a5f8261101b565b9150611a6a8361101b565b925082611a7a57611a79611a25565b5b828204905092915050565b7f54494d0000000000000000000000000000000000000000000000000000000000600082015250565b6000611abb6003836113f4565b9150611ac682611a85565b600382019050919050565b6000611adc82611aae565b9150819050919050565b7f496e73756666696369656e7420616c6c6f77616e636520666f7220434445207460008201527f6f6b656e207472616e7366657200000000000000000000000000000000000000602082015250565b6000611b42602d836115ad565b9150611b4d82611ae6565b604082019050919050565b60006020820190508181036000830152611b7181611b35565b9050919050565b7f43444520746f6b656e207472616e73666572206661696c656400000000000000600082015250565b6000611bae6019836115ad565b9150611bb982611b78565b602082019050919050565b60006020820190508181036000830152611bdd81611ba1565b9050919050565b7f496e73756666696369656e7420616c6c6f77616e636520666f722054494d207460008201527f6f6b656e207472616e7366657200000000000000000000000000000000000000602082015250565b6000611c40602d836115ad565b9150611c4b82611be4565b604082019050919050565b60006020820190508181036000830152611c6f81611c33565b9050919050565b7f54494d20746f6b656e207472616e73666572206661696c656400000000000000600082015250565b6000611cac6019836115ad565b9150611cb782611c76565b602082019050919050565b60006020820190508181036000830152611cdb81611c9f565b9050919050565b600081905092915050565b6000611cfa600083611ce2565b9150611d0582611734565b600082019050919050565b6000611d1b82611ced565b9150819050919050565b7f66756e64207472616e7365666572206572726f72000000000000000000000000600082015250565b6000611d5b6014836115ad565b9150611d6682611d25565b602082019050919050565b60006020820190508181036000830152611d8a81611d4e565b9050919050565b60008160011c9050919050565b6000808291508390505b6001851115611de857808604811115611dc457611dc36118f2565b5b6001851615611dd35780820291505b8081029050611de185611d91565b9450611da8565b94509492505050565b600082611e015760019050611ebd565b81611e0f5760009050611ebd565b8160018114611e255760028114611e2f57611e5e565b6001915050611ebd565b60ff841115611e4157611e406118f2565b5b8360020a915084821115611e5857611e576118f2565b5b50611ebd565b5060208310610133831016604e8410600b8410161715611e935782820a905083811115611e8e57611e8d6118f2565b5b611ebd565b611ea08484846001611d9e565b92509050818404811115611eb757611eb66118f2565b5b81810290505b9392505050565b6000611ecf8261101b565b9150611eda8361101b565b9250611f077fffffffffffffffffffffffffffffffffffffffffffffffffffffffffffffffff8484611df1565b90509291505056fea2646970667358221220b4a32ede45f776e542610ee503215b89473a7e7d85de57e8cb621498b8c7389764736f6c63430008190033",
  "linkReferences": {},
  "deployedLinkReferences": {}
}