{
  "_format": "hh-sol-artifact-1",
  "contractName": "NFTMarket",
  "sourceName": "contracts/NFTMarket.sol",
  "abi": [
    {
      "inputs": [
        {
          "internalType": "address",
          "name": "_testCDEToken",
          "type": "address"
        },
        {
          "internalType": "address",
          "name": "_testTIMToken",
          "type": "address"
        },
        {
          "internalType": "address",
          "name": "_Owner",
          "type": "address"
        }
      ],
      "stateMutability": "nonpayable",
      "type": "constructor"
    },
    {
      "inputs": [
        {
          "internalType": "uint256",
          "name": "_tokenAmount",
          "type": "uint256"
        },
        {
          "internalType": "address",
          "name": "_vanityAddress",
          "type": "address"
        }
      ],
      "name": "claimTimTokenReward",
      "outputs": [],
      "stateMutability": "nonpayable",
      "type": "function"
    },
    {
      "inputs": [
        {
          "internalType": "address",
          "name": "user",
          "type": "address"
        }
      ],
      "name": "getUserHistory",
      "outputs": [
        {
          "components": [
            {
              "internalType": "address",
              "name": "walletAddress",
              "type": "address"
            },
            {
              "internalType": "address",
              "name": "vanityAddress",
              "type": "address"
            },
            {
              "internalType": "address",
              "name": "nftAddress",
              "type": "address"
            },
            {
              "internalType": "uint256",
              "name": "tokenId",
              "type": "uint256"
            },
            {
              "internalType": "uint256",
              "name": "nftPrice",
              "type": "uint256"
            },
            {
              "internalType": "string",
              "name": "tokenStandard",
              "type": "string"
            },
            {
              "internalType": "uint256",
              "name": "timestamp",
              "type": "uint256"
            }
          ],
          "internalType": "struct NFTMarket.UserHistory[]",
          "name": "",
          "type": "tuple[]"
        }
      ],
      "stateMutability": "view",
      "type": "function"
    },
    {
      "inputs": [
        {
          "internalType": "address",
          "name": "_userAddress",
          "type": "address"
        }
      ],
      "name": "getUserTestCDETokenBalance",
      "outputs": [
        {
          "internalType": "uint256",
          "name": "_tokenBalance",
          "type": "uint256"
        }
      ],
      "stateMutability": "view",
      "type": "function"
    },
    {
      "inputs": [],
      "name": "owner",
      "outputs": [
        {
          "internalType": "address",
          "name": "",
          "type": "address"
        }
      ],
      "stateMutability": "view",
      "type": "function"
    },
    {
      "inputs": [],
      "name": "testCDEToken",
      "outputs": [
        {
          "internalType": "contract IERC20",
          "name": "",
          "type": "address"
        }
      ],
      "stateMutability": "view",
      "type": "function"
    },
    {
      "inputs": [],
      "name": "testTIMToken",
      "outputs": [
        {
          "internalType": "contract IERC20",
          "name": "",
          "type": "address"
        }
      ],
      "stateMutability": "view",
      "type": "function"
    },
    {
      "inputs": [
        {
          "internalType": "uint256",
          "name": "_ethAmount",
          "type": "uint256"
        },
        {
          "internalType": "address",
          "name": "_receiverAddress",
          "type": "address"
        },
        {
          "internalType": "string",
          "name": "_tokenType",
          "type": "string"
        },
        {
          "internalType": "string",
          "name": "_receiverAddressType",
          "type": "string"
        }
      ],
      "name": "transferEthAndGetTestCDEOrTestTIM",
      "outputs": [],
      "stateMutability": "payable",
      "type": "function"
    },
    {
      "inputs": [
        {
          "internalType": "address",
          "name": "vanityAddress",
          "type": "address"
        },
        {
          "internalType": "address",
          "name": "nftAddress",
          "type": "address"
        },
        {
          "internalType": "uint256",
          "name": "tokenId",
          "type": "uint256"
        },
        {
          "internalType": "string",
          "name": "tokenStandard",
          "type": "string"
        },
        {
          "internalType": "uint256",
          "name": "price",
          "type": "uint256"
        }
      ],
      "name": "transferNFTAndPay",
      "outputs": [],
      "stateMutability": "nonpayable",
      "type": "function"
    }
  ],
  "bytecode": "0x60806040526002805534801561001457600080fd5b50604051612cdd380380612cdd83398181016040528101906100369190610163565b826000806101000a81548173ffffffffffffffffffffffffffffffffffffffff021916908373ffffffffffffffffffffffffffffffffffffffff16021790555081600160006101000a81548173ffffffffffffffffffffffffffffffffffffffff021916908373ffffffffffffffffffffffffffffffffffffffff16021790555080600360006101000a81548173ffffffffffffffffffffffffffffffffffffffff021916908373ffffffffffffffffffffffffffffffffffffffff1602179055505050506101b6565b600080fd5b600073ffffffffffffffffffffffffffffffffffffffff82169050919050565b600061013082610105565b9050919050565b61014081610125565b811461014b57600080fd5b50565b60008151905061015d81610137565b92915050565b60008060006060848603121561017c5761017b610100565b5b600061018a8682870161014e565b935050602061019b8682870161014e565b92505060406101ac8682870161014e565b9150509250925092565b612b18806101c56000396000f3fe60806040526004361061007b5760003560e01c80638da5cb5b1161004e5780638da5cb5b1461012d578063a4427d8214610158578063ee7b786914610183578063f3a5290b146101c05761007b565b8063282193ce146100805780632cc53bc3146100a95780634fb3d3b1146100d45780635dca04d514610111575b600080fd5b34801561008c57600080fd5b506100a760048036038101906100a29190611699565b6101e9565b005b3480156100b557600080fd5b506100be6103f8565b6040516100cb9190611738565b60405180910390f35b3480156100e057600080fd5b506100fb60048036038101906100f69190611753565b61041e565b604051610108919061198c565b60405180910390f35b61012b60048036038101906101269190611ae3565b61066e565b005b34801561013957600080fd5b50610142610d5c565b60405161014f9190611b91565b60405180910390f35b34801561016457600080fd5b5061016d610d82565b60405161017a9190611738565b60405180910390f35b34801561018f57600080fd5b506101aa60048036038101906101a59190611753565b610da6565b6040516101b79190611bbb565b60405180910390f35b3480156101cc57600080fd5b506101e760048036038101906101e29190611bd6565b610e4a565b005b6000600160009054906101000a900473ffffffffffffffffffffffffffffffffffffffff1673ffffffffffffffffffffffffffffffffffffffff1663dd62ed3e600360009054906101000a900473ffffffffffffffffffffffffffffffffffffffff16306040518363ffffffff1660e01b815260040161026a929190611c6d565b602060405180830381865afa158015610287573d6000803e3d6000fd5b505050506040513d601f19601f820116820180604052508101906102ab9190611cab565b9050828110156102f0576040517f08c379a00000000000000000000000000000000000000000000000000000000081526004016102e790611d5b565b60405180910390fd5b600160009054906101000a900473ffffffffffffffffffffffffffffffffffffffff1673ffffffffffffffffffffffffffffffffffffffff166323b872dd600360009054906101000a900473ffffffffffffffffffffffffffffffffffffffff1684866040518463ffffffff1660e01b815260040161037193929190611d7b565b6020604051808303816000875af1158015610390573d6000803e3d6000fd5b505050506040513d601f19601f820116820180604052508101906103b49190611dea565b6103f3576040517f08c379a00000000000000000000000000000000000000000000000000000000081526004016103ea90611e63565b60405180910390fd5b505050565b600160009054906101000a900473ffffffffffffffffffffffffffffffffffffffff1681565b6060600460008373ffffffffffffffffffffffffffffffffffffffff1673ffffffffffffffffffffffffffffffffffffffff168152602001908152602001600020805480602002602001604051908101604052809291908181526020016000905b8282101561066357838290600052602060002090600702016040518060e00160405290816000820160009054906101000a900473ffffffffffffffffffffffffffffffffffffffff1673ffffffffffffffffffffffffffffffffffffffff1673ffffffffffffffffffffffffffffffffffffffff1681526020016001820160009054906101000a900473ffffffffffffffffffffffffffffffffffffffff1673ffffffffffffffffffffffffffffffffffffffff1673ffffffffffffffffffffffffffffffffffffffff1681526020016002820160009054906101000a900473ffffffffffffffffffffffffffffffffffffffff1673ffffffffffffffffffffffffffffffffffffffff1673ffffffffffffffffffffffffffffffffffffffff16815260200160038201548152602001600482015481526020016005820180546105c890611eb2565b80601f01602080910402602001604051908101604052809291908181526020018280546105f490611eb2565b80156106415780601f1061061657610100808354040283529160200191610641565b820191906000526020600020905b81548152906001019060200180831161062457829003601f168201915b505050505081526020016006820154815250508152602001906001019061047f565b505050509050919050565b6000610679856115aa565b90506000670de0b6b3a7640000826106919190611f12565b905060006040516020016106a490611fab565b60405160208183030381529060405280519060200120846040516020016106cb9190611ff1565b6040516020818303038152906040528051906020012014905080156107cc576040516020016106f990612054565b60405160208183030381529060405280519060200120856040516020016107209190611ff1565b604051602081830303815290604052805190602001200361075b57606460688361074a9190611f12565b6107549190612098565b91506107cb565b60405160200161076a90612115565b60405160208183030381529060405280519060200120856040516020016107919190611ff1565b60405160208183030381529060405280519060200120036107ca576103e8610447836107bd9190611f12565b6107c79190612098565b91505b5b5b60006040516020016107dd90612054565b60405160208183030381529060405280519060200120866040516020016108049190611ff1565b6040516020818303038152906040528051906020012003610a285760008054906101000a900473ffffffffffffffffffffffffffffffffffffffff1673ffffffffffffffffffffffffffffffffffffffff1663dd62ed3e600360009054906101000a900473ffffffffffffffffffffffffffffffffffffffff16306040518363ffffffff1660e01b815260040161089c929190611c6d565b602060405180830381865afa1580156108b9573d6000803e3d6000fd5b505050506040513d601f19601f820116820180604052508101906108dd9190611cab565b905082811015610922576040517f08c379a00000000000000000000000000000000000000000000000000000000081526004016109199061219c565b60405180910390fd5b60008054906101000a900473ffffffffffffffffffffffffffffffffffffffff1673ffffffffffffffffffffffffffffffffffffffff166323b872dd600360009054906101000a900473ffffffffffffffffffffffffffffffffffffffff1689866040518463ffffffff1660e01b81526004016109a193929190611d7b565b6020604051808303816000875af11580156109c0573d6000803e3d6000fd5b505050506040513d601f19601f820116820180604052508101906109e49190611dea565b610a23576040517f08c379a0000000000000000000000000000000000000000000000000000000008152600401610a1a90612208565b60405180910390fd5b610c83565b604051602001610a3790612115565b6040516020818303038152906040528051906020012086604051602001610a5e9190611ff1565b6040516020818303038152906040528051906020012003610c8257600160009054906101000a900473ffffffffffffffffffffffffffffffffffffffff1673ffffffffffffffffffffffffffffffffffffffff1663dd62ed3e600360009054906101000a900473ffffffffffffffffffffffffffffffffffffffff16306040518363ffffffff1660e01b8152600401610af8929190611c6d565b602060405180830381865afa158015610b15573d6000803e3d6000fd5b505050506040513d601f19601f82011682018060405250810190610b399190611cab565b905082811015610b7e576040517f08c379a0000000000000000000000000000000000000000000000000000000008152600401610b759061229a565b60405180910390fd5b600160009054906101000a900473ffffffffffffffffffffffffffffffffffffffff1673ffffffffffffffffffffffffffffffffffffffff166323b872dd600360009054906101000a900473ffffffffffffffffffffffffffffffffffffffff1689866040518463ffffffff1660e01b8152600401610bff93929190611d7b565b6020604051808303816000875af1158015610c1e573d6000803e3d6000fd5b505050506040513d601f19601f82011682018060405250810190610c429190611dea565b610c81576040517f08c379a0000000000000000000000000000000000000000000000000000000008152600401610c7890612306565b60405180910390fd5b5b5b6000600360009054906101000a900473ffffffffffffffffffffffffffffffffffffffff1673ffffffffffffffffffffffffffffffffffffffff1634604051610ccb90612357565b60006040518083038185875af1925050503d8060008114610d08576040519150601f19603f3d011682016040523d82523d6000602084013e610d0d565b606091505b5050905080610d51576040517f08c379a0000000000000000000000000000000000000000000000000000000008152600401610d48906123b8565b60405180910390fd5b505050505050505050565b600360009054906101000a900473ffffffffffffffffffffffffffffffffffffffff1681565b60008054906101000a900473ffffffffffffffffffffffffffffffffffffffff1681565b60008060009054906101000a900473ffffffffffffffffffffffffffffffffffffffff1673ffffffffffffffffffffffffffffffffffffffff166370a08231836040518263ffffffff1660e01b8152600401610e029190611b91565b602060405180830381865afa158015610e1f573d6000803e3d6000fd5b505050506040513d601f19601f82011682018060405250810190610e439190611cab565b9050919050565b6000610e55826115aa565b905060008054906101000a900473ffffffffffffffffffffffffffffffffffffffff1673ffffffffffffffffffffffffffffffffffffffff166370a08231306040518263ffffffff1660e01b8152600401610eb09190611b91565b602060405180830381865afa158015610ecd573d6000803e3d6000fd5b505050506040513d601f19601f82011682018060405250810190610ef19190611cab565b811115610f33576040517f08c379a0000000000000000000000000000000000000000000000000000000008152600401610f2a9061244a565b60405180910390fd5b604051602001610f42906124b6565b6040516020818303038152906040528051906020012083604051602001610f699190611ff1565b604051602081830303815290604052805190602001200361115e578473ffffffffffffffffffffffffffffffffffffffff1663e985e9c533306040518363ffffffff1660e01b8152600401610fbf929190611c6d565b602060405180830381865afa158015610fdc573d6000803e3d6000fd5b505050506040513d601f19601f820116820180604052508101906110009190611dea565b806110af57503073ffffffffffffffffffffffffffffffffffffffff168573ffffffffffffffffffffffffffffffffffffffff1663081812fc866040518263ffffffff1660e01b81526004016110569190611bbb565b602060405180830381865afa158015611073573d6000803e3d6000fd5b505050506040513d601f19601f8201168201806040525081019061109791906124e0565b73ffffffffffffffffffffffffffffffffffffffff16145b6110ee576040517f08c379a00000000000000000000000000000000000000000000000000000000081526004016110e59061257f565b60405180910390fd5b8473ffffffffffffffffffffffffffffffffffffffff166342842e0e3330876040518463ffffffff1660e01b815260040161112b93929190611d7b565b600060405180830381600087803b15801561114557600080fd5b505af1158015611159573d6000803e3d6000fd5b505050505b60405160200161116d906125eb565b60405160208183030381529060405280519060200120836040516020016111949190611ff1565b60405160208183030381529060405280519060200120036112dd578473ffffffffffffffffffffffffffffffffffffffff1663e985e9c533306040518363ffffffff1660e01b81526004016111ea929190611c6d565b602060405180830381865afa158015611207573d6000803e3d6000fd5b505050506040513d601f19601f8201168201806040525081019061122b9190611dea565b61126a576040517f08c379a00000000000000000000000000000000000000000000000000000000081526004016112619061257f565b60405180910390fd5b8473ffffffffffffffffffffffffffffffffffffffff1663f242432a33308760016040518563ffffffff1660e01b81526004016112aa949392919061266f565b600060405180830381600087803b1580156112c457600080fd5b505af11580156112d8573d6000803e3d6000fd5b505050505b60008054906101000a900473ffffffffffffffffffffffffffffffffffffffff1673ffffffffffffffffffffffffffffffffffffffff1663a9059cbb87836040518363ffffffff1660e01b81526004016113389291906126c7565b6020604051808303816000875af1158015611357573d6000803e3d6000fd5b505050506040513d601f19601f8201168201806040525081019061137b9190611dea565b6113ba576040517f08c379a00000000000000000000000000000000000000000000000000000000081526004016113b190611e63565b60405180910390fd5b600460003373ffffffffffffffffffffffffffffffffffffffff1673ffffffffffffffffffffffffffffffffffffffff1681526020019081526020016000206040518060e001604052803373ffffffffffffffffffffffffffffffffffffffff1681526020018873ffffffffffffffffffffffffffffffffffffffff1681526020018773ffffffffffffffffffffffffffffffffffffffff16815260200186815260200184815260200185815260200142815250908060018154018082558091505060019003906000526020600020906007020160009091909190915060008201518160000160006101000a81548173ffffffffffffffffffffffffffffffffffffffff021916908373ffffffffffffffffffffffffffffffffffffffff16021790555060208201518160010160006101000a81548173ffffffffffffffffffffffffffffffffffffffff021916908373ffffffffffffffffffffffffffffffffffffffff16021790555060408201518160020160006101000a81548173ffffffffffffffffffffffffffffffffffffffff021916908373ffffffffffffffffffffffffffffffffffffffff160217905550606082015181600301556080820151816004015560a08201518160050190816115959190612892565b5060c082015181600601555050505050505050565b6000806012600a6115bb9190612a97565b6002546115c89190611f12565b9050670de0b6b3a764000081846115df9190611f12565b6115e99190612098565b915050919050565b6000604051905090565b600080fd5b600080fd5b6000819050919050565b61161881611605565b811461162357600080fd5b50565b6000813590506116358161160f565b92915050565b600073ffffffffffffffffffffffffffffffffffffffff82169050919050565b60006116668261163b565b9050919050565b6116768161165b565b811461168157600080fd5b50565b6000813590506116938161166d565b92915050565b600080604083850312156116b0576116af6115fb565b5b60006116be85828601611626565b92505060206116cf85828601611684565b9150509250929050565b6000819050919050565b60006116fe6116f96116f48461163b565b6116d9565b61163b565b9050919050565b6000611710826116e3565b9050919050565b600061172282611705565b9050919050565b61173281611717565b82525050565b600060208201905061174d6000830184611729565b92915050565b600060208284031215611769576117686115fb565b5b600061177784828501611684565b91505092915050565b600081519050919050565b600082825260208201905092915050565b6000819050602082019050919050565b6117b58161165b565b82525050565b6117c481611605565b82525050565b600081519050919050565b600082825260208201905092915050565b60005b838110156118045780820151818401526020810190506117e9565b60008484015250505050565b6000601f19601f8301169050919050565b600061182c826117ca565b61183681856117d5565b93506118468185602086016117e6565b61184f81611810565b840191505092915050565b600060e08301600083015161187260008601826117ac565b50602083015161188560208601826117ac565b50604083015161189860408601826117ac565b5060608301516118ab60608601826117bb565b5060808301516118be60808601826117bb565b5060a083015184820360a08601526118d68282611821565b91505060c08301516118eb60c08601826117bb565b508091505092915050565b6000611902838361185a565b905092915050565b6000602082019050919050565b600061192282611780565b61192c818561178b565b93508360208202850161193e8561179c565b8060005b8581101561197a578484038952815161195b85826118f6565b94506119668361190a565b925060208a01995050600181019050611942565b50829750879550505050505092915050565b600060208201905081810360008301526119a68184611917565b905092915050565b600080fd5b600080fd5b7f4e487b7100000000000000000000000000000000000000000000000000000000600052604160045260246000fd5b6119f082611810565b810181811067ffffffffffffffff82111715611a0f57611a0e6119b8565b5b80604052505050565b6000611a226115f1565b9050611a2e82826119e7565b919050565b600067ffffffffffffffff821115611a4e57611a4d6119b8565b5b611a5782611810565b9050602081019050919050565b82818337600083830152505050565b6000611a86611a8184611a33565b611a18565b905082815260208101848484011115611aa257611aa16119b3565b5b611aad848285611a64565b509392505050565b600082601f830112611aca57611ac96119ae565b5b8135611ada848260208601611a73565b91505092915050565b60008060008060808587031215611afd57611afc6115fb565b5b6000611b0b87828801611626565b9450506020611b1c87828801611684565b935050604085013567ffffffffffffffff811115611b3d57611b3c611600565b5b611b4987828801611ab5565b925050606085013567ffffffffffffffff811115611b6a57611b69611600565b5b611b7687828801611ab5565b91505092959194509250565b611b8b8161165b565b82525050565b6000602082019050611ba66000830184611b82565b92915050565b611bb581611605565b82525050565b6000602082019050611bd06000830184611bac565b92915050565b600080600080600060a08688031215611bf257611bf16115fb565b5b6000611c0088828901611684565b9550506020611c1188828901611684565b9450506040611c2288828901611626565b935050606086013567ffffffffffffffff811115611c4357611c42611600565b5b611c4f88828901611ab5565b9250506080611c6088828901611626565b9150509295509295909350565b6000604082019050611c826000830185611b82565b611c8f6020830184611b82565b9392505050565b600081519050611ca58161160f565b92915050565b600060208284031215611cc157611cc06115fb565b5b6000611ccf84828501611c96565b91505092915050565b600082825260208201905092915050565b7f496e73756666696369656e7420616c6c6f77616e636520666f7220746f6b656e60008201527f207472616e736665720000000000000000000000000000000000000000000000602082015250565b6000611d45602983611cd8565b9150611d5082611ce9565b604082019050919050565b60006020820190508181036000830152611d7481611d38565b9050919050565b6000606082019050611d906000830186611b82565b611d9d6020830185611b82565b611daa6040830184611bac565b949350505050565b60008115159050919050565b611dc781611db2565b8114611dd257600080fd5b50565b600081519050611de481611dbe565b92915050565b600060208284031215611e0057611dff6115fb565b5b6000611e0e84828501611dd5565b91505092915050565b7f546f6b656e207472616e73666572206661696c65640000000000000000000000600082015250565b6000611e4d601583611cd8565b9150611e5882611e17565b602082019050919050565b60006020820190508181036000830152611e7c81611e40565b9050919050565b7f4e487b7100000000000000000000000000000000000000000000000000000000600052602260045260246000fd5b60006002820490506001821680611eca57607f821691505b602082108103611edd57611edc611e83565b5b50919050565b7f4e487b7100000000000000000000000000000000000000000000000000000000600052601160045260246000fd5b6000611f1d82611605565b9150611f2883611605565b9250828202611f3681611605565b91508282048414831517611f4d57611f4c611ee3565b5b5092915050565b600081905092915050565b7f76616e6974794164647265737300000000000000000000000000000000000000600082015250565b6000611f95600d83611f54565b9150611fa082611f5f565b600d82019050919050565b6000611fb682611f88565b9150819050919050565b6000611fcb826117ca565b611fd58185611f54565b9350611fe58185602086016117e6565b80840191505092915050565b6000611ffd8284611fc0565b915081905092915050565b7f4344450000000000000000000000000000000000000000000000000000000000600082015250565b600061203e600383611f54565b915061204982612008565b600382019050919050565b600061205f82612031565b9150819050919050565b7f4e487b7100000000000000000000000000000000000000000000000000000000600052601260045260246000fd5b60006120a382611605565b91506120ae83611605565b9250826120be576120bd612069565b5b828204905092915050565b7f54494d0000000000000000000000000000000000000000000000000000000000600082015250565b60006120ff600383611f54565b915061210a826120c9565b600382019050919050565b6000612120826120f2565b9150819050919050565b7f496e73756666696369656e7420616c6c6f77616e636520666f7220434445207460008201527f6f6b656e207472616e7366657200000000000000000000000000000000000000602082015250565b6000612186602d83611cd8565b91506121918261212a565b604082019050919050565b600060208201905081810360008301526121b581612179565b9050919050565b7f43444520746f6b656e207472616e73666572206661696c656400000000000000600082015250565b60006121f2601983611cd8565b91506121fd826121bc565b602082019050919050565b60006020820190508181036000830152612221816121e5565b9050919050565b7f496e73756666696369656e7420616c6c6f77616e636520666f722054494d207460008201527f6f6b656e207472616e7366657200000000000000000000000000000000000000602082015250565b6000612284602d83611cd8565b915061228f82612228565b604082019050919050565b600060208201905081810360008301526122b381612277565b9050919050565b7f54494d20746f6b656e207472616e73666572206661696c656400000000000000600082015250565b60006122f0601983611cd8565b91506122fb826122ba565b602082019050919050565b6000602082019050818103600083015261231f816122e3565b9050919050565b600081905092915050565b50565b6000612341600083612326565b915061234c82612331565b600082019050919050565b600061236282612334565b9150819050919050565b7f66756e64207472616e7365666572206572726f72000000000000000000000000600082015250565b60006123a2601483611cd8565b91506123ad8261236c565b602082019050919050565b600060208201905081810360008301526123d181612395565b9050919050565b7f496e73756666696369656e7420546f6b656e2042616c616e636520696e20636f60008201527f6e74726163740000000000000000000000000000000000000000000000000000602082015250565b6000612434602683611cd8565b915061243f826123d8565b604082019050919050565b6000602082019050818103600083015261246381612427565b9050919050565b7f4552433732310000000000000000000000000000000000000000000000000000600082015250565b60006124a0600683611f54565b91506124ab8261246a565b600682019050919050565b60006124c182612493565b9150819050919050565b6000815190506124da8161166d565b92915050565b6000602082840312156124f6576124f56115fb565b5b6000612504848285016124cb565b91505092915050565b7f436f6e7472616374206e6f7420617070726f76656420746f207472616e73666560008201527f72204e4654000000000000000000000000000000000000000000000000000000602082015250565b6000612569602583611cd8565b91506125748261250d565b604082019050919050565b600060208201905081810360008301526125988161255c565b9050919050565b7f4552433131353500000000000000000000000000000000000000000000000000600082015250565b60006125d5600783611f54565b91506125e08261259f565b600782019050919050565b60006125f6826125c8565b9150819050919050565b6000819050919050565b600061262561262061261b84612600565b6116d9565b611605565b9050919050565b6126358161260a565b82525050565b600082825260208201905092915050565b600061265960008361263b565b915061266482612331565b600082019050919050565b600060a0820190506126846000830187611b82565b6126916020830186611b82565b61269e6040830185611bac565b6126ab606083018461262c565b81810360808301526126bc8161264c565b905095945050505050565b60006040820190506126dc6000830185611b82565b6126e96020830184611bac565b9392505050565b60008190508160005260206000209050919050565b60006020601f8301049050919050565b600082821b905092915050565b6000600883026127527fffffffffffffffffffffffffffffffffffffffffffffffffffffffffffffffff82612715565b61275c8683612715565b95508019841693508086168417925050509392505050565b600061278f61278a61278584611605565b6116d9565b611605565b9050919050565b6000819050919050565b6127a983612774565b6127bd6127b582612796565b848454612722565b825550505050565b600090565b6127d26127c5565b6127dd8184846127a0565b505050565b5b81811015612801576127f66000826127ca565b6001810190506127e3565b5050565b601f82111561284657612817816126f0565b61282084612705565b8101602085101561282f578190505b61284361283b85612705565b8301826127e2565b50505b505050565b600082821c905092915050565b60006128696000198460080261284b565b1980831691505092915050565b60006128828383612858565b9150826002028217905092915050565b61289b826117ca565b67ffffffffffffffff8111156128b4576128b36119b8565b5b6128be8254611eb2565b6128c9828285612805565b600060209050601f8311600181146128fc57600084156128ea578287015190505b6128f48582612876565b86555061295c565b601f19841661290a866126f0565b60005b828110156129325784890151825560018201915060208501945060208101905061290d565b8683101561294f578489015161294b601f891682612858565b8355505b6001600288020188555050505b505050505050565b60008160011c9050919050565b6000808291508390505b60018511156129bb5780860481111561299757612996611ee3565b5b60018516156129a65780820291505b80810290506129b485612964565b945061297b565b94509492505050565b6000826129d45760019050612a90565b816129e25760009050612a90565b81600181146129f85760028114612a0257612a31565b6001915050612a90565b60ff841115612a1457612a13611ee3565b5b8360020a915084821115612a2b57612a2a611ee3565b5b50612a90565b5060208310610133831016604e8410600b8410161715612a665782820a905083811115612a6157612a60611ee3565b5b612a90565b612a738484846001612971565b92509050818404811115612a8a57612a89611ee3565b5b81810290505b9392505050565b6000612aa282611605565b9150612aad83611605565b9250612ada7fffffffffffffffffffffffffffffffffffffffffffffffffffffffffffffffff84846129c4565b90509291505056fea2646970667358221220af9844dac19bcdf789c4198b6111ec77ea992b42f722e3b4ee85527c5cc59f3864736f6c63430008190033",
  "linkReferences": {},
  "deployedLinkReferences": {}
}