{
  "_format": "hh-sol-artifact-1",
  "contractName": "NFTMarket",
  "sourceName": "contracts/NFTMarket.sol",
  "abi": [
    {
      "inputs": [
        {
          "internalType": "address",
          "name": "_paymentTestCDEToken",
          "type": "address"
        },
        {
          "internalType": "address",
          "name": "_rewardTestTIMToken",
          "type": "address"
        },
        {
          "internalType": "address",
          "name": "_Owner",
          "type": "address"
        }
      ],
      "stateMutability": "nonpayable",
      "type": "constructor"
    },
    {
      "inputs": [
        {
          "internalType": "uint256",
          "name": "_tokenAmount",
          "type": "uint256"
        },
        {
          "internalType": "address",
          "name": "_vanityAddress",
          "type": "address"
        }
      ],
      "name": "claimTimTokenReward",
      "outputs": [],
      "stateMutability": "nonpayable",
      "type": "function"
    },
    {
      "inputs": [
        {
          "internalType": "address",
          "name": "user",
          "type": "address"
        }
      ],
      "name": "getUserHistory",
      "outputs": [
        {
          "components": [
            {
              "internalType": "address",
              "name": "walletAddress",
              "type": "address"
            },
            {
              "internalType": "address",
              "name": "vanityAddress",
              "type": "address"
            },
            {
              "internalType": "address",
              "name": "nftAddress",
              "type": "address"
            },
            {
              "internalType": "uint256",
              "name": "tokenId",
              "type": "uint256"
            },
            {
              "internalType": "uint256",
              "name": "nftPrice",
              "type": "uint256"
            },
            {
              "internalType": "string",
              "name": "tokenStandard",
              "type": "string"
            },
            {
              "internalType": "uint256",
              "name": "timestamp",
              "type": "uint256"
            }
          ],
          "internalType": "struct NFTMarket.UserHistory[]",
          "name": "",
          "type": "tuple[]"
        }
      ],
      "stateMutability": "view",
      "type": "function"
    },
    {
      "inputs": [
        {
          "internalType": "address",
          "name": "_userAddress",
          "type": "address"
        }
      ],
      "name": "getUserTestCDETokenBalance",
      "outputs": [
        {
          "internalType": "uint256",
          "name": "_tokenBalance",
          "type": "uint256"
        }
      ],
      "stateMutability": "view",
      "type": "function"
    },
    {
      "inputs": [],
      "name": "owner",
      "outputs": [
        {
          "internalType": "address",
          "name": "",
          "type": "address"
        }
      ],
      "stateMutability": "view",
      "type": "function"
    },
    {
      "inputs": [],
      "name": "paymentTestCDEToken",
      "outputs": [
        {
          "internalType": "contract IERC20",
          "name": "",
          "type": "address"
        }
      ],
      "stateMutability": "view",
      "type": "function"
    },
    {
      "inputs": [],
      "name": "rewardTestTIMToken",
      "outputs": [
        {
          "internalType": "contract IERC20",
          "name": "",
          "type": "address"
        }
      ],
      "stateMutability": "view",
      "type": "function"
    },
    {
      "inputs": [
        {
          "internalType": "uint256",
          "name": "_ethAmount",
          "type": "uint256"
        },
        {
          "internalType": "address",
          "name": "_vanityAddress",
          "type": "address"
        }
      ],
      "name": "transferEthAndGetTestCDE",
      "outputs": [],
      "stateMutability": "payable",
      "type": "function"
    },
    {
      "inputs": [
        {
          "internalType": "address",
          "name": "vanityAddress",
          "type": "address"
        },
        {
          "internalType": "address",
          "name": "nftAddress",
          "type": "address"
        },
        {
          "internalType": "uint256",
          "name": "tokenId",
          "type": "uint256"
        },
        {
          "internalType": "string",
          "name": "tokenStandard",
          "type": "string"
        },
        {
          "internalType": "uint256",
          "name": "price",
          "type": "uint256"
        }
      ],
      "name": "transferNFTAndPay",
      "outputs": [],
      "stateMutability": "nonpayable",
      "type": "function"
    }
  ],
  "bytecode": "0x60806040526002805534801561001457600080fd5b5060405161251838038061251883398181016040528101906100369190610163565b826000806101000a81548173ffffffffffffffffffffffffffffffffffffffff021916908373ffffffffffffffffffffffffffffffffffffffff16021790555081600160006101000a81548173ffffffffffffffffffffffffffffffffffffffff021916908373ffffffffffffffffffffffffffffffffffffffff16021790555080600360006101000a81548173ffffffffffffffffffffffffffffffffffffffff021916908373ffffffffffffffffffffffffffffffffffffffff1602179055505050506101b6565b600080fd5b600073ffffffffffffffffffffffffffffffffffffffff82169050919050565b600061013082610105565b9050919050565b61014081610125565b811461014b57600080fd5b50565b60008151905061015d81610137565b92915050565b60008060006060848603121561017c5761017b610100565b5b600061018a8682870161014e565b935050602061019b8682870161014e565b92505060406101ac8682870161014e565b9150509250925092565b612353806101c56000396000f3fe60806040526004361061007b5760003560e01c8063902202b21161004e578063902202b21461012d5780639da45df514610158578063ee7b786914610183578063f3a5290b146101c05761007b565b8063282193ce146100805780632ab799b2146100a95780634fb3d3b1146100c55780638da5cb5b14610102575b600080fd5b34801561008c57600080fd5b506100a760048036038101906100a29190611292565b6101e9565b005b6100c360048036038101906100be9190611292565b6103f6565b005b3480156100d157600080fd5b506100ec60048036038101906100e791906112d2565b6106df565b6040516100f9919061150b565b60405180910390f35b34801561010e57600080fd5b5061011761092f565b604051610124919061153c565b60405180910390f35b34801561013957600080fd5b50610142610955565b60405161014f91906115b6565b60405180910390f35b34801561016457600080fd5b5061016d610979565b60405161017a91906115b6565b60405180910390f35b34801561018f57600080fd5b506101aa60048036038101906101a591906112d2565b61099f565b6040516101b791906115e0565b60405180910390f35b3480156101cc57600080fd5b506101e760048036038101906101e29190611730565b610a43565b005b6000600160009054906101000a900473ffffffffffffffffffffffffffffffffffffffff1673ffffffffffffffffffffffffffffffffffffffff1663dd62ed3e600360009054906101000a900473ffffffffffffffffffffffffffffffffffffffff16306040518363ffffffff1660e01b815260040161026a9291906117c7565b602060405180830381865afa158015610287573d6000803e3d6000fd5b505050506040513d601f19601f820116820180604052508101906102ab9190611805565b9050828110156102f0576040517f08c379a00000000000000000000000000000000000000000000000000000000081526004016102e7906118b5565b60405180910390fd5b60008054906101000a900473ffffffffffffffffffffffffffffffffffffffff1673ffffffffffffffffffffffffffffffffffffffff166323b872dd600360009054906101000a900473ffffffffffffffffffffffffffffffffffffffff1684866040518463ffffffff1660e01b815260040161036f939291906118d5565b6020604051808303816000875af115801561038e573d6000803e3d6000fd5b505050506040513d601f19601f820116820180604052508101906103b29190611944565b6103f1576040517f08c379a00000000000000000000000000000000000000000000000000000000081526004016103e8906119bd565b60405180910390fd5b505050565b6000610401836111a3565b905060008060009054906101000a900473ffffffffffffffffffffffffffffffffffffffff1673ffffffffffffffffffffffffffffffffffffffff1663dd62ed3e600360009054906101000a900473ffffffffffffffffffffffffffffffffffffffff16306040518363ffffffff1660e01b81526004016104839291906117c7565b602060405180830381865afa1580156104a0573d6000803e3d6000fd5b505050506040513d601f19601f820116820180604052508101906104c49190611805565b905081811015610509576040517f08c379a0000000000000000000000000000000000000000000000000000000008152600401610500906118b5565b60405180910390fd5b60008054906101000a900473ffffffffffffffffffffffffffffffffffffffff1673ffffffffffffffffffffffffffffffffffffffff166323b872dd600360009054906101000a900473ffffffffffffffffffffffffffffffffffffffff1685856040518463ffffffff1660e01b8152600401610588939291906118d5565b6020604051808303816000875af11580156105a7573d6000803e3d6000fd5b505050506040513d601f19601f820116820180604052508101906105cb9190611944565b61060a576040517f08c379a0000000000000000000000000000000000000000000000000000000008152600401610601906119bd565b60405180910390fd5b6000600360009054906101000a900473ffffffffffffffffffffffffffffffffffffffff1673ffffffffffffffffffffffffffffffffffffffff163460405161065290611a0e565b60006040518083038185875af1925050503d806000811461068f576040519150601f19603f3d011682016040523d82523d6000602084013e610694565b606091505b50509050806106d8576040517f08c379a00000000000000000000000000000000000000000000000000000000081526004016106cf90611a6f565b60405180910390fd5b5050505050565b6060600460008373ffffffffffffffffffffffffffffffffffffffff1673ffffffffffffffffffffffffffffffffffffffff168152602001908152602001600020805480602002602001604051908101604052809291908181526020016000905b8282101561092457838290600052602060002090600702016040518060e00160405290816000820160009054906101000a900473ffffffffffffffffffffffffffffffffffffffff1673ffffffffffffffffffffffffffffffffffffffff1673ffffffffffffffffffffffffffffffffffffffff1681526020016001820160009054906101000a900473ffffffffffffffffffffffffffffffffffffffff1673ffffffffffffffffffffffffffffffffffffffff1673ffffffffffffffffffffffffffffffffffffffff1681526020016002820160009054906101000a900473ffffffffffffffffffffffffffffffffffffffff1673ffffffffffffffffffffffffffffffffffffffff1673ffffffffffffffffffffffffffffffffffffffff168152602001600382015481526020016004820154815260200160058201805461088990611abe565b80601f01602080910402602001604051908101604052809291908181526020018280546108b590611abe565b80156109025780601f106108d757610100808354040283529160200191610902565b820191906000526020600020905b8154815290600101906020018083116108e557829003601f168201915b5050505050815260200160068201548152505081526020019060010190610740565b505050509050919050565b600360009054906101000a900473ffffffffffffffffffffffffffffffffffffffff1681565b60008054906101000a900473ffffffffffffffffffffffffffffffffffffffff1681565b600160009054906101000a900473ffffffffffffffffffffffffffffffffffffffff1681565b60008060009054906101000a900473ffffffffffffffffffffffffffffffffffffffff1673ffffffffffffffffffffffffffffffffffffffff166370a08231836040518263ffffffff1660e01b81526004016109fb919061153c565b602060405180830381865afa158015610a18573d6000803e3d6000fd5b505050506040513d601f19601f82011682018060405250810190610a3c9190611805565b9050919050565b6000610a4e826111a3565b905060008054906101000a900473ffffffffffffffffffffffffffffffffffffffff1673ffffffffffffffffffffffffffffffffffffffff166370a08231306040518263ffffffff1660e01b8152600401610aa9919061153c565b602060405180830381865afa158015610ac6573d6000803e3d6000fd5b505050506040513d601f19601f82011682018060405250810190610aea9190611805565b811115610b2c576040517f08c379a0000000000000000000000000000000000000000000000000000000008152600401610b2390611b61565b60405180910390fd5b604051602001610b3b90611bd8565b6040516020818303038152906040528051906020012083604051602001610b629190611c1e565b6040516020818303038152906040528051906020012003610d57578473ffffffffffffffffffffffffffffffffffffffff1663e985e9c533306040518363ffffffff1660e01b8152600401610bb89291906117c7565b602060405180830381865afa158015610bd5573d6000803e3d6000fd5b505050506040513d601f19601f82011682018060405250810190610bf99190611944565b80610ca857503073ffffffffffffffffffffffffffffffffffffffff168573ffffffffffffffffffffffffffffffffffffffff1663081812fc866040518263ffffffff1660e01b8152600401610c4f91906115e0565b602060405180830381865afa158015610c6c573d6000803e3d6000fd5b505050506040513d601f19601f82011682018060405250810190610c909190611c4a565b73ffffffffffffffffffffffffffffffffffffffff16145b610ce7576040517f08c379a0000000000000000000000000000000000000000000000000000000008152600401610cde90611ce9565b60405180910390fd5b8473ffffffffffffffffffffffffffffffffffffffff166342842e0e3330876040518463ffffffff1660e01b8152600401610d24939291906118d5565b600060405180830381600087803b158015610d3e57600080fd5b505af1158015610d52573d6000803e3d6000fd5b505050505b604051602001610d6690611d55565b6040516020818303038152906040528051906020012083604051602001610d8d9190611c1e565b6040516020818303038152906040528051906020012003610ed6578473ffffffffffffffffffffffffffffffffffffffff1663e985e9c533306040518363ffffffff1660e01b8152600401610de39291906117c7565b602060405180830381865afa158015610e00573d6000803e3d6000fd5b505050506040513d601f19601f82011682018060405250810190610e249190611944565b610e63576040517f08c379a0000000000000000000000000000000000000000000000000000000008152600401610e5a90611ce9565b60405180910390fd5b8473ffffffffffffffffffffffffffffffffffffffff1663f242432a33308760016040518563ffffffff1660e01b8152600401610ea39493929190611dd9565b600060405180830381600087803b158015610ebd57600080fd5b505af1158015610ed1573d6000803e3d6000fd5b505050505b60008054906101000a900473ffffffffffffffffffffffffffffffffffffffff1673ffffffffffffffffffffffffffffffffffffffff1663a9059cbb87836040518363ffffffff1660e01b8152600401610f31929190611e31565b6020604051808303816000875af1158015610f50573d6000803e3d6000fd5b505050506040513d601f19601f82011682018060405250810190610f749190611944565b610fb3576040517f08c379a0000000000000000000000000000000000000000000000000000000008152600401610faa906119bd565b60405180910390fd5b600460003373ffffffffffffffffffffffffffffffffffffffff1673ffffffffffffffffffffffffffffffffffffffff1681526020019081526020016000206040518060e001604052803373ffffffffffffffffffffffffffffffffffffffff1681526020018873ffffffffffffffffffffffffffffffffffffffff1681526020018773ffffffffffffffffffffffffffffffffffffffff16815260200186815260200184815260200185815260200142815250908060018154018082558091505060019003906000526020600020906007020160009091909190915060008201518160000160006101000a81548173ffffffffffffffffffffffffffffffffffffffff021916908373ffffffffffffffffffffffffffffffffffffffff16021790555060208201518160010160006101000a81548173ffffffffffffffffffffffffffffffffffffffff021916908373ffffffffffffffffffffffffffffffffffffffff16021790555060408201518160020160006101000a81548173ffffffffffffffffffffffffffffffffffffffff021916908373ffffffffffffffffffffffffffffffffffffffff160217905550606082015181600301556080820151816004015560a082015181600501908161118e9190611ffc565b5060c082015181600601555050505050505050565b6000806012600a6111b49190612230565b6002546111c1919061227b565b9050670de0b6b3a764000081846111d8919061227b565b6111e291906122ec565b915050919050565b6000604051905090565b600080fd5b600080fd5b6000819050919050565b611211816111fe565b811461121c57600080fd5b50565b60008135905061122e81611208565b92915050565b600073ffffffffffffffffffffffffffffffffffffffff82169050919050565b600061125f82611234565b9050919050565b61126f81611254565b811461127a57600080fd5b50565b60008135905061128c81611266565b92915050565b600080604083850312156112a9576112a86111f4565b5b60006112b78582860161121f565b92505060206112c88582860161127d565b9150509250929050565b6000602082840312156112e8576112e76111f4565b5b60006112f68482850161127d565b91505092915050565b600081519050919050565b600082825260208201905092915050565b6000819050602082019050919050565b61133481611254565b82525050565b611343816111fe565b82525050565b600081519050919050565b600082825260208201905092915050565b60005b83811015611383578082015181840152602081019050611368565b60008484015250505050565b6000601f19601f8301169050919050565b60006113ab82611349565b6113b58185611354565b93506113c5818560208601611365565b6113ce8161138f565b840191505092915050565b600060e0830160008301516113f1600086018261132b565b506020830151611404602086018261132b565b506040830151611417604086018261132b565b50606083015161142a606086018261133a565b50608083015161143d608086018261133a565b5060a083015184820360a086015261145582826113a0565b91505060c083015161146a60c086018261133a565b508091505092915050565b600061148183836113d9565b905092915050565b6000602082019050919050565b60006114a1826112ff565b6114ab818561130a565b9350836020820285016114bd8561131b565b8060005b858110156114f957848403895281516114da8582611475565b94506114e583611489565b925060208a019950506001810190506114c1565b50829750879550505050505092915050565b600060208201905081810360008301526115258184611496565b905092915050565b61153681611254565b82525050565b6000602082019050611551600083018461152d565b92915050565b6000819050919050565b600061157c61157761157284611234565b611557565b611234565b9050919050565b600061158e82611561565b9050919050565b60006115a082611583565b9050919050565b6115b081611595565b82525050565b60006020820190506115cb60008301846115a7565b92915050565b6115da816111fe565b82525050565b60006020820190506115f560008301846115d1565b92915050565b600080fd5b600080fd5b7f4e487b7100000000000000000000000000000000000000000000000000000000600052604160045260246000fd5b61163d8261138f565b810181811067ffffffffffffffff8211171561165c5761165b611605565b5b80604052505050565b600061166f6111ea565b905061167b8282611634565b919050565b600067ffffffffffffffff82111561169b5761169a611605565b5b6116a48261138f565b9050602081019050919050565b82818337600083830152505050565b60006116d36116ce84611680565b611665565b9050828152602081018484840111156116ef576116ee611600565b5b6116fa8482856116b1565b509392505050565b600082601f830112611717576117166115fb565b5b81356117278482602086016116c0565b91505092915050565b600080600080600060a0868803121561174c5761174b6111f4565b5b600061175a8882890161127d565b955050602061176b8882890161127d565b945050604061177c8882890161121f565b935050606086013567ffffffffffffffff81111561179d5761179c6111f9565b5b6117a988828901611702565b92505060806117ba8882890161121f565b9150509295509295909350565b60006040820190506117dc600083018561152d565b6117e9602083018461152d565b9392505050565b6000815190506117ff81611208565b92915050565b60006020828403121561181b5761181a6111f4565b5b6000611829848285016117f0565b91505092915050565b600082825260208201905092915050565b7f496e73756666696369656e7420616c6c6f77616e636520666f7220746f6b656e60008201527f207472616e736665720000000000000000000000000000000000000000000000602082015250565b600061189f602983611832565b91506118aa82611843565b604082019050919050565b600060208201905081810360008301526118ce81611892565b9050919050565b60006060820190506118ea600083018661152d565b6118f7602083018561152d565b61190460408301846115d1565b949350505050565b60008115159050919050565b6119218161190c565b811461192c57600080fd5b50565b60008151905061193e81611918565b92915050565b60006020828403121561195a576119596111f4565b5b60006119688482850161192f565b91505092915050565b7f546f6b656e207472616e73666572206661696c65640000000000000000000000600082015250565b60006119a7601583611832565b91506119b282611971565b602082019050919050565b600060208201905081810360008301526119d68161199a565b9050919050565b600081905092915050565b50565b60006119f86000836119dd565b9150611a03826119e8565b600082019050919050565b6000611a19826119eb565b9150819050919050565b7f66756e64207472616e7365666572206572726f72000000000000000000000000600082015250565b6000611a59601483611832565b9150611a6482611a23565b602082019050919050565b60006020820190508181036000830152611a8881611a4c565b9050919050565b7f4e487b7100000000000000000000000000000000000000000000000000000000600052602260045260246000fd5b60006002820490506001821680611ad657607f821691505b602082108103611ae957611ae8611a8f565b5b50919050565b7f496e73756666696369656e7420546f6b656e2042616c616e636520696e20636f60008201527f6e74726163740000000000000000000000000000000000000000000000000000602082015250565b6000611b4b602683611832565b9150611b5682611aef565b604082019050919050565b60006020820190508181036000830152611b7a81611b3e565b9050919050565b600081905092915050565b7f4552433732310000000000000000000000000000000000000000000000000000600082015250565b6000611bc2600683611b81565b9150611bcd82611b8c565b600682019050919050565b6000611be382611bb5565b9150819050919050565b6000611bf882611349565b611c028185611b81565b9350611c12818560208601611365565b80840191505092915050565b6000611c2a8284611bed565b915081905092915050565b600081519050611c4481611266565b92915050565b600060208284031215611c6057611c5f6111f4565b5b6000611c6e84828501611c35565b91505092915050565b7f436f6e7472616374206e6f7420617070726f76656420746f207472616e73666560008201527f72204e4654000000000000000000000000000000000000000000000000000000602082015250565b6000611cd3602583611832565b9150611cde82611c77565b604082019050919050565b60006020820190508181036000830152611d0281611cc6565b9050919050565b7f4552433131353500000000000000000000000000000000000000000000000000600082015250565b6000611d3f600783611b81565b9150611d4a82611d09565b600782019050919050565b6000611d6082611d32565b9150819050919050565b6000819050919050565b6000611d8f611d8a611d8584611d6a565b611557565b6111fe565b9050919050565b611d9f81611d74565b82525050565b600082825260208201905092915050565b6000611dc3600083611da5565b9150611dce826119e8565b600082019050919050565b600060a082019050611dee600083018761152d565b611dfb602083018661152d565b611e0860408301856115d1565b611e156060830184611d96565b8181036080830152611e2681611db6565b905095945050505050565b6000604082019050611e46600083018561152d565b611e5360208301846115d1565b9392505050565b60008190508160005260206000209050919050565b60006020601f8301049050919050565b600082821b905092915050565b600060088302611ebc7fffffffffffffffffffffffffffffffffffffffffffffffffffffffffffffffff82611e7f565b611ec68683611e7f565b95508019841693508086168417925050509392505050565b6000611ef9611ef4611eef846111fe565b611557565b6111fe565b9050919050565b6000819050919050565b611f1383611ede565b611f27611f1f82611f00565b848454611e8c565b825550505050565b600090565b611f3c611f2f565b611f47818484611f0a565b505050565b5b81811015611f6b57611f60600082611f34565b600181019050611f4d565b5050565b601f821115611fb057611f8181611e5a565b611f8a84611e6f565b81016020851015611f99578190505b611fad611fa585611e6f565b830182611f4c565b50505b505050565b600082821c905092915050565b6000611fd360001984600802611fb5565b1980831691505092915050565b6000611fec8383611fc2565b9150826002028217905092915050565b61200582611349565b67ffffffffffffffff81111561201e5761201d611605565b5b6120288254611abe565b612033828285611f6f565b600060209050601f8311600181146120665760008415612054578287015190505b61205e8582611fe0565b8655506120c6565b601f19841661207486611e5a565b60005b8281101561209c57848901518255600182019150602085019450602081019050612077565b868310156120b957848901516120b5601f891682611fc2565b8355505b6001600288020188555050505b505050505050565b7f4e487b7100000000000000000000000000000000000000000000000000000000600052601160045260246000fd5b60008160011c9050919050565b6000808291508390505b6001851115612154578086048111156121305761212f6120ce565b5b600185161561213f5780820291505b808102905061214d856120fd565b9450612114565b94509492505050565b60008261216d5760019050612229565b8161217b5760009050612229565b8160018114612191576002811461219b576121ca565b6001915050612229565b60ff8411156121ad576121ac6120ce565b5b8360020a9150848211156121c4576121c36120ce565b5b50612229565b5060208310610133831016604e8410600b84101617156121ff5782820a9050838111156121fa576121f96120ce565b5b612229565b61220c848484600161210a565b92509050818404811115612223576122226120ce565b5b81810290505b9392505050565b600061223b826111fe565b9150612246836111fe565b92506122737fffffffffffffffffffffffffffffffffffffffffffffffffffffffffffffffff848461215d565b905092915050565b6000612286826111fe565b9150612291836111fe565b925082820261229f816111fe565b915082820484148315176122b6576122b56120ce565b5b5092915050565b7f4e487b7100000000000000000000000000000000000000000000000000000000600052601260045260246000fd5b60006122f7826111fe565b9150612302836111fe565b925082612312576123116122bd565b5b82820490509291505056fea2646970667358221220ef2e37f0efd4a8259fefb38fb8fafd1029215a44475f3fb3b026f66aa5915feb64736f6c63430008190033",
  "linkReferences": {},
  "deployedLinkReferences": {}
}