{
  "_format": "hh-sol-artifact-1",
  "contractName": "NFTMarket",
  "sourceName": "contracts/NFTMarket.sol",
  "abi": [
    {
      "inputs": [
        {
          "internalType": "address",
          "name": "_CDEToken",
          "type": "address"
        },
        {
          "internalType": "address",
          "name": "_TIMToken",
          "type": "address"
        },
        {
          "internalType": "address",
          "name": "_ANToken",
          "type": "address"
        },
        {
          "internalType": "address",
          "name": "_Owner",
          "type": "address"
        },
        {
          "internalType": "address",
          "name": "_AmountReceiverAddress",
          "type": "address"
        }
      ],
      "stateMutability": "nonpayable",
      "type": "constructor"
    },
    {
      "anonymous": false,
      "inputs": [
        {
          "indexed": true,
          "internalType": "address",
          "name": "previousOwner",
          "type": "address"
        },
        {
          "indexed": true,
          "internalType": "address",
          "name": "newOwner",
          "type": "address"
        }
      ],
      "name": "OwnershipTransferred",
      "type": "event"
    },
    {
      "anonymous": false,
      "inputs": [
        {
          "indexed": false,
          "internalType": "address",
          "name": "account",
          "type": "address"
        }
      ],
      "name": "Paused",
      "type": "event"
    },
    {
      "anonymous": false,
      "inputs": [
        {
          "indexed": false,
          "internalType": "address",
          "name": "account",
          "type": "address"
        }
      ],
      "name": "Unpaused",
      "type": "event"
    },
    {
      "inputs": [],
      "name": "ANToken",
      "outputs": [
        {
          "internalType": "contract IERC20",
          "name": "",
          "type": "address"
        }
      ],
      "stateMutability": "view",
      "type": "function"
    },
    {
      "inputs": [],
      "name": "CDEToken",
      "outputs": [
        {
          "internalType": "contract IERC20",
          "name": "",
          "type": "address"
        }
      ],
      "stateMutability": "view",
      "type": "function"
    },
    {
      "inputs": [],
      "name": "TIMToken",
      "outputs": [
        {
          "internalType": "contract IERC20",
          "name": "",
          "type": "address"
        }
      ],
      "stateMutability": "view",
      "type": "function"
    },
    {
      "inputs": [],
      "name": "amountReceiverAddress",
      "outputs": [
        {
          "internalType": "address",
          "name": "",
          "type": "address"
        }
      ],
      "stateMutability": "view",
      "type": "function"
    },
    {
      "inputs": [
        {
          "internalType": "address",
          "name": "_vanityAddress",
          "type": "address"
        }
      ],
      "name": "claimTimTokenReward",
      "outputs": [],
      "stateMutability": "nonpayable",
      "type": "function"
    },
    {
      "inputs": [],
      "name": "getANRate",
      "outputs": [
        {
          "internalType": "uint256",
          "name": "",
          "type": "uint256"
        }
      ],
      "stateMutability": "view",
      "type": "function"
    },
    {
      "inputs": [],
      "name": "getANTokenAmount",
      "outputs": [
        {
          "internalType": "uint256",
          "name": "",
          "type": "uint256"
        }
      ],
      "stateMutability": "view",
      "type": "function"
    },
    {
      "inputs": [],
      "name": "getAmountReceiverAddress",
      "outputs": [
        {
          "internalType": "address",
          "name": "",
          "type": "address"
        }
      ],
      "stateMutability": "view",
      "type": "function"
    },
    {
      "inputs": [],
      "name": "getCDERate",
      "outputs": [
        {
          "internalType": "uint256",
          "name": "",
          "type": "uint256"
        }
      ],
      "stateMutability": "view",
      "type": "function"
    },
    {
      "inputs": [],
      "name": "getClaimTimRewardAmount",
      "outputs": [
        {
          "internalType": "uint256",
          "name": "",
          "type": "uint256"
        }
      ],
      "stateMutability": "view",
      "type": "function"
    },
    {
      "inputs": [
        {
          "internalType": "address",
          "name": "tokenAddress",
          "type": "address"
        }
      ],
      "name": "getDiscountRate",
      "outputs": [
        {
          "internalType": "uint256",
          "name": "",
          "type": "uint256"
        }
      ],
      "stateMutability": "view",
      "type": "function"
    },
    {
      "inputs": [],
      "name": "getMaxCDETokenAmount",
      "outputs": [
        {
          "internalType": "uint256",
          "name": "",
          "type": "uint256"
        }
      ],
      "stateMutability": "view",
      "type": "function"
    },
    {
      "inputs": [],
      "name": "getTIMRate",
      "outputs": [
        {
          "internalType": "uint256",
          "name": "",
          "type": "uint256"
        }
      ],
      "stateMutability": "view",
      "type": "function"
    },
    {
      "inputs": [],
      "name": "getTokenOwner",
      "outputs": [
        {
          "internalType": "address",
          "name": "",
          "type": "address"
        }
      ],
      "stateMutability": "view",
      "type": "function"
    },
    {
      "inputs": [],
      "name": "owner",
      "outputs": [
        {
          "internalType": "address",
          "name": "",
          "type": "address"
        }
      ],
      "stateMutability": "view",
      "type": "function"
    },
    {
      "inputs": [],
      "name": "pause",
      "outputs": [],
      "stateMutability": "nonpayable",
      "type": "function"
    },
    {
      "inputs": [],
      "name": "paused",
      "outputs": [
        {
          "internalType": "bool",
          "name": "",
          "type": "bool"
        }
      ],
      "stateMutability": "view",
      "type": "function"
    },
    {
      "inputs": [
        {
          "internalType": "uint256",
          "name": "_amount",
          "type": "uint256"
        },
        {
          "internalType": "address",
          "name": "_address",
          "type": "address"
        },
        {
          "internalType": "enum NFTMarket.TokenType",
          "name": "_tokenType",
          "type": "uint8"
        },
        {
          "internalType": "enum NFTMarket.AddressType",
          "name": "_addressType",
          "type": "uint8"
        }
      ],
      "name": "purchaseToken",
      "outputs": [],
      "stateMutability": "payable",
      "type": "function"
    },
    {
      "inputs": [],
      "name": "renounceOwnership",
      "outputs": [],
      "stateMutability": "nonpayable",
      "type": "function"
    },
    {
      "inputs": [
        {
          "internalType": "uint256",
          "name": "_rate",
          "type": "uint256"
        }
      ],
      "name": "setANRate",
      "outputs": [],
      "stateMutability": "nonpayable",
      "type": "function"
    },
    {
      "inputs": [
        {
          "internalType": "uint256",
          "name": "_amount",
          "type": "uint256"
        }
      ],
      "name": "setANTokenAmount",
      "outputs": [],
      "stateMutability": "nonpayable",
      "type": "function"
    },
    {
      "inputs": [
        {
          "internalType": "address",
          "name": "_amountReceiverAddress",
          "type": "address"
        }
      ],
      "name": "setAmountReceiverAddress",
      "outputs": [],
      "stateMutability": "nonpayable",
      "type": "function"
    },
    {
      "inputs": [
        {
          "internalType": "uint256",
          "name": "_rate",
          "type": "uint256"
        }
      ],
      "name": "setCDERate",
      "outputs": [],
      "stateMutability": "nonpayable",
      "type": "function"
    },
    {
      "inputs": [
        {
          "internalType": "uint256",
          "name": "_amount",
          "type": "uint256"
        }
      ],
      "name": "setClaimTimRewardAmount",
      "outputs": [],
      "stateMutability": "nonpayable",
      "type": "function"
    },
    {
      "inputs": [
        {
          "internalType": "address",
          "name": "tokenAddress",
          "type": "address"
        },
        {
          "internalType": "uint256",
          "name": "rate",
          "type": "uint256"
        }
      ],
      "name": "setDiscountRate",
      "outputs": [],
      "stateMutability": "nonpayable",
      "type": "function"
    },
    {
      "inputs": [
        {
          "internalType": "uint256",
          "name": "_amount",
          "type": "uint256"
        }
      ],
      "name": "setMaxCDETokenAmount",
      "outputs": [],
      "stateMutability": "nonpayable",
      "type": "function"
    },
    {
      "inputs": [
        {
          "internalType": "uint256",
          "name": "_rate",
          "type": "uint256"
        }
      ],
      "name": "setTIMRate",
      "outputs": [],
      "stateMutability": "nonpayable",
      "type": "function"
    },
    {
      "inputs": [
        {
          "internalType": "address",
          "name": "_tokenOwner",
          "type": "address"
        }
      ],
      "name": "setTokenOwner",
      "outputs": [],
      "stateMutability": "nonpayable",
      "type": "function"
    },
    {
      "inputs": [],
      "name": "tokenowner",
      "outputs": [
        {
          "internalType": "address",
          "name": "",
          "type": "address"
        }
      ],
      "stateMutability": "view",
      "type": "function"
    },
    {
      "inputs": [
        {
          "internalType": "address",
          "name": "_prestigeAccount",
          "type": "address"
        }
      ],
      "name": "transferANTokenToPrestige",
      "outputs": [],
      "stateMutability": "nonpayable",
      "type": "function"
    },
    {
      "inputs": [
        {
          "internalType": "address",
          "name": "_vanityAddress",
          "type": "address"
        },
        {
          "internalType": "address",
          "name": "_nftAddress",
          "type": "address"
        },
        {
          "internalType": "uint256",
          "name": "_tokenId",
          "type": "uint256"
        },
        {
          "internalType": "enum NFTMarket.TokenStandard",
          "name": "_tokenStandard",
          "type": "uint8"
        }
      ],
      "name": "transferNFTtoVanityAddress",
      "outputs": [],
      "stateMutability": "nonpayable",
      "type": "function"
    },
    {
      "inputs": [
        {
          "internalType": "address",
          "name": "newOwner",
          "type": "address"
        }
      ],
      "name": "transferOwnership",
      "outputs": [],
      "stateMutability": "nonpayable",
      "type": "function"
    },
    {
      "inputs": [],
      "name": "unpause",
      "outputs": [],
      "stateMutability": "nonpayable",
      "type": "function"
    }
  ],
  "bytecode": "0x60806040526803cb71f51fc5580000600755671bc16d674ec80000600855666a94d74f430000600955678ac7230489e80000600a55678ac7230489e80000600b55691a784379d99db4200000600c55610190600d556103b6600e556000600f5534801561006b57600080fd5b50604051613c38380380613c38833981810160405281019061008d9190610348565b6100a961009e61021960201b60201c565b61022160201b60201c565b60008060146101000a81548160ff0219169083151502179055506001808190555084600260006101000a81548173ffffffffffffffffffffffffffffffffffffffff021916908373ffffffffffffffffffffffffffffffffffffffff16021790555083600360006101000a81548173ffffffffffffffffffffffffffffffffffffffff021916908373ffffffffffffffffffffffffffffffffffffffff16021790555082600460006101000a81548173ffffffffffffffffffffffffffffffffffffffff021916908373ffffffffffffffffffffffffffffffffffffffff16021790555081600560006101000a81548173ffffffffffffffffffffffffffffffffffffffff021916908373ffffffffffffffffffffffffffffffffffffffff16021790555080600660006101000a81548173ffffffffffffffffffffffffffffffffffffffff021916908373ffffffffffffffffffffffffffffffffffffffff16021790555050505050506103c3565b600033905090565b60008060009054906101000a900473ffffffffffffffffffffffffffffffffffffffff169050816000806101000a81548173ffffffffffffffffffffffffffffffffffffffff021916908373ffffffffffffffffffffffffffffffffffffffff1602179055508173ffffffffffffffffffffffffffffffffffffffff168173ffffffffffffffffffffffffffffffffffffffff167f8be0079c531659141344cd1fd0a4f28419497f9722a3daafe3b4186f6b6457e060405160405180910390a35050565b600080fd5b600073ffffffffffffffffffffffffffffffffffffffff82169050919050565b6000610315826102ea565b9050919050565b6103258161030a565b811461033057600080fd5b50565b6000815190506103428161031c565b92915050565b600080600080600060a08688031215610364576103636102e5565b5b600061037288828901610333565b955050602061038388828901610333565b945050604061039488828901610333565b93505060606103a588828901610333565b92505060806103b688828901610333565b9150509295509295909350565b613866806103d26000396000f3fe6080604052600436106101ee5760003560e01c8063715018a61161010d578063a651dd8e116100a0578063dc052df01161006f578063dc052df014610658578063dd550fd514610683578063f2fde38b146106ae578063fc725b9d146106d7578063fe5f3e1514610700576101ee565b8063a651dd8e146105bf578063b7038c84146105e8578063b7182b9514610611578063bd39db401461063c576101ee565b80638456cb59116100dc5780638456cb59146105295780638b87d09b146105405780638da5cb5b1461056957806397330eda14610594576101ee565b8063715018a6146104955780637e71dd31146104ac5780637fd1f848146104d55780638044d793146104fe576101ee565b806344195c1711610185578063584ad12c11610154578063584ad12c146103d75780635c975abb1461040257806360d06a681461042d5780636b01d82614610458576101ee565b806344195c171461032f57806346a3be6c1461035857806348507f1e146103835780635258d464146103ac576101ee565b806333e82495116101c157806333e824951461029b5780633674fd5b146102c45780633f4ba83a146102ed57806343c157ac14610304576101ee565b806310e275cb146101f357806311706a331461021c57806318e02bd91461024757806326d9d76d14610270575b600080fd5b3480156101ff57600080fd5b5061021a6004803603810190610215919061275c565b61072b565b005b34801561022857600080fd5b5061023161073d565b60405161023e9190612798565b60405180910390f35b34801561025357600080fd5b5061026e60048036038101906102699190612811565b610747565b005b34801561027c57600080fd5b50610285610894565b6040516102929190612798565b60405180910390f35b3480156102a757600080fd5b506102c260048036038101906102bd9190612811565b61089e565b005b3480156102d057600080fd5b506102eb60048036038101906102e6919061283e565b610b29565b005b3480156102f957600080fd5b50610302610c95565b005b34801561031057600080fd5b50610319610ca7565b60405161032691906128dd565b60405180910390f35b34801561033b57600080fd5b506103566004803603810190610351919061275c565b610ccd565b005b34801561036457600080fd5b5061036d610cdf565b60405161037a9190612798565b60405180910390f35b34801561038f57600080fd5b506103aa60048036038101906103a5919061275c565b610ce9565b005b3480156103b857600080fd5b506103c1610cfb565b6040516103ce91906128dd565b60405180910390f35b3480156103e357600080fd5b506103ec610d21565b6040516103f99190612907565b60405180910390f35b34801561040e57600080fd5b50610417610d4b565b604051610424919061293d565b60405180910390f35b34801561043957600080fd5b50610442610d61565b60405161044f91906128dd565b60405180910390f35b34801561046457600080fd5b5061047f600480360381019061047a9190612811565b610d87565b60405161048c9190612798565b60405180910390f35b3480156104a157600080fd5b506104aa610ee6565b005b3480156104b857600080fd5b506104d360048036038101906104ce919061297d565b610efa565b005b3480156104e157600080fd5b506104fc60048036038101906104f7919061275c565b611349565b005b34801561050a57600080fd5b5061051361135b565b6040516105209190612907565b60405180910390f35b34801561053557600080fd5b5061053e611381565b005b34801561054c57600080fd5b5061056760048036038101906105629190612811565b611393565b005b34801561057557600080fd5b5061057e61161e565b60405161058b9190612907565b60405180910390f35b3480156105a057600080fd5b506105a9611647565b6040516105b69190612907565b60405180910390f35b3480156105cb57600080fd5b506105e660048036038101906105e1919061275c565b61166d565b005b3480156105f457600080fd5b5061060f600480360381019061060a9190612811565b61167f565b005b34801561061d57600080fd5b506106266117cc565b6040516106339190612907565b60405180910390f35b61065660048036038101906106519190612a2e565b6117f6565b005b34801561066457600080fd5b5061066d61222e565b60405161067a9190612798565b60405180910390f35b34801561068f57600080fd5b50610698612238565b6040516106a59190612798565b60405180910390f35b3480156106ba57600080fd5b506106d560048036038101906106d09190612811565b612242565b005b3480156106e357600080fd5b506106fe60048036038101906106f9919061275c565b6122c5565b005b34801561070c57600080fd5b506107156122d7565b6040516107229190612798565b60405180910390f35b6107336122e1565b8060098190555050565b6000600c54905090565b61074f6122e1565b80600073ffffffffffffffffffffffffffffffffffffffff168173ffffffffffffffffffffffffffffffffffffffff16036107bf576040517f08c379a00000000000000000000000000000000000000000000000000000000081526004016107b690612af2565b60405180910390fd5b600560009054906101000a900473ffffffffffffffffffffffffffffffffffffffff1673ffffffffffffffffffffffffffffffffffffffff168273ffffffffffffffffffffffffffffffffffffffff160361084f576040517f08c379a000000000000000000000000000000000000000000000000000000000815260040161084690612b5e565b60405180910390fd5b81600560006101000a81548173ffffffffffffffffffffffffffffffffffffffff021916908373ffffffffffffffffffffffffffffffffffffffff1602179055505050565b6000600754905090565b6108a661235f565b80600073ffffffffffffffffffffffffffffffffffffffff168173ffffffffffffffffffffffffffffffffffffffff1603610916576040517f08c379a000000000000000000000000000000000000000000000000000000000815260040161090d90612af2565b60405180910390fd5b6000600460009054906101000a900473ffffffffffffffffffffffffffffffffffffffff1673ffffffffffffffffffffffffffffffffffffffff1663dd62ed3e600560009054906101000a900473ffffffffffffffffffffffffffffffffffffffff16306040518363ffffffff1660e01b8152600401610997929190612b7e565b602060405180830381865afa1580156109b4573d6000803e3d6000fd5b505050506040513d601f19601f820116820180604052508101906109d89190612bbc565b9050600b54811015610a1f576040517f08c379a0000000000000000000000000000000000000000000000000000000008152600401610a1690612c5b565b60405180910390fd5b600460009054906101000a900473ffffffffffffffffffffffffffffffffffffffff1673ffffffffffffffffffffffffffffffffffffffff166323b872dd600560009054906101000a900473ffffffffffffffffffffffffffffffffffffffff1685600b546040518463ffffffff1660e01b8152600401610aa293929190612c7b565b6020604051808303816000875af1158015610ac1573d6000803e3d6000fd5b505050506040513d601f19601f82011682018060405250810190610ae59190612cde565b610b24576040517f08c379a0000000000000000000000000000000000000000000000000000000008152600401610b1b90612d57565b60405180910390fd5b505050565b610b316122e1565b600260009054906101000a900473ffffffffffffffffffffffffffffffffffffffff1673ffffffffffffffffffffffffffffffffffffffff168273ffffffffffffffffffffffffffffffffffffffff1603610b925780600d81905550610c91565b600360009054906101000a900473ffffffffffffffffffffffffffffffffffffffff1673ffffffffffffffffffffffffffffffffffffffff168273ffffffffffffffffffffffffffffffffffffffff1603610bf35780600e81905550610c90565b600460009054906101000a900473ffffffffffffffffffffffffffffffffffffffff1673ffffffffffffffffffffffffffffffffffffffff168273ffffffffffffffffffffffffffffffffffffffff1603610c545780600f81905550610c8f565b6040517f08c379a0000000000000000000000000000000000000000000000000000000008152600401610c8690612dc3565b60405180910390fd5b5b5b5050565b610c9d6122e1565b610ca56123a9565b565b600360009054906101000a900473ffffffffffffffffffffffffffffffffffffffff1681565b610cd56122e1565b8060088190555050565b6000600854905090565b610cf16122e1565b80600a8190555050565b600460009054906101000a900473ffffffffffffffffffffffffffffffffffffffff1681565b6000600660009054906101000a900473ffffffffffffffffffffffffffffffffffffffff16905090565b60008060149054906101000a900460ff16905090565b600260009054906101000a900473ffffffffffffffffffffffffffffffffffffffff1681565b6000600260009054906101000a900473ffffffffffffffffffffffffffffffffffffffff1673ffffffffffffffffffffffffffffffffffffffff168273ffffffffffffffffffffffffffffffffffffffff1603610de857600d549050610ee1565b600360009054906101000a900473ffffffffffffffffffffffffffffffffffffffff1673ffffffffffffffffffffffffffffffffffffffff168273ffffffffffffffffffffffffffffffffffffffff1603610e4757600e549050610ee1565b600460009054906101000a900473ffffffffffffffffffffffffffffffffffffffff1673ffffffffffffffffffffffffffffffffffffffff168273ffffffffffffffffffffffffffffffffffffffff1603610ea657600f549050610ee1565b6040517f08c379a0000000000000000000000000000000000000000000000000000000008152600401610ed890612dc3565b60405180910390fd5b919050565b610eee6122e1565b610ef8600061240b565b565b610f0261235f565b83600073ffffffffffffffffffffffffffffffffffffffff168173ffffffffffffffffffffffffffffffffffffffff1603610f72576040517f08c379a0000000000000000000000000000000000000000000000000000000008152600401610f6990612af2565b60405180910390fd5b83600073ffffffffffffffffffffffffffffffffffffffff168173ffffffffffffffffffffffffffffffffffffffff1603610fe2576040517f08c379a0000000000000000000000000000000000000000000000000000000008152600401610fd990612af2565b60405180910390fd5b60006001811115610ff657610ff5612de3565b5b83600181111561100957611008612de3565b5b036111e8578473ffffffffffffffffffffffffffffffffffffffff1663e985e9c533306040518363ffffffff1660e01b8152600401611049929190612b7e565b602060405180830381865afa158015611066573d6000803e3d6000fd5b505050506040513d601f19601f8201168201806040525081019061108a9190612cde565b8061113957503073ffffffffffffffffffffffffffffffffffffffff168573ffffffffffffffffffffffffffffffffffffffff1663081812fc866040518263ffffffff1660e01b81526004016110e09190612798565b602060405180830381865afa1580156110fd573d6000803e3d6000fd5b505050506040513d601f19601f820116820180604052508101906111219190612e27565b73ffffffffffffffffffffffffffffffffffffffff16145b611178576040517f08c379a000000000000000000000000000000000000000000000000000000000815260040161116f90612ec6565b60405180910390fd5b8473ffffffffffffffffffffffffffffffffffffffff166342842e0e3388876040518463ffffffff1660e01b81526004016111b593929190612c7b565b600060405180830381600087803b1580156111cf57600080fd5b505af11580156111e3573d6000803e3d6000fd5b505050505b6001808111156111fb576111fa612de3565b5b83600181111561120e5761120d612de3565b5b03611341578473ffffffffffffffffffffffffffffffffffffffff1663e985e9c533306040518363ffffffff1660e01b815260040161124e929190612b7e565b602060405180830381865afa15801561126b573d6000803e3d6000fd5b505050506040513d601f19601f8201168201806040525081019061128f9190612cde565b6112ce576040517f08c379a00000000000000000000000000000000000000000000000000000000081526004016112c590612ec6565b60405180910390fd5b8473ffffffffffffffffffffffffffffffffffffffff1663f242432a33888760016040518563ffffffff1660e01b815260040161130e9493929190612f58565b600060405180830381600087803b15801561132857600080fd5b505af115801561133c573d6000803e3d6000fd5b505050505b505050505050565b6113516122e1565b80600b8190555050565b600560009054906101000a900473ffffffffffffffffffffffffffffffffffffffff1681565b6113896122e1565b6113916124cf565b565b61139b61235f565b80600073ffffffffffffffffffffffffffffffffffffffff168173ffffffffffffffffffffffffffffffffffffffff160361140b576040517f08c379a000000000000000000000000000000000000000000000000000000000815260040161140290612af2565b60405180910390fd5b6000600360009054906101000a900473ffffffffffffffffffffffffffffffffffffffff1673ffffffffffffffffffffffffffffffffffffffff1663dd62ed3e600560009054906101000a900473ffffffffffffffffffffffffffffffffffffffff16306040518363ffffffff1660e01b815260040161148c929190612b7e565b602060405180830381865afa1580156114a9573d6000803e3d6000fd5b505050506040513d601f19601f820116820180604052508101906114cd9190612bbc565b9050600a54811015611514576040517f08c379a000000000000000000000000000000000000000000000000000000000815260040161150b90612c5b565b60405180910390fd5b600360009054906101000a900473ffffffffffffffffffffffffffffffffffffffff1673ffffffffffffffffffffffffffffffffffffffff166323b872dd600560009054906101000a900473ffffffffffffffffffffffffffffffffffffffff1685600a546040518463ffffffff1660e01b815260040161159793929190612c7b565b6020604051808303816000875af11580156115b6573d6000803e3d6000fd5b505050506040513d601f19601f820116820180604052508101906115da9190612cde565b611619576040517f08c379a000000000000000000000000000000000000000000000000000000000815260040161161090612d57565b60405180910390fd5b505050565b60008060009054906101000a900473ffffffffffffffffffffffffffffffffffffffff16905090565b600660009054906101000a900473ffffffffffffffffffffffffffffffffffffffff1681565b6116756122e1565b8060078190555050565b6116876122e1565b80600073ffffffffffffffffffffffffffffffffffffffff168173ffffffffffffffffffffffffffffffffffffffff16036116f7576040517f08c379a00000000000000000000000000000000000000000000000000000000081526004016116ee90612af2565b60405180910390fd5b600660009054906101000a900473ffffffffffffffffffffffffffffffffffffffff1673ffffffffffffffffffffffffffffffffffffffff168273ffffffffffffffffffffffffffffffffffffffff1603611787576040517f08c379a000000000000000000000000000000000000000000000000000000000815260040161177e90613022565b60405180910390fd5b81600660006101000a81548173ffffffffffffffffffffffffffffffffffffffff021916908373ffffffffffffffffffffffffffffffffffffffff1602179055505050565b6000600560009054906101000a900473ffffffffffffffffffffffffffffffffffffffff16905090565b6117fe61235f565b82600073ffffffffffffffffffffffffffffffffffffffff168173ffffffffffffffffffffffffffffffffffffffff160361186e576040517f08c379a000000000000000000000000000000000000000000000000000000000815260040161186590612af2565b60405180910390fd5b611876612532565b843410156118b9576040517f08c379a00000000000000000000000000000000000000000000000000000000081526004016118b09061308e565b60405180910390fd5b60006118c58685612581565b905060006001808111156118dc576118db612de3565b5b8460018111156118ef576118ee612de3565b5b14905080156119b3576000600281111561190c5761190b612de3565b5b85600281111561191f5761191e612de3565b5b036119375761193082600d5461267e565b91506119b2565b6001600281111561194b5761194a612de3565b5b85600281111561195e5761195d612de3565b5b036119765761196f82600e5461267e565b91506119b1565b60028081111561198957611988612de3565b5b85600281111561199c5761199b612de3565b5b036119b0576119ad82600f5461267e565b91505b5b5b5b60008060028111156119c8576119c7612de3565b5b8660028111156119db576119da612de3565b5b03611cde57600260009054906101000a900473ffffffffffffffffffffffffffffffffffffffff1673ffffffffffffffffffffffffffffffffffffffff1663dd62ed3e600560009054906101000a900473ffffffffffffffffffffffffffffffffffffffff16306040518363ffffffff1660e01b8152600401611a5f929190612b7e565b602060405180830381865afa158015611a7c573d6000803e3d6000fd5b505050506040513d601f19601f82011682018060405250810190611aa09190612bbc565b905082811015611ae5576040517f08c379a0000000000000000000000000000000000000000000000000000000008152600401611adc90613120565b60405180910390fd5b600083600260009054906101000a900473ffffffffffffffffffffffffffffffffffffffff1673ffffffffffffffffffffffffffffffffffffffff166370a082318a6040518263ffffffff1660e01b8152600401611b439190612907565b602060405180830381865afa158015611b60573d6000803e3d6000fd5b505050506040513d601f19601f82011682018060405250810190611b849190612bbc565b611b8e919061316f565b9050600c54811115611bd5576040517f08c379a0000000000000000000000000000000000000000000000000000000008152600401611bcc90613215565b60405180910390fd5b600260009054906101000a900473ffffffffffffffffffffffffffffffffffffffff1673ffffffffffffffffffffffffffffffffffffffff166323b872dd600560009054906101000a900473ffffffffffffffffffffffffffffffffffffffff168a876040518463ffffffff1660e01b8152600401611c5693929190612c7b565b6020604051808303816000875af1158015611c75573d6000803e3d6000fd5b505050506040513d601f19601f82011682018060405250810190611c999190612cde565b611cd8576040517f08c379a0000000000000000000000000000000000000000000000000000000008152600401611ccf90613281565b60405180910390fd5b5061214d565b60016002811115611cf257611cf1612de3565b5b866002811115611d0557611d04612de3565b5b03611f1757600360009054906101000a900473ffffffffffffffffffffffffffffffffffffffff1673ffffffffffffffffffffffffffffffffffffffff1663dd62ed3e600560009054906101000a900473ffffffffffffffffffffffffffffffffffffffff16306040518363ffffffff1660e01b8152600401611d89929190612b7e565b602060405180830381865afa158015611da6573d6000803e3d6000fd5b505050506040513d601f19601f82011682018060405250810190611dca9190612bbc565b905082811015611e0f576040517f08c379a0000000000000000000000000000000000000000000000000000000008152600401611e0690613313565b60405180910390fd5b600360009054906101000a900473ffffffffffffffffffffffffffffffffffffffff1673ffffffffffffffffffffffffffffffffffffffff166323b872dd600560009054906101000a900473ffffffffffffffffffffffffffffffffffffffff1689866040518463ffffffff1660e01b8152600401611e9093929190612c7b565b6020604051808303816000875af1158015611eaf573d6000803e3d6000fd5b505050506040513d601f19601f82011682018060405250810190611ed39190612cde565b611f12576040517f08c379a0000000000000000000000000000000000000000000000000000000008152600401611f099061337f565b60405180910390fd5b61214c565b600280811115611f2a57611f29612de3565b5b866002811115611f3d57611f3c612de3565b5b0361214b57600460009054906101000a900473ffffffffffffffffffffffffffffffffffffffff1673ffffffffffffffffffffffffffffffffffffffff1663dd62ed3e600560009054906101000a900473ffffffffffffffffffffffffffffffffffffffff16306040518363ffffffff1660e01b8152600401611fc1929190612b7e565b602060405180830381865afa158015611fde573d6000803e3d6000fd5b505050506040513d601f19601f820116820180604052508101906120029190612bbc565b905082811015612047576040517f08c379a000000000000000000000000000000000000000000000000000000000815260040161203e90613411565b60405180910390fd5b600460009054906101000a900473ffffffffffffffffffffffffffffffffffffffff1673ffffffffffffffffffffffffffffffffffffffff166323b872dd600560009054906101000a900473ffffffffffffffffffffffffffffffffffffffff1689866040518463ffffffff1660e01b81526004016120c893929190612c7b565b6020604051808303816000875af11580156120e7573d6000803e3d6000fd5b505050506040513d601f19601f8201168201806040525081019061210b9190612cde565b61214a576040517f08c379a00000000000000000000000000000000000000000000000000000000081526004016121419061347d565b60405180910390fd5b5b5b5b6000600660009054906101000a900473ffffffffffffffffffffffffffffffffffffffff1673ffffffffffffffffffffffffffffffffffffffff1634604051612195906134cb565b60006040518083038185875af1925050503d80600081146121d2576040519150601f19603f3d011682016040523d82523d6000602084013e6121d7565b606091505b505090508061221b576040517f08c379a00000000000000000000000000000000000000000000000000000000081526004016122129061352c565b60405180910390fd5b505050506122276126c7565b5050505050565b6000600a54905090565b6000600954905090565b61224a6122e1565b600073ffffffffffffffffffffffffffffffffffffffff168173ffffffffffffffffffffffffffffffffffffffff16036122b9576040517f08c379a00000000000000000000000000000000000000000000000000000000081526004016122b0906135be565b60405180910390fd5b6122c28161240b565b50565b6122cd6122e1565b80600c8190555050565b6000600b54905090565b6122e96126d0565b73ffffffffffffffffffffffffffffffffffffffff1661230761161e565b73ffffffffffffffffffffffffffffffffffffffff161461235d576040517f08c379a00000000000000000000000000000000000000000000000000000000081526004016123549061362a565b60405180910390fd5b565b612367610d4b565b156123a7576040517f08c379a000000000000000000000000000000000000000000000000000000000815260040161239e90613696565b60405180910390fd5b565b6123b16126d8565b60008060146101000a81548160ff0219169083151502179055507f5db9ee0a495bf2e6ff9c91a7834c1ba4fdd244a5e8aa4e537bd38aeae4b073aa6123f46126d0565b6040516124019190612907565b60405180910390a1565b60008060009054906101000a900473ffffffffffffffffffffffffffffffffffffffff169050816000806101000a81548173ffffffffffffffffffffffffffffffffffffffff021916908373ffffffffffffffffffffffffffffffffffffffff1602179055508173ffffffffffffffffffffffffffffffffffffffff168173ffffffffffffffffffffffffffffffffffffffff167f8be0079c531659141344cd1fd0a4f28419497f9722a3daafe3b4186f6b6457e060405160405180910390a35050565b6124d761235f565b6001600060146101000a81548160ff0219169083151502179055507f62e78cea01bee320cd4e420270b5ea74000d11b0c9f74754ebdbfc544b05a25861251b6126d0565b6040516125289190612907565b60405180910390a1565b600260015403612577576040517f08c379a000000000000000000000000000000000000000000000000000000000815260040161256e90613702565b60405180910390fd5b6002600181905550565b600080600281111561259657612595612de3565b5b8260028111156125a9576125a8612de3565b5b036125d657600754670de0b6b3a7640000846125c59190613722565b6125cf9190613793565b9050612678565b600160028111156125ea576125e9612de3565b5b8260028111156125fd576125fc612de3565b5b0361262a57600854670de0b6b3a7640000846126199190613722565b6126239190613793565b9050612678565b60028081111561263d5761263c612de3565b5b8260028111156126505761264f612de3565b5b0361267757600954612710846126669190613722565b6126709190613793565b9050612678565b5b92915050565b6000808260648061268f9190613722565b612699919061316f565b90506064806126a89190613722565b81856126b49190613722565b6126be9190613793565b91505092915050565b60018081905550565b600033905090565b6126e0610d4b565b61271f576040517f08c379a000000000000000000000000000000000000000000000000000000000815260040161271690613810565b60405180910390fd5b565b600080fd5b6000819050919050565b61273981612726565b811461274457600080fd5b50565b60008135905061275681612730565b92915050565b60006020828403121561277257612771612721565b5b600061278084828501612747565b91505092915050565b61279281612726565b82525050565b60006020820190506127ad6000830184612789565b92915050565b600073ffffffffffffffffffffffffffffffffffffffff82169050919050565b60006127de826127b3565b9050919050565b6127ee816127d3565b81146127f957600080fd5b50565b60008135905061280b816127e5565b92915050565b60006020828403121561282757612826612721565b5b6000612835848285016127fc565b91505092915050565b6000806040838503121561285557612854612721565b5b6000612863858286016127fc565b925050602061287485828601612747565b9150509250929050565b6000819050919050565b60006128a361289e612899846127b3565b61287e565b6127b3565b9050919050565b60006128b582612888565b9050919050565b60006128c7826128aa565b9050919050565b6128d7816128bc565b82525050565b60006020820190506128f260008301846128ce565b92915050565b612901816127d3565b82525050565b600060208201905061291c60008301846128f8565b92915050565b60008115159050919050565b61293781612922565b82525050565b6000602082019050612952600083018461292e565b92915050565b6002811061296557600080fd5b50565b60008135905061297781612958565b92915050565b6000806000806080858703121561299757612996612721565b5b60006129a5878288016127fc565b94505060206129b6878288016127fc565b93505060406129c787828801612747565b92505060606129d887828801612968565b91505092959194509250565b600381106129f157600080fd5b50565b600081359050612a03816129e4565b92915050565b60028110612a1657600080fd5b50565b600081359050612a2881612a09565b92915050565b60008060008060808587031215612a4857612a47612721565b5b6000612a5687828801612747565b9450506020612a67878288016127fc565b9350506040612a78878288016129f4565b9250506060612a8987828801612a19565b91505092959194509250565b600082825260208201905092915050565b7f596f752063616e206e6f7420736574205a65726f206164647265737300000000600082015250565b6000612adc601c83612a95565b9150612ae782612aa6565b602082019050919050565b60006020820190508181036000830152612b0b81612acf565b9050919050565b7f596f75206172652073657474696e672073616d65204f776e6572000000000000600082015250565b6000612b48601a83612a95565b9150612b5382612b12565b602082019050919050565b60006020820190508181036000830152612b7781612b3b565b9050919050565b6000604082019050612b9360008301856128f8565b612ba060208301846128f8565b9392505050565b600081519050612bb681612730565b92915050565b600060208284031215612bd257612bd1612721565b5b6000612be084828501612ba7565b91505092915050565b7f496e73756666696369656e7420616c6c6f77616e636520666f7220746f6b656e60008201527f207472616e736665720000000000000000000000000000000000000000000000602082015250565b6000612c45602983612a95565b9150612c5082612be9565b604082019050919050565b60006020820190508181036000830152612c7481612c38565b9050919050565b6000606082019050612c9060008301866128f8565b612c9d60208301856128f8565b612caa6040830184612789565b949350505050565b612cbb81612922565b8114612cc657600080fd5b50565b600081519050612cd881612cb2565b92915050565b600060208284031215612cf457612cf3612721565b5b6000612d0284828501612cc9565b91505092915050565b7f546f6b656e207472616e73666572206661696c65640000000000000000000000600082015250565b6000612d41601583612a95565b9150612d4c82612d0b565b602082019050919050565b60006020820190508181036000830152612d7081612d34565b9050919050565b7f496e76616c696420546f6b656e20416464726573730000000000000000000000600082015250565b6000612dad601583612a95565b9150612db882612d77565b602082019050919050565b60006020820190508181036000830152612ddc81612da0565b9050919050565b7f4e487b7100000000000000000000000000000000000000000000000000000000600052602160045260246000fd5b600081519050612e21816127e5565b92915050565b600060208284031215612e3d57612e3c612721565b5b6000612e4b84828501612e12565b91505092915050565b7f436f6e7472616374206e6f7420617070726f76656420746f207472616e73666560008201527f72204e4654000000000000000000000000000000000000000000000000000000602082015250565b6000612eb0602583612a95565b9150612ebb82612e54565b604082019050919050565b60006020820190508181036000830152612edf81612ea3565b9050919050565b6000819050919050565b6000612f0b612f06612f0184612ee6565b61287e565b612726565b9050919050565b612f1b81612ef0565b82525050565b600082825260208201905092915050565b50565b6000612f42600083612f21565b9150612f4d82612f32565b600082019050919050565b600060a082019050612f6d60008301876128f8565b612f7a60208301866128f8565b612f876040830185612789565b612f946060830184612f12565b8181036080830152612fa581612f35565b905095945050505050565b7f596f75206172652073657474696e672073616d6520616d6f756e74207265636560008201527f6976657220416464726573730000000000000000000000000000000000000000602082015250565b600061300c602c83612a95565b915061301782612fb0565b604082019050919050565b6000602082019050818103600083015261303b81612fff565b9050919050565b7f496e73756666696369656e7420457468657220616d6f756e742073656e740000600082015250565b6000613078601e83612a95565b915061308382613042565b602082019050919050565b600060208201905081810360008301526130a78161306b565b9050919050565b7f496e73756666696369656e7420616c6c6f77616e636520666f7220434445207460008201527f6f6b656e207472616e7366657200000000000000000000000000000000000000602082015250565b600061310a602d83612a95565b9150613115826130ae565b604082019050919050565b60006020820190508181036000830152613139816130fd565b9050919050565b7f4e487b7100000000000000000000000000000000000000000000000000000000600052601160045260246000fd5b600061317a82612726565b915061318583612726565b925082820190508082111561319d5761319c613140565b5b92915050565b7f557365722063616e206e6f74207075726368617365206d6f7265207468616e2060008201527f3132353030302043444520546f6b656e00000000000000000000000000000000602082015250565b60006131ff603083612a95565b915061320a826131a3565b604082019050919050565b6000602082019050818103600083015261322e816131f2565b9050919050565b7f43444520746f6b656e207472616e73666572206661696c656400000000000000600082015250565b600061326b601983612a95565b915061327682613235565b602082019050919050565b6000602082019050818103600083015261329a8161325e565b9050919050565b7f496e73756666696369656e7420616c6c6f77616e636520666f722054494d207460008201527f6f6b656e207472616e7366657200000000000000000000000000000000000000602082015250565b60006132fd602d83612a95565b9150613308826132a1565b604082019050919050565b6000602082019050818103600083015261332c816132f0565b9050919050565b7f54494d20746f6b656e207472616e73666572206661696c656400000000000000600082015250565b6000613369601983612a95565b915061337482613333565b602082019050919050565b600060208201905081810360008301526133988161335c565b9050919050565b7f496e73756666696369656e7420616c6c6f77616e636520666f7220414e20746f60008201527f6b656e207472616e736665720000000000000000000000000000000000000000602082015250565b60006133fb602c83612a95565b91506134068261339f565b604082019050919050565b6000602082019050818103600083015261342a816133ee565b9050919050565b7f414e20746f6b656e207472616e73666572206661696c65640000000000000000600082015250565b6000613467601883612a95565b915061347282613431565b602082019050919050565b600060208201905081810360008301526134968161345a565b9050919050565b600081905092915050565b60006134b560008361349d565b91506134c082612f32565b600082019050919050565b60006134d6826134a8565b9150819050919050565b7f66756e64207472616e7365666572206572726f72000000000000000000000000600082015250565b6000613516601483612a95565b9150613521826134e0565b602082019050919050565b6000602082019050818103600083015261354581613509565b9050919050565b7f4f776e61626c653a206e6577206f776e657220697320746865207a65726f206160008201527f6464726573730000000000000000000000000000000000000000000000000000602082015250565b60006135a8602683612a95565b91506135b38261354c565b604082019050919050565b600060208201905081810360008301526135d78161359b565b9050919050565b7f4f776e61626c653a2063616c6c6572206973206e6f7420746865206f776e6572600082015250565b6000613614602083612a95565b915061361f826135de565b602082019050919050565b6000602082019050818103600083015261364381613607565b9050919050565b7f5061757361626c653a2070617573656400000000000000000000000000000000600082015250565b6000613680601083612a95565b915061368b8261364a565b602082019050919050565b600060208201905081810360008301526136af81613673565b9050919050565b7f5265656e7472616e637947756172643a207265656e7472616e742063616c6c00600082015250565b60006136ec601f83612a95565b91506136f7826136b6565b602082019050919050565b6000602082019050818103600083015261371b816136df565b9050919050565b600061372d82612726565b915061373883612726565b925082820261374681612726565b9150828204841483151761375d5761375c613140565b5b5092915050565b7f4e487b7100000000000000000000000000000000000000000000000000000000600052601260045260246000fd5b600061379e82612726565b91506137a983612726565b9250826137b9576137b8613764565b5b828204905092915050565b7f5061757361626c653a206e6f7420706175736564000000000000000000000000600082015250565b60006137fa601483612a95565b9150613805826137c4565b602082019050919050565b60006020820190508181036000830152613829816137ed565b905091905056fea2646970667358221220fdd82b642bacef7b65a5c4268d2a3f224a9302ed72d940cf5489be4f9de6349d64736f6c63430008190033",
  "linkReferences": {},
  "deployedLinkReferences": {}
}