{
  "_format": "hh-sol-artifact-1",
  "contractName": "NFTMarket",
  "sourceName": "contracts/NFTMarket.sol",
  "abi": [
    {
      "inputs": [
        {
          "internalType": "address",
          "name": "_testCDEToken",
          "type": "address"
        },
        {
          "internalType": "address",
          "name": "_testTIMToken",
          "type": "address"
        },
        {
          "internalType": "address",
          "name": "_Owner",
          "type": "address"
        }
      ],
      "stateMutability": "nonpayable",
      "type": "constructor"
    },
    {
      "inputs": [
        {
          "internalType": "uint256",
          "name": "_tokenAmount",
          "type": "uint256"
        },
        {
          "internalType": "address",
          "name": "_vanityAddress",
          "type": "address"
        }
      ],
      "name": "claimTimTokenReward",
      "outputs": [],
      "stateMutability": "nonpayable",
      "type": "function"
    },
    {
      "inputs": [
        {
          "internalType": "address",
          "name": "_userAddress",
          "type": "address"
        }
      ],
      "name": "getUserTestCDETokenBalance",
      "outputs": [
        {
          "internalType": "uint256",
          "name": "_tokenBalance",
          "type": "uint256"
        }
      ],
      "stateMutability": "view",
      "type": "function"
    },
    {
      "inputs": [],
      "name": "owner",
      "outputs": [
        {
          "internalType": "address",
          "name": "",
          "type": "address"
        }
      ],
      "stateMutability": "view",
      "type": "function"
    },
    {
      "inputs": [],
      "name": "testCDEToken",
      "outputs": [
        {
          "internalType": "contract IERC20",
          "name": "",
          "type": "address"
        }
      ],
      "stateMutability": "view",
      "type": "function"
    },
    {
      "inputs": [],
      "name": "testTIMToken",
      "outputs": [
        {
          "internalType": "contract IERC20",
          "name": "",
          "type": "address"
        }
      ],
      "stateMutability": "view",
      "type": "function"
    },
    {
      "inputs": [
        {
          "internalType": "uint256",
          "name": "_ethAmount",
          "type": "uint256"
        },
        {
          "internalType": "address",
          "name": "_vanityAddress",
          "type": "address"
        },
        {
          "internalType": "string",
          "name": "_tokenType",
          "type": "string"
        },
        {
          "internalType": "string",
          "name": "_addressType",
          "type": "string"
        }
      ],
      "name": "transferEthAndGetTestCDEOrTestTIM",
      "outputs": [],
      "stateMutability": "payable",
      "type": "function"
    },
    {
      "inputs": [
        {
          "internalType": "address",
          "name": "vanityAddress",
          "type": "address"
        },
        {
          "internalType": "address",
          "name": "nftAddress",
          "type": "address"
        },
        {
          "internalType": "uint256",
          "name": "tokenId",
          "type": "uint256"
        },
        {
          "internalType": "string",
          "name": "tokenStandard",
          "type": "string"
        }
      ],
      "name": "transferNFTtoVanityAddress",
      "outputs": [],
      "stateMutability": "nonpayable",
      "type": "function"
    }
  ],
  "bytecode": "0x60806040526002805534801561001457600080fd5b506040516122c73803806122c783398181016040528101906100369190610163565b826000806101000a81548173ffffffffffffffffffffffffffffffffffffffff021916908373ffffffffffffffffffffffffffffffffffffffff16021790555081600160006101000a81548173ffffffffffffffffffffffffffffffffffffffff021916908373ffffffffffffffffffffffffffffffffffffffff16021790555080600360006101000a81548173ffffffffffffffffffffffffffffffffffffffff021916908373ffffffffffffffffffffffffffffffffffffffff1602179055505050506101b6565b600080fd5b600073ffffffffffffffffffffffffffffffffffffffff82169050919050565b600061013082610105565b9050919050565b61014081610125565b811461014b57600080fd5b50565b60008151905061015d81610137565b92915050565b60008060006060848603121561017c5761017b610100565b5b600061018a8682870161014e565b935050602061019b8682870161014e565b92505060406101ac8682870161014e565b9150509250925092565b612102806101c56000396000f3fe6080604052600436106100705760003560e01c80635dca04d51161004e5780635dca04d5146100f25780638da5cb5b1461010e578063a4427d8214610139578063ee7b78691461016457610070565b806303671af014610075578063282193ce1461009e5780632cc53bc3146100c7575b600080fd5b34801561008157600080fd5b5061009c6004803603810190610097919061128e565b6101a1565b005b3480156100aa57600080fd5b506100c560048036038101906100c09190611311565b610551565b005b3480156100d357600080fd5b506100dc610760565b6040516100e991906113b0565b60405180910390f35b61010c600480360381019061010791906113cb565b610786565b005b34801561011a57600080fd5b50610123610f6b565b6040516101309190611479565b60405180910390f35b34801561014557600080fd5b5061014e610f91565b60405161015b91906113b0565b60405180910390f35b34801561017057600080fd5b5061018b60048036038101906101869190611494565b610fb5565b60405161019891906114d0565b60405180910390f35b6040516020016101b090611542565b60405160208183030381529060405280519060200120816040516020016101d791906115bd565b60405160208183030381529060405280519060200120036103cc578273ffffffffffffffffffffffffffffffffffffffff1663e985e9c533306040518363ffffffff1660e01b815260040161022d9291906115d4565b602060405180830381865afa15801561024a573d6000803e3d6000fd5b505050506040513d601f19601f8201168201806040525081019061026e9190611635565b8061031d57503073ffffffffffffffffffffffffffffffffffffffff168373ffffffffffffffffffffffffffffffffffffffff1663081812fc846040518263ffffffff1660e01b81526004016102c491906114d0565b602060405180830381865afa1580156102e1573d6000803e3d6000fd5b505050506040513d601f19601f820116820180604052508101906103059190611677565b73ffffffffffffffffffffffffffffffffffffffff16145b61035c576040517f08c379a000000000000000000000000000000000000000000000000000000000815260040161035390611727565b60405180910390fd5b8273ffffffffffffffffffffffffffffffffffffffff166342842e0e3386856040518463ffffffff1660e01b815260040161039993929190611747565b600060405180830381600087803b1580156103b357600080fd5b505af11580156103c7573d6000803e3d6000fd5b505050505b6040516020016103db906117ca565b604051602081830303815290604052805190602001208160405160200161040291906115bd565b604051602081830303815290604052805190602001200361054b578273ffffffffffffffffffffffffffffffffffffffff1663e985e9c533306040518363ffffffff1660e01b81526004016104589291906115d4565b602060405180830381865afa158015610475573d6000803e3d6000fd5b505050506040513d601f19601f820116820180604052508101906104999190611635565b6104d8576040517f08c379a00000000000000000000000000000000000000000000000000000000081526004016104cf90611727565b60405180910390fd5b8273ffffffffffffffffffffffffffffffffffffffff1663f242432a33868560016040518563ffffffff1660e01b81526004016105189493929190611851565b600060405180830381600087803b15801561053257600080fd5b505af1158015610546573d6000803e3d6000fd5b505050505b50505050565b6000600160009054906101000a900473ffffffffffffffffffffffffffffffffffffffff1673ffffffffffffffffffffffffffffffffffffffff1663dd62ed3e600360009054906101000a900473ffffffffffffffffffffffffffffffffffffffff16306040518363ffffffff1660e01b81526004016105d29291906115d4565b602060405180830381865afa1580156105ef573d6000803e3d6000fd5b505050506040513d601f19601f8201168201806040525081019061061391906118be565b905082811015610658576040517f08c379a000000000000000000000000000000000000000000000000000000000815260040161064f9061195d565b60405180910390fd5b600160009054906101000a900473ffffffffffffffffffffffffffffffffffffffff1673ffffffffffffffffffffffffffffffffffffffff166323b872dd600360009054906101000a900473ffffffffffffffffffffffffffffffffffffffff1684866040518463ffffffff1660e01b81526004016106d993929190611747565b6020604051808303816000875af11580156106f8573d6000803e3d6000fd5b505050506040513d601f19601f8201168201806040525081019061071c9190611635565b61075b576040517f08c379a0000000000000000000000000000000000000000000000000000000008152600401610752906119c9565b60405180910390fd5b505050565b600160009054906101000a900473ffffffffffffffffffffffffffffffffffffffff1681565b600061079185611059565b90506000670de0b6b3a7640000826107a99190611a18565b905060006040516020016107bc90611aa6565b60405160208183030381529060405280519060200120846040516020016107e391906115bd565b6040516020818303038152906040528051906020012014905080156108e45760405160200161081190611b07565b604051602081830303815290604052805190602001208560405160200161083891906115bd565b60405160208183030381529060405280519060200120036108735760646068836108629190611a18565b61086c9190611b4b565b91506108e3565b60405160200161088290611bc8565b60405160208183030381529060405280519060200120856040516020016108a991906115bd565b60405160208183030381529060405280519060200120036108e2576103e8610447836108d59190611a18565b6108df9190611b4b565b91505b5b5b60006040516020016108f590611b07565b604051602081830303815290604052805190602001208660405160200161091c91906115bd565b6040516020818303038152906040528051906020012003610c375760008054906101000a900473ffffffffffffffffffffffffffffffffffffffff1673ffffffffffffffffffffffffffffffffffffffff1663dd62ed3e600360009054906101000a900473ffffffffffffffffffffffffffffffffffffffff16306040518363ffffffff1660e01b81526004016109b49291906115d4565b602060405180830381865afa1580156109d1573d6000803e3d6000fd5b505050506040513d601f19601f820116820180604052508101906109f591906118be565b905082811015610a3a576040517f08c379a0000000000000000000000000000000000000000000000000000000008152600401610a3190611c4f565b60405180910390fd5b60008360008054906101000a900473ffffffffffffffffffffffffffffffffffffffff1673ffffffffffffffffffffffffffffffffffffffff166370a082318a6040518263ffffffff1660e01b8152600401610a969190611479565b602060405180830381865afa158015610ab3573d6000803e3d6000fd5b505050506040513d601f19601f82011682018060405250810190610ad791906118be565b610ae19190611c6f565b9050691a784379d99db4200000811115610b30576040517f08c379a0000000000000000000000000000000000000000000000000000000008152600401610b2790611d15565b60405180910390fd5b60008054906101000a900473ffffffffffffffffffffffffffffffffffffffff1673ffffffffffffffffffffffffffffffffffffffff166323b872dd600360009054906101000a900473ffffffffffffffffffffffffffffffffffffffff168a876040518463ffffffff1660e01b8152600401610baf93929190611747565b6020604051808303816000875af1158015610bce573d6000803e3d6000fd5b505050506040513d601f19601f82011682018060405250810190610bf29190611635565b610c31576040517f08c379a0000000000000000000000000000000000000000000000000000000008152600401610c2890611d81565b60405180910390fd5b50610e92565b604051602001610c4690611bc8565b6040516020818303038152906040528051906020012086604051602001610c6d91906115bd565b6040516020818303038152906040528051906020012003610e9157600160009054906101000a900473ffffffffffffffffffffffffffffffffffffffff1673ffffffffffffffffffffffffffffffffffffffff1663dd62ed3e600360009054906101000a900473ffffffffffffffffffffffffffffffffffffffff16306040518363ffffffff1660e01b8152600401610d079291906115d4565b602060405180830381865afa158015610d24573d6000803e3d6000fd5b505050506040513d601f19601f82011682018060405250810190610d4891906118be565b905082811015610d8d576040517f08c379a0000000000000000000000000000000000000000000000000000000008152600401610d8490611e13565b60405180910390fd5b600160009054906101000a900473ffffffffffffffffffffffffffffffffffffffff1673ffffffffffffffffffffffffffffffffffffffff166323b872dd600360009054906101000a900473ffffffffffffffffffffffffffffffffffffffff1689866040518463ffffffff1660e01b8152600401610e0e93929190611747565b6020604051808303816000875af1158015610e2d573d6000803e3d6000fd5b505050506040513d601f19601f82011682018060405250810190610e519190611635565b610e90576040517f08c379a0000000000000000000000000000000000000000000000000000000008152600401610e8790611e7f565b60405180910390fd5b5b5b6000600360009054906101000a900473ffffffffffffffffffffffffffffffffffffffff1673ffffffffffffffffffffffffffffffffffffffff1634604051610eda90611ecd565b60006040518083038185875af1925050503d8060008114610f17576040519150601f19603f3d011682016040523d82523d6000602084013e610f1c565b606091505b5050905080610f60576040517f08c379a0000000000000000000000000000000000000000000000000000000008152600401610f5790611f2e565b60405180910390fd5b505050505050505050565b600360009054906101000a900473ffffffffffffffffffffffffffffffffffffffff1681565b60008054906101000a900473ffffffffffffffffffffffffffffffffffffffff1681565b60008060009054906101000a900473ffffffffffffffffffffffffffffffffffffffff1673ffffffffffffffffffffffffffffffffffffffff166370a08231836040518263ffffffff1660e01b81526004016110119190611479565b602060405180830381865afa15801561102e573d6000803e3d6000fd5b505050506040513d601f19601f8201168201806040525081019061105291906118be565b9050919050565b6000806012600a61106a9190612081565b6002546110779190611a18565b9050670de0b6b3a7640000818461108e9190611a18565b6110989190611b4b565b915050919050565b6000604051905090565b600080fd5b600080fd5b600073ffffffffffffffffffffffffffffffffffffffff82169050919050565b60006110df826110b4565b9050919050565b6110ef816110d4565b81146110fa57600080fd5b50565b60008135905061110c816110e6565b92915050565b6000819050919050565b61112581611112565b811461113057600080fd5b50565b6000813590506111428161111c565b92915050565b600080fd5b600080fd5b6000601f19601f8301169050919050565b7f4e487b7100000000000000000000000000000000000000000000000000000000600052604160045260246000fd5b61119b82611152565b810181811067ffffffffffffffff821117156111ba576111b9611163565b5b80604052505050565b60006111cd6110a0565b90506111d98282611192565b919050565b600067ffffffffffffffff8211156111f9576111f8611163565b5b61120282611152565b9050602081019050919050565b82818337600083830152505050565b600061123161122c846111de565b6111c3565b90508281526020810184848401111561124d5761124c61114d565b5b61125884828561120f565b509392505050565b600082601f83011261127557611274611148565b5b813561128584826020860161121e565b91505092915050565b600080600080608085870312156112a8576112a76110aa565b5b60006112b6878288016110fd565b94505060206112c7878288016110fd565b93505060406112d887828801611133565b925050606085013567ffffffffffffffff8111156112f9576112f86110af565b5b61130587828801611260565b91505092959194509250565b60008060408385031215611328576113276110aa565b5b600061133685828601611133565b9250506020611347858286016110fd565b9150509250929050565b6000819050919050565b600061137661137161136c846110b4565b611351565b6110b4565b9050919050565b60006113888261135b565b9050919050565b600061139a8261137d565b9050919050565b6113aa8161138f565b82525050565b60006020820190506113c560008301846113a1565b92915050565b600080600080608085870312156113e5576113e46110aa565b5b60006113f387828801611133565b9450506020611404878288016110fd565b935050604085013567ffffffffffffffff811115611425576114246110af565b5b61143187828801611260565b925050606085013567ffffffffffffffff811115611452576114516110af565b5b61145e87828801611260565b91505092959194509250565b611473816110d4565b82525050565b600060208201905061148e600083018461146a565b92915050565b6000602082840312156114aa576114a96110aa565b5b60006114b8848285016110fd565b91505092915050565b6114ca81611112565b82525050565b60006020820190506114e560008301846114c1565b92915050565b600081905092915050565b7f4552433732310000000000000000000000000000000000000000000000000000600082015250565b600061152c6006836114eb565b9150611537826114f6565b600682019050919050565b600061154d8261151f565b9150819050919050565b600081519050919050565b60005b83811015611580578082015181840152602081019050611565565b60008484015250505050565b600061159782611557565b6115a181856114eb565b93506115b1818560208601611562565b80840191505092915050565b60006115c9828461158c565b915081905092915050565b60006040820190506115e9600083018561146a565b6115f6602083018461146a565b9392505050565b60008115159050919050565b611612816115fd565b811461161d57600080fd5b50565b60008151905061162f81611609565b92915050565b60006020828403121561164b5761164a6110aa565b5b600061165984828501611620565b91505092915050565b600081519050611671816110e6565b92915050565b60006020828403121561168d5761168c6110aa565b5b600061169b84828501611662565b91505092915050565b600082825260208201905092915050565b7f436f6e7472616374206e6f7420617070726f76656420746f207472616e73666560008201527f72204e4654000000000000000000000000000000000000000000000000000000602082015250565b60006117116025836116a4565b915061171c826116b5565b604082019050919050565b6000602082019050818103600083015261174081611704565b9050919050565b600060608201905061175c600083018661146a565b611769602083018561146a565b61177660408301846114c1565b949350505050565b7f4552433131353500000000000000000000000000000000000000000000000000600082015250565b60006117b46007836114eb565b91506117bf8261177e565b600782019050919050565b60006117d5826117a7565b9150819050919050565b6000819050919050565b60006118046117ff6117fa846117df565b611351565b611112565b9050919050565b611814816117e9565b82525050565b600082825260208201905092915050565b50565b600061183b60008361181a565b91506118468261182b565b600082019050919050565b600060a082019050611866600083018761146a565b611873602083018661146a565b61188060408301856114c1565b61188d606083018461180b565b818103608083015261189e8161182e565b905095945050505050565b6000815190506118b88161111c565b92915050565b6000602082840312156118d4576118d36110aa565b5b60006118e2848285016118a9565b91505092915050565b7f496e73756666696369656e7420616c6c6f77616e636520666f7220746f6b656e60008201527f207472616e736665720000000000000000000000000000000000000000000000602082015250565b60006119476029836116a4565b9150611952826118eb565b604082019050919050565b600060208201905081810360008301526119768161193a565b9050919050565b7f546f6b656e207472616e73666572206661696c65640000000000000000000000600082015250565b60006119b36015836116a4565b91506119be8261197d565b602082019050919050565b600060208201905081810360008301526119e2816119a6565b9050919050565b7f4e487b7100000000000000000000000000000000000000000000000000000000600052601160045260246000fd5b6000611a2382611112565b9150611a2e83611112565b9250828202611a3c81611112565b91508282048414831517611a5357611a526119e9565b5b5092915050565b7f76616e6974794164647265737300000000000000000000000000000000000000600082015250565b6000611a90600d836114eb565b9150611a9b82611a5a565b600d82019050919050565b6000611ab182611a83565b9150819050919050565b7f4344450000000000000000000000000000000000000000000000000000000000600082015250565b6000611af16003836114eb565b9150611afc82611abb565b600382019050919050565b6000611b1282611ae4565b9150819050919050565b7f4e487b7100000000000000000000000000000000000000000000000000000000600052601260045260246000fd5b6000611b5682611112565b9150611b6183611112565b925082611b7157611b70611b1c565b5b828204905092915050565b7f54494d0000000000000000000000000000000000000000000000000000000000600082015250565b6000611bb26003836114eb565b9150611bbd82611b7c565b600382019050919050565b6000611bd382611ba5565b9150819050919050565b7f496e73756666696369656e7420616c6c6f77616e636520666f7220434445207460008201527f6f6b656e207472616e7366657200000000000000000000000000000000000000602082015250565b6000611c39602d836116a4565b9150611c4482611bdd565b604082019050919050565b60006020820190508181036000830152611c6881611c2c565b9050919050565b6000611c7a82611112565b9150611c8583611112565b9250828201905080821115611c9d57611c9c6119e9565b5b92915050565b7f557365722063616e206e6f74207075726368617365206d6f7265207468616e2060008201527f3132353030302043444520546f6b656e00000000000000000000000000000000602082015250565b6000611cff6030836116a4565b9150611d0a82611ca3565b604082019050919050565b60006020820190508181036000830152611d2e81611cf2565b9050919050565b7f43444520746f6b656e207472616e73666572206661696c656400000000000000600082015250565b6000611d6b6019836116a4565b9150611d7682611d35565b602082019050919050565b60006020820190508181036000830152611d9a81611d5e565b9050919050565b7f496e73756666696369656e7420616c6c6f77616e636520666f722054494d207460008201527f6f6b656e207472616e7366657200000000000000000000000000000000000000602082015250565b6000611dfd602d836116a4565b9150611e0882611da1565b604082019050919050565b60006020820190508181036000830152611e2c81611df0565b9050919050565b7f54494d20746f6b656e207472616e73666572206661696c656400000000000000600082015250565b6000611e696019836116a4565b9150611e7482611e33565b602082019050919050565b60006020820190508181036000830152611e9881611e5c565b9050919050565b600081905092915050565b6000611eb7600083611e9f565b9150611ec28261182b565b600082019050919050565b6000611ed882611eaa565b9150819050919050565b7f66756e64207472616e7365666572206572726f72000000000000000000000000600082015250565b6000611f186014836116a4565b9150611f2382611ee2565b602082019050919050565b60006020820190508181036000830152611f4781611f0b565b9050919050565b60008160011c9050919050565b6000808291508390505b6001851115611fa557808604811115611f8157611f806119e9565b5b6001851615611f905780820291505b8081029050611f9e85611f4e565b9450611f65565b94509492505050565b600082611fbe576001905061207a565b81611fcc576000905061207a565b8160018114611fe25760028114611fec5761201b565b600191505061207a565b60ff841115611ffe57611ffd6119e9565b5b8360020a915084821115612015576120146119e9565b5b5061207a565b5060208310610133831016604e8410600b84101617156120505782820a90508381111561204b5761204a6119e9565b5b61207a565b61205d8484846001611f5b565b92509050818404811115612074576120736119e9565b5b81810290505b9392505050565b600061208c82611112565b915061209783611112565b92506120c47fffffffffffffffffffffffffffffffffffffffffffffffffffffffffffffffff8484611fae565b90509291505056fea2646970667358221220eee7659c35101c0ae186f833046eb6fdcd3e2a4d8fa6f16f98003fd6efd9ebfb64736f6c63430008190033",
  "linkReferences": {},
  "deployedLinkReferences": {}
}