{
  "_format": "hh-sol-artifact-1",
  "contractName": "NFTMarket",
  "sourceName": "contracts/NFTMarket.sol",
  "abi": [
    {
      "inputs": [
        {
          "internalType": "address",
          "name": "_testCDEToken",
          "type": "address"
        },
        {
          "internalType": "address",
          "name": "_testTIMToken",
          "type": "address"
        },
        {
          "internalType": "address",
          "name": "_testANTToken",
          "type": "address"
        },
        {
          "internalType": "address",
          "name": "_Owner",
          "type": "address"
        }
      ],
      "stateMutability": "nonpayable",
      "type": "constructor"
    },
    {
      "inputs": [],
      "name": "EnforcedPause",
      "type": "error"
    },
    {
      "inputs": [],
      "name": "ExpectedPause",
      "type": "error"
    },
    {
      "inputs": [
        {
          "internalType": "address",
          "name": "owner",
          "type": "address"
        }
      ],
      "name": "OwnableInvalidOwner",
      "type": "error"
    },
    {
      "inputs": [
        {
          "internalType": "address",
          "name": "account",
          "type": "address"
        }
      ],
      "name": "OwnableUnauthorizedAccount",
      "type": "error"
    },
    {
      "anonymous": false,
      "inputs": [
        {
          "indexed": true,
          "internalType": "address",
          "name": "previousOwner",
          "type": "address"
        },
        {
          "indexed": true,
          "internalType": "address",
          "name": "newOwner",
          "type": "address"
        }
      ],
      "name": "OwnershipTransferred",
      "type": "event"
    },
    {
      "anonymous": false,
      "inputs": [
        {
          "indexed": false,
          "internalType": "address",
          "name": "account",
          "type": "address"
        }
      ],
      "name": "Paused",
      "type": "event"
    },
    {
      "anonymous": false,
      "inputs": [
        {
          "indexed": false,
          "internalType": "address",
          "name": "account",
          "type": "address"
        }
      ],
      "name": "Unpaused",
      "type": "event"
    },
    {
      "inputs": [
        {
          "internalType": "uint256",
          "name": "_tokenAmount",
          "type": "uint256"
        },
        {
          "internalType": "address",
          "name": "_vanityAddress",
          "type": "address"
        }
      ],
      "name": "claimTimTokenReward",
      "outputs": [],
      "stateMutability": "nonpayable",
      "type": "function"
    },
    {
      "inputs": [],
      "name": "getTestCDERate",
      "outputs": [
        {
          "internalType": "uint256",
          "name": "",
          "type": "uint256"
        }
      ],
      "stateMutability": "view",
      "type": "function"
    },
    {
      "inputs": [],
      "name": "owner",
      "outputs": [
        {
          "internalType": "address",
          "name": "",
          "type": "address"
        }
      ],
      "stateMutability": "view",
      "type": "function"
    },
    {
      "inputs": [],
      "name": "pause",
      "outputs": [],
      "stateMutability": "nonpayable",
      "type": "function"
    },
    {
      "inputs": [],
      "name": "paused",
      "outputs": [
        {
          "internalType": "bool",
          "name": "",
          "type": "bool"
        }
      ],
      "stateMutability": "view",
      "type": "function"
    },
    {
      "inputs": [],
      "name": "renounceOwnership",
      "outputs": [],
      "stateMutability": "nonpayable",
      "type": "function"
    },
    {
      "inputs": [
        {
          "internalType": "uint256",
          "name": "_rate",
          "type": "uint256"
        }
      ],
      "name": "setTestCDERate",
      "outputs": [],
      "stateMutability": "nonpayable",
      "type": "function"
    },
    {
      "inputs": [],
      "name": "testANTToken",
      "outputs": [
        {
          "internalType": "contract IERC20",
          "name": "",
          "type": "address"
        }
      ],
      "stateMutability": "view",
      "type": "function"
    },
    {
      "inputs": [],
      "name": "testCDEToken",
      "outputs": [
        {
          "internalType": "contract IERC20",
          "name": "",
          "type": "address"
        }
      ],
      "stateMutability": "view",
      "type": "function"
    },
    {
      "inputs": [],
      "name": "testTIMToken",
      "outputs": [
        {
          "internalType": "contract IERC20",
          "name": "",
          "type": "address"
        }
      ],
      "stateMutability": "view",
      "type": "function"
    },
    {
      "inputs": [],
      "name": "tokenowner",
      "outputs": [
        {
          "internalType": "address",
          "name": "",
          "type": "address"
        }
      ],
      "stateMutability": "view",
      "type": "function"
    },
    {
      "inputs": [
        {
          "internalType": "address",
          "name": "_prestigeAccount",
          "type": "address"
        },
        {
          "internalType": "uint256",
          "name": "_tokenAmount",
          "type": "uint256"
        }
      ],
      "name": "transferANTTokenToPrestige",
      "outputs": [],
      "stateMutability": "nonpayable",
      "type": "function"
    },
    {
      "inputs": [
        {
          "internalType": "uint256",
          "name": "_ethAmount",
          "type": "uint256"
        },
        {
          "internalType": "address",
          "name": "_vanityAddress",
          "type": "address"
        },
        {
          "internalType": "string",
          "name": "_tokenType",
          "type": "string"
        },
        {
          "internalType": "string",
          "name": "_addressType",
          "type": "string"
        }
      ],
      "name": "transferEthAndGetTestCDEOrTestTIM",
      "outputs": [],
      "stateMutability": "payable",
      "type": "function"
    },
    {
      "inputs": [
        {
          "internalType": "address",
          "name": "vanityAddress",
          "type": "address"
        },
        {
          "internalType": "address",
          "name": "nftAddress",
          "type": "address"
        },
        {
          "internalType": "uint256",
          "name": "tokenId",
          "type": "uint256"
        },
        {
          "internalType": "string",
          "name": "tokenStandard",
          "type": "string"
        }
      ],
      "name": "transferNFTtoVanityAddress",
      "outputs": [],
      "stateMutability": "nonpayable",
      "type": "function"
    },
    {
      "inputs": [
        {
          "internalType": "address",
          "name": "newOwner",
          "type": "address"
        }
      ],
      "name": "transferOwnership",
      "outputs": [],
      "stateMutability": "nonpayable",
      "type": "function"
    },
    {
      "inputs": [],
      "name": "unpause",
      "outputs": [],
      "stateMutability": "nonpayable",
      "type": "function"
    }
  ],
  "bytecode": "0x6080604052600260045534801561001557600080fd5b50604051612c5e380380612c5e83398181016040528101906100379190610308565b33600073ffffffffffffffffffffffffffffffffffffffff168173ffffffffffffffffffffffffffffffffffffffff16036100aa5760006040517f1e4fbdf70000000000000000000000000000000000000000000000000000000081526004016100a1919061037e565b60405180910390fd5b6100b9816101e160201b60201c565b5060008060146101000a81548160ff02191690831515021790555083600160006101000a81548173ffffffffffffffffffffffffffffffffffffffff021916908373ffffffffffffffffffffffffffffffffffffffff16021790555082600260006101000a81548173ffffffffffffffffffffffffffffffffffffffff021916908373ffffffffffffffffffffffffffffffffffffffff16021790555081600360006101000a81548173ffffffffffffffffffffffffffffffffffffffff021916908373ffffffffffffffffffffffffffffffffffffffff16021790555080600560006101000a81548173ffffffffffffffffffffffffffffffffffffffff021916908373ffffffffffffffffffffffffffffffffffffffff16021790555050505050610399565b60008060009054906101000a900473ffffffffffffffffffffffffffffffffffffffff169050816000806101000a81548173ffffffffffffffffffffffffffffffffffffffff021916908373ffffffffffffffffffffffffffffffffffffffff1602179055508173ffffffffffffffffffffffffffffffffffffffff168173ffffffffffffffffffffffffffffffffffffffff167f8be0079c531659141344cd1fd0a4f28419497f9722a3daafe3b4186f6b6457e060405160405180910390a35050565b600080fd5b600073ffffffffffffffffffffffffffffffffffffffff82169050919050565b60006102d5826102aa565b9050919050565b6102e5816102ca565b81146102f057600080fd5b50565b600081519050610302816102dc565b92915050565b60008060008060808587031215610322576103216102a5565b5b6000610330878288016102f3565b9450506020610341878288016102f3565b9350506040610352878288016102f3565b9250506060610363878288016102f3565b91505092959194509250565b610378816102ca565b82525050565b6000602082019050610393600083018461036f565b92915050565b6128b6806103a86000396000f3fe6080604052600436106100f35760003560e01c80637d7c07431161008a578063a4427d8211610059578063a4427d82146102ab578063bcc4d777146102d6578063f2fde38b146102ff578063fe26e4d114610328576100f3565b80637d7c0743146102135780638044d7931461023e5780638456cb59146102695780638da5cb5b14610280576100f3565b80633f4ba83a116100c65780633f4ba83a1461019e5780635c975abb146101b55780635dca04d5146101e0578063715018a6146101fc576100f3565b806303671af0146100f8578063282193ce146101215780632cc53bc31461014a57806339de55f914610175575b600080fd5b34801561010457600080fd5b5061011f600480360381019061011a91906119ab565b610353565b005b34801561012d57600080fd5b5061014860048036038101906101439190611a2e565b61070b565b005b34801561015657600080fd5b5061015f610922565b60405161016c9190611acd565b60405180910390f35b34801561018157600080fd5b5061019c60048036038101906101979190611ae8565b610948565b005b3480156101aa57600080fd5b506101b361095a565b005b3480156101c157600080fd5b506101ca61096c565b6040516101d79190611b30565b60405180910390f35b6101fa60048036038101906101f59190611b4b565b610982565b005b34801561020857600080fd5b50610211611175565b005b34801561021f57600080fd5b50610228611189565b6040516102359190611acd565b60405180910390f35b34801561024a57600080fd5b506102536111af565b6040516102609190611bf9565b60405180910390f35b34801561027557600080fd5b5061027e6111d5565b005b34801561028c57600080fd5b506102956111e7565b6040516102a29190611bf9565b60405180910390f35b3480156102b757600080fd5b506102c0611210565b6040516102cd9190611acd565b60405180910390f35b3480156102e257600080fd5b506102fd60048036038101906102f89190611c14565b611236565b005b34801561030b57600080fd5b5061032660048036038101906103219190611c54565b61144d565b005b34801561033457600080fd5b5061033d6114d3565b60405161034a9190611c90565b60405180910390f35b61035b6114dd565b60405160200161036a90611d02565b60405160208183030381529060405280519060200120816040516020016103919190611d7d565b6040516020818303038152906040528051906020012003610586578273ffffffffffffffffffffffffffffffffffffffff1663e985e9c533306040518363ffffffff1660e01b81526004016103e7929190611d94565b602060405180830381865afa158015610404573d6000803e3d6000fd5b505050506040513d601f19601f820116820180604052508101906104289190611de9565b806104d757503073ffffffffffffffffffffffffffffffffffffffff168373ffffffffffffffffffffffffffffffffffffffff1663081812fc846040518263ffffffff1660e01b815260040161047e9190611c90565b602060405180830381865afa15801561049b573d6000803e3d6000fd5b505050506040513d601f19601f820116820180604052508101906104bf9190611e2b565b73ffffffffffffffffffffffffffffffffffffffff16145b610516576040517f08c379a000000000000000000000000000000000000000000000000000000000815260040161050d90611edb565b60405180910390fd5b8273ffffffffffffffffffffffffffffffffffffffff166342842e0e3386856040518463ffffffff1660e01b815260040161055393929190611efb565b600060405180830381600087803b15801561056d57600080fd5b505af1158015610581573d6000803e3d6000fd5b505050505b60405160200161059590611f7e565b60405160208183030381529060405280519060200120816040516020016105bc9190611d7d565b6040516020818303038152906040528051906020012003610705578273ffffffffffffffffffffffffffffffffffffffff1663e985e9c533306040518363ffffffff1660e01b8152600401610612929190611d94565b602060405180830381865afa15801561062f573d6000803e3d6000fd5b505050506040513d601f19601f820116820180604052508101906106539190611de9565b610692576040517f08c379a000000000000000000000000000000000000000000000000000000000815260040161068990611edb565b60405180910390fd5b8273ffffffffffffffffffffffffffffffffffffffff1663f242432a33868560016040518563ffffffff1660e01b81526004016106d29493929190612005565b600060405180830381600087803b1580156106ec57600080fd5b505af1158015610700573d6000803e3d6000fd5b505050505b50505050565b6107136114dd565b6000600260009054906101000a900473ffffffffffffffffffffffffffffffffffffffff1673ffffffffffffffffffffffffffffffffffffffff1663dd62ed3e600560009054906101000a900473ffffffffffffffffffffffffffffffffffffffff16306040518363ffffffff1660e01b8152600401610794929190611d94565b602060405180830381865afa1580156107b1573d6000803e3d6000fd5b505050506040513d601f19601f820116820180604052508101906107d59190612072565b90508281101561081a576040517f08c379a000000000000000000000000000000000000000000000000000000000815260040161081190612111565b60405180910390fd5b600260009054906101000a900473ffffffffffffffffffffffffffffffffffffffff1673ffffffffffffffffffffffffffffffffffffffff166323b872dd600560009054906101000a900473ffffffffffffffffffffffffffffffffffffffff1684866040518463ffffffff1660e01b815260040161089b93929190611efb565b6020604051808303816000875af11580156108ba573d6000803e3d6000fd5b505050506040513d601f19601f820116820180604052508101906108de9190611de9565b61091d576040517f08c379a00000000000000000000000000000000000000000000000000000000081526004016109149061217d565b60405180910390fd5b505050565b600260009054906101000a900473ffffffffffffffffffffffffffffffffffffffff1681565b61095061151e565b8060048190555050565b61096261151e565b61096a6115a5565b565b60008060149054906101000a900460ff16905090565b61098a6114dd565b600061099585611607565b90506000670de0b6b3a7640000826109ad91906121cc565b905060006040516020016109c09061225a565b60405160208183030381529060405280519060200120846040516020016109e79190611d7d565b604051602081830303815290604052805190602001201490508015610ae857604051602001610a15906122bb565b6040516020818303038152906040528051906020012085604051602001610a3c9190611d7d565b6040516020818303038152906040528051906020012003610a77576064606883610a6691906121cc565b610a7091906122ff565b9150610ae7565b604051602001610a869061237c565b6040516020818303038152906040528051906020012085604051602001610aad9190611d7d565b6040516020818303038152906040528051906020012003610ae6576103e861044783610ad991906121cc565b610ae391906122ff565b91505b5b5b6000604051602001610af9906122bb565b6040516020818303038152906040528051906020012086604051602001610b209190611d7d565b6040516020818303038152906040528051906020012003610e4157600160009054906101000a900473ffffffffffffffffffffffffffffffffffffffff1673ffffffffffffffffffffffffffffffffffffffff1663dd62ed3e600560009054906101000a900473ffffffffffffffffffffffffffffffffffffffff16306040518363ffffffff1660e01b8152600401610bba929190611d94565b602060405180830381865afa158015610bd7573d6000803e3d6000fd5b505050506040513d601f19601f82011682018060405250810190610bfb9190612072565b905082811015610c40576040517f08c379a0000000000000000000000000000000000000000000000000000000008152600401610c3790612403565b60405180910390fd5b600083600160009054906101000a900473ffffffffffffffffffffffffffffffffffffffff1673ffffffffffffffffffffffffffffffffffffffff166370a082318a6040518263ffffffff1660e01b8152600401610c9e9190611bf9565b602060405180830381865afa158015610cbb573d6000803e3d6000fd5b505050506040513d601f19601f82011682018060405250810190610cdf9190612072565b610ce99190612423565b9050691a784379d99db4200000811115610d38576040517f08c379a0000000000000000000000000000000000000000000000000000000008152600401610d2f906124c9565b60405180910390fd5b600160009054906101000a900473ffffffffffffffffffffffffffffffffffffffff1673ffffffffffffffffffffffffffffffffffffffff166323b872dd600560009054906101000a900473ffffffffffffffffffffffffffffffffffffffff168a876040518463ffffffff1660e01b8152600401610db993929190611efb565b6020604051808303816000875af1158015610dd8573d6000803e3d6000fd5b505050506040513d601f19601f82011682018060405250810190610dfc9190611de9565b610e3b576040517f08c379a0000000000000000000000000000000000000000000000000000000008152600401610e3290612535565b60405180910390fd5b5061109c565b604051602001610e509061237c565b6040516020818303038152906040528051906020012086604051602001610e779190611d7d565b604051602081830303815290604052805190602001200361109b57600260009054906101000a900473ffffffffffffffffffffffffffffffffffffffff1673ffffffffffffffffffffffffffffffffffffffff1663dd62ed3e600560009054906101000a900473ffffffffffffffffffffffffffffffffffffffff16306040518363ffffffff1660e01b8152600401610f11929190611d94565b602060405180830381865afa158015610f2e573d6000803e3d6000fd5b505050506040513d601f19601f82011682018060405250810190610f529190612072565b905082811015610f97576040517f08c379a0000000000000000000000000000000000000000000000000000000008152600401610f8e906125c7565b60405180910390fd5b600260009054906101000a900473ffffffffffffffffffffffffffffffffffffffff1673ffffffffffffffffffffffffffffffffffffffff166323b872dd600560009054906101000a900473ffffffffffffffffffffffffffffffffffffffff1689866040518463ffffffff1660e01b815260040161101893929190611efb565b6020604051808303816000875af1158015611037573d6000803e3d6000fd5b505050506040513d601f19601f8201168201806040525081019061105b9190611de9565b61109a576040517f08c379a000000000000000000000000000000000000000000000000000000000815260040161109190612633565b60405180910390fd5b5b5b6000600560009054906101000a900473ffffffffffffffffffffffffffffffffffffffff1673ffffffffffffffffffffffffffffffffffffffff16346040516110e490612681565b60006040518083038185875af1925050503d8060008114611121576040519150601f19603f3d011682016040523d82523d6000602084013e611126565b606091505b505090508061116a576040517f08c379a0000000000000000000000000000000000000000000000000000000008152600401611161906126e2565b60405180910390fd5b505050505050505050565b61117d61151e565b611187600061164e565b565b600360009054906101000a900473ffffffffffffffffffffffffffffffffffffffff1681565b600560009054906101000a900473ffffffffffffffffffffffffffffffffffffffff1681565b6111dd61151e565b6111e5611712565b565b60008060009054906101000a900473ffffffffffffffffffffffffffffffffffffffff16905090565b600160009054906101000a900473ffffffffffffffffffffffffffffffffffffffff1681565b61123e6114dd565b6000600360009054906101000a900473ffffffffffffffffffffffffffffffffffffffff1673ffffffffffffffffffffffffffffffffffffffff1663dd62ed3e600560009054906101000a900473ffffffffffffffffffffffffffffffffffffffff16306040518363ffffffff1660e01b81526004016112bf929190611d94565b602060405180830381865afa1580156112dc573d6000803e3d6000fd5b505050506040513d601f19601f820116820180604052508101906113009190612072565b905081811015611345576040517f08c379a000000000000000000000000000000000000000000000000000000000815260040161133c90612111565b60405180910390fd5b600360009054906101000a900473ffffffffffffffffffffffffffffffffffffffff1673ffffffffffffffffffffffffffffffffffffffff166323b872dd600560009054906101000a900473ffffffffffffffffffffffffffffffffffffffff1685856040518463ffffffff1660e01b81526004016113c693929190611efb565b6020604051808303816000875af11580156113e5573d6000803e3d6000fd5b505050506040513d601f19601f820116820180604052508101906114099190611de9565b611448576040517f08c379a000000000000000000000000000000000000000000000000000000000815260040161143f9061217d565b60405180910390fd5b505050565b61145561151e565b600073ffffffffffffffffffffffffffffffffffffffff168173ffffffffffffffffffffffffffffffffffffffff16036114c75760006040517f1e4fbdf70000000000000000000000000000000000000000000000000000000081526004016114be9190611bf9565b60405180910390fd5b6114d08161164e565b50565b6000600454905090565b6114e561096c565b1561151c576040517fd93c066500000000000000000000000000000000000000000000000000000000815260040160405180910390fd5b565b611526611775565b73ffffffffffffffffffffffffffffffffffffffff166115446111e7565b73ffffffffffffffffffffffffffffffffffffffff16146115a357611567611775565b6040517f118cdaa700000000000000000000000000000000000000000000000000000000815260040161159a9190611bf9565b60405180910390fd5b565b6115ad61177d565b60008060146101000a81548160ff0219169083151502179055507f5db9ee0a495bf2e6ff9c91a7834c1ba4fdd244a5e8aa4e537bd38aeae4b073aa6115f0611775565b6040516115fd9190611bf9565b60405180910390a1565b6000806012600a6116189190612835565b60045461162591906121cc565b9050670de0b6b3a7640000818461163c91906121cc565b61164691906122ff565b915050919050565b60008060009054906101000a900473ffffffffffffffffffffffffffffffffffffffff169050816000806101000a81548173ffffffffffffffffffffffffffffffffffffffff021916908373ffffffffffffffffffffffffffffffffffffffff1602179055508173ffffffffffffffffffffffffffffffffffffffff168173ffffffffffffffffffffffffffffffffffffffff167f8be0079c531659141344cd1fd0a4f28419497f9722a3daafe3b4186f6b6457e060405160405180910390a35050565b61171a6114dd565b6001600060146101000a81548160ff0219169083151502179055507f62e78cea01bee320cd4e420270b5ea74000d11b0c9f74754ebdbfc544b05a25861175e611775565b60405161176b9190611bf9565b60405180910390a1565b600033905090565b61178561096c565b6117bb576040517f8dfc202b00000000000000000000000000000000000000000000000000000000815260040160405180910390fd5b565b6000604051905090565b600080fd5b600080fd5b600073ffffffffffffffffffffffffffffffffffffffff82169050919050565b60006117fc826117d1565b9050919050565b61180c816117f1565b811461181757600080fd5b50565b60008135905061182981611803565b92915050565b6000819050919050565b6118428161182f565b811461184d57600080fd5b50565b60008135905061185f81611839565b92915050565b600080fd5b600080fd5b6000601f19601f8301169050919050565b7f4e487b7100000000000000000000000000000000000000000000000000000000600052604160045260246000fd5b6118b88261186f565b810181811067ffffffffffffffff821117156118d7576118d6611880565b5b80604052505050565b60006118ea6117bd565b90506118f682826118af565b919050565b600067ffffffffffffffff82111561191657611915611880565b5b61191f8261186f565b9050602081019050919050565b82818337600083830152505050565b600061194e611949846118fb565b6118e0565b90508281526020810184848401111561196a5761196961186a565b5b61197584828561192c565b509392505050565b600082601f83011261199257611991611865565b5b81356119a284826020860161193b565b91505092915050565b600080600080608085870312156119c5576119c46117c7565b5b60006119d38782880161181a565b94505060206119e48782880161181a565b93505060406119f587828801611850565b925050606085013567ffffffffffffffff811115611a1657611a156117cc565b5b611a228782880161197d565b91505092959194509250565b60008060408385031215611a4557611a446117c7565b5b6000611a5385828601611850565b9250506020611a648582860161181a565b9150509250929050565b6000819050919050565b6000611a93611a8e611a89846117d1565b611a6e565b6117d1565b9050919050565b6000611aa582611a78565b9050919050565b6000611ab782611a9a565b9050919050565b611ac781611aac565b82525050565b6000602082019050611ae26000830184611abe565b92915050565b600060208284031215611afe57611afd6117c7565b5b6000611b0c84828501611850565b91505092915050565b60008115159050919050565b611b2a81611b15565b82525050565b6000602082019050611b456000830184611b21565b92915050565b60008060008060808587031215611b6557611b646117c7565b5b6000611b7387828801611850565b9450506020611b848782880161181a565b935050604085013567ffffffffffffffff811115611ba557611ba46117cc565b5b611bb18782880161197d565b925050606085013567ffffffffffffffff811115611bd257611bd16117cc565b5b611bde8782880161197d565b91505092959194509250565b611bf3816117f1565b82525050565b6000602082019050611c0e6000830184611bea565b92915050565b60008060408385031215611c2b57611c2a6117c7565b5b6000611c398582860161181a565b9250506020611c4a85828601611850565b9150509250929050565b600060208284031215611c6a57611c696117c7565b5b6000611c788482850161181a565b91505092915050565b611c8a8161182f565b82525050565b6000602082019050611ca56000830184611c81565b92915050565b600081905092915050565b7f4552433732310000000000000000000000000000000000000000000000000000600082015250565b6000611cec600683611cab565b9150611cf782611cb6565b600682019050919050565b6000611d0d82611cdf565b9150819050919050565b600081519050919050565b60005b83811015611d40578082015181840152602081019050611d25565b60008484015250505050565b6000611d5782611d17565b611d618185611cab565b9350611d71818560208601611d22565b80840191505092915050565b6000611d898284611d4c565b915081905092915050565b6000604082019050611da96000830185611bea565b611db66020830184611bea565b9392505050565b611dc681611b15565b8114611dd157600080fd5b50565b600081519050611de381611dbd565b92915050565b600060208284031215611dff57611dfe6117c7565b5b6000611e0d84828501611dd4565b91505092915050565b600081519050611e2581611803565b92915050565b600060208284031215611e4157611e406117c7565b5b6000611e4f84828501611e16565b91505092915050565b600082825260208201905092915050565b7f436f6e7472616374206e6f7420617070726f76656420746f207472616e73666560008201527f72204e4654000000000000000000000000000000000000000000000000000000602082015250565b6000611ec5602583611e58565b9150611ed082611e69565b604082019050919050565b60006020820190508181036000830152611ef481611eb8565b9050919050565b6000606082019050611f106000830186611bea565b611f1d6020830185611bea565b611f2a6040830184611c81565b949350505050565b7f4552433131353500000000000000000000000000000000000000000000000000600082015250565b6000611f68600783611cab565b9150611f7382611f32565b600782019050919050565b6000611f8982611f5b565b9150819050919050565b6000819050919050565b6000611fb8611fb3611fae84611f93565b611a6e565b61182f565b9050919050565b611fc881611f9d565b82525050565b600082825260208201905092915050565b50565b6000611fef600083611fce565b9150611ffa82611fdf565b600082019050919050565b600060a08201905061201a6000830187611bea565b6120276020830186611bea565b6120346040830185611c81565b6120416060830184611fbf565b818103608083015261205281611fe2565b905095945050505050565b60008151905061206c81611839565b92915050565b600060208284031215612088576120876117c7565b5b60006120968482850161205d565b91505092915050565b7f496e73756666696369656e7420616c6c6f77616e636520666f7220746f6b656e60008201527f207472616e736665720000000000000000000000000000000000000000000000602082015250565b60006120fb602983611e58565b91506121068261209f565b604082019050919050565b6000602082019050818103600083015261212a816120ee565b9050919050565b7f546f6b656e207472616e73666572206661696c65640000000000000000000000600082015250565b6000612167601583611e58565b915061217282612131565b602082019050919050565b600060208201905081810360008301526121968161215a565b9050919050565b7f4e487b7100000000000000000000000000000000000000000000000000000000600052601160045260246000fd5b60006121d78261182f565b91506121e28361182f565b92508282026121f08161182f565b915082820484148315176122075761220661219d565b5b5092915050565b7f76616e6974794164647265737300000000000000000000000000000000000000600082015250565b6000612244600d83611cab565b915061224f8261220e565b600d82019050919050565b600061226582612237565b9150819050919050565b7f4344450000000000000000000000000000000000000000000000000000000000600082015250565b60006122a5600383611cab565b91506122b08261226f565b600382019050919050565b60006122c682612298565b9150819050919050565b7f4e487b7100000000000000000000000000000000000000000000000000000000600052601260045260246000fd5b600061230a8261182f565b91506123158361182f565b925082612325576123246122d0565b5b828204905092915050565b7f54494d0000000000000000000000000000000000000000000000000000000000600082015250565b6000612366600383611cab565b915061237182612330565b600382019050919050565b600061238782612359565b9150819050919050565b7f496e73756666696369656e7420616c6c6f77616e636520666f7220434445207460008201527f6f6b656e207472616e7366657200000000000000000000000000000000000000602082015250565b60006123ed602d83611e58565b91506123f882612391565b604082019050919050565b6000602082019050818103600083015261241c816123e0565b9050919050565b600061242e8261182f565b91506124398361182f565b92508282019050808211156124515761245061219d565b5b92915050565b7f557365722063616e206e6f74207075726368617365206d6f7265207468616e2060008201527f3132353030302043444520546f6b656e00000000000000000000000000000000602082015250565b60006124b3603083611e58565b91506124be82612457565b604082019050919050565b600060208201905081810360008301526124e2816124a6565b9050919050565b7f43444520746f6b656e207472616e73666572206661696c656400000000000000600082015250565b600061251f601983611e58565b915061252a826124e9565b602082019050919050565b6000602082019050818103600083015261254e81612512565b9050919050565b7f496e73756666696369656e7420616c6c6f77616e636520666f722054494d207460008201527f6f6b656e207472616e7366657200000000000000000000000000000000000000602082015250565b60006125b1602d83611e58565b91506125bc82612555565b604082019050919050565b600060208201905081810360008301526125e0816125a4565b9050919050565b7f54494d20746f6b656e207472616e73666572206661696c656400000000000000600082015250565b600061261d601983611e58565b9150612628826125e7565b602082019050919050565b6000602082019050818103600083015261264c81612610565b9050919050565b600081905092915050565b600061266b600083612653565b915061267682611fdf565b600082019050919050565b600061268c8261265e565b9150819050919050565b7f66756e64207472616e7365666572206572726f72000000000000000000000000600082015250565b60006126cc601483611e58565b91506126d782612696565b602082019050919050565b600060208201905081810360008301526126fb816126bf565b9050919050565b60008160011c9050919050565b6000808291508390505b6001851115612759578086048111156127355761273461219d565b5b60018516156127445780820291505b808102905061275285612702565b9450612719565b94509492505050565b600082612772576001905061282e565b81612780576000905061282e565b816001811461279657600281146127a0576127cf565b600191505061282e565b60ff8411156127b2576127b161219d565b5b8360020a9150848211156127c9576127c861219d565b5b5061282e565b5060208310610133831016604e8410600b84101617156128045782820a9050838111156127ff576127fe61219d565b5b61282e565b612811848484600161270f565b925090508184048111156128285761282761219d565b5b81810290505b9392505050565b60006128408261182f565b915061284b8361182f565b92506128787fffffffffffffffffffffffffffffffffffffffffffffffffffffffffffffffff8484612762565b90509291505056fea264697066735822122050b3479635b3810526911c69220bb073b62ecf78a8e6db778ac1b9f7325bc2fe64736f6c63430008190033",
  "linkReferences": {},
  "deployedLinkReferences": {}
}