{
  "_format": "hh-sol-artifact-1",
  "contractName": "GullyBuddyMessaging",
  "sourceName": "contracts/GullyBuddyMessaging.sol",
  "abi": [
    {
      "anonymous": false,
      "inputs": [
        {
          "indexed": true,
          "internalType": "address",
          "name": "sender",
          "type": "address"
        },
        {
          "indexed": false,
          "internalType": "string",
          "name": "content",
          "type": "string"
        },
        {
          "indexed": false,
          "internalType": "uint256",
          "name": "timestamp",
          "type": "uint256"
        }
      ],
      "name": "MessageSent",
      "type": "event"
    },
    {
      "inputs": [
        {
          "internalType": "uint256",
          "name": "_id",
          "type": "uint256"
        }
      ],
      "name": "getMessage",
      "outputs": [
        {
          "internalType": "address",
          "name": "",
          "type": "address"
        },
        {
          "internalType": "string",
          "name": "",
          "type": "string"
        },
        {
          "internalType": "uint256",
          "name": "",
          "type": "uint256"
        }
      ],
      "stateMutability": "view",
      "type": "function"
    },
    {
      "inputs": [],
      "name": "messageCount",
      "outputs": [
        {
          "internalType": "uint256",
          "name": "",
          "type": "uint256"
        }
      ],
      "stateMutability": "view",
      "type": "function"
    },
    {
      "inputs": [
        {
          "internalType": "uint256",
          "name": "",
          "type": "uint256"
        }
      ],
      "name": "messages",
      "outputs": [
        {
          "internalType": "address",
          "name": "sender",
          "type": "address"
        },
        {
          "internalType": "string",
          "name": "content",
          "type": "string"
        },
        {
          "internalType": "uint256",
          "name": "timestamp",
          "type": "uint256"
        }
      ],
      "stateMutability": "view",
      "type": "function"
    },
    {
      "inputs": [
        {
          "internalType": "string",
          "name": "_content",
          "type": "string"
        }
      ],
      "name": "sendMessage",
      "outputs": [],
      "stateMutability": "nonpayable",
      "type": "function"
    }
  ],
  "bytecode": "0x6080604052348015600f57600080fd5b50610b8e8061001f6000396000f3fe608060405234801561001057600080fd5b506004361061004c5760003560e01c80630d80fefd146100515780633dbcc8d114610083578063469c8110146100a157806386f79edb146100bd575b600080fd5b61006b600480360381019061006691906104e2565b6100ef565b60405161007a939291906105ef565b60405180910390f35b61008b6101c1565b604051610098919061062d565b60405180910390f35b6100bb60048036038101906100b691906106ad565b6101c7565b005b6100d760048036038101906100d291906104e2565b610328565b6040516100e6939291906105ef565b60405180910390f35b60006020528060005260406000206000915090508060000160009054906101000a900473ffffffffffffffffffffffffffffffffffffffff169080600101805461013890610729565b80601f016020809104026020016040519081016040528092919081815260200182805461016490610729565b80156101b15780601f10610186576101008083540402835291602001916101b1565b820191906000526020600020905b81548152906001019060200180831161019457829003601f168201915b5050505050908060020154905083565b60015481565b60405180606001604052803373ffffffffffffffffffffffffffffffffffffffff16815260200183838080601f016020809104026020016040519081016040528093929190818152602001838380828437600081840152601f19601f82011690508083019250505050505050815260200142815250600080600154815260200190815260200160002060008201518160000160006101000a81548173ffffffffffffffffffffffffffffffffffffffff021916908373ffffffffffffffffffffffffffffffffffffffff16021790555060208201518160010190816102ac9190610935565b50604082015181600201559050503373ffffffffffffffffffffffffffffffffffffffff167f4816bdd3b9d39acdd4da0ae7412d5523081e916c6a56e481063e475b86ef7c5b83834260405161030493929190610a43565b60405180910390a26001600081548092919061031f90610aa4565b91905055505050565b6000606060006001548410610372576040517f08c379a000000000000000000000000000000000000000000000000000000000815260040161036990610b38565b60405180910390fd5b60008060008681526020019081526020016000206040518060600160405290816000820160009054906101000a900473ffffffffffffffffffffffffffffffffffffffff1673ffffffffffffffffffffffffffffffffffffffff1673ffffffffffffffffffffffffffffffffffffffff1681526020016001820180546103f790610729565b80601f016020809104026020016040519081016040528092919081815260200182805461042390610729565b80156104705780601f1061044557610100808354040283529160200191610470565b820191906000526020600020905b81548152906001019060200180831161045357829003601f168201915b505050505081526020016002820154815250509050806000015181602001518260400151935093509350509193909250565b600080fd5b600080fd5b6000819050919050565b6104bf816104ac565b81146104ca57600080fd5b50565b6000813590506104dc816104b6565b92915050565b6000602082840312156104f8576104f76104a2565b5b6000610506848285016104cd565b91505092915050565b600073ffffffffffffffffffffffffffffffffffffffff82169050919050565b600061053a8261050f565b9050919050565b61054a8161052f565b82525050565b600081519050919050565b600082825260208201905092915050565b60005b8381101561058a57808201518184015260208101905061056f565b60008484015250505050565b6000601f19601f8301169050919050565b60006105b282610550565b6105bc818561055b565b93506105cc81856020860161056c565b6105d581610596565b840191505092915050565b6105e9816104ac565b82525050565b60006060820190506106046000830186610541565b818103602083015261061681856105a7565b905061062560408301846105e0565b949350505050565b600060208201905061064260008301846105e0565b92915050565b600080fd5b600080fd5b600080fd5b60008083601f84011261066d5761066c610648565b5b8235905067ffffffffffffffff81111561068a5761068961064d565b5b6020830191508360018202830111156106a6576106a5610652565b5b9250929050565b600080602083850312156106c4576106c36104a2565b5b600083013567ffffffffffffffff8111156106e2576106e16104a7565b5b6106ee85828601610657565b92509250509250929050565b7f4e487b7100000000000000000000000000000000000000000000000000000000600052602260045260246000fd5b6000600282049050600182168061074157607f821691505b602082108103610754576107536106fa565b5b50919050565b7f4e487b7100000000000000000000000000000000000000000000000000000000600052604160045260246000fd5b60008190508160005260206000209050919050565b60006020601f8301049050919050565b600082821b905092915050565b6000600883026107eb7fffffffffffffffffffffffffffffffffffffffffffffffffffffffffffffffff826107ae565b6107f586836107ae565b95508019841693508086168417925050509392505050565b6000819050919050565b600061083261082d610828846104ac565b61080d565b6104ac565b9050919050565b6000819050919050565b61084c83610817565b61086061085882610839565b8484546107bb565b825550505050565b600090565b610875610868565b610880818484610843565b505050565b5b818110156108a45761089960008261086d565b600181019050610886565b5050565b601f8211156108e9576108ba81610789565b6108c38461079e565b810160208510156108d2578190505b6108e66108de8561079e565b830182610885565b50505b505050565b600082821c905092915050565b600061090c600019846008026108ee565b1980831691505092915050565b600061092583836108fb565b9150826002028217905092915050565b61093e82610550565b67ffffffffffffffff8111156109575761095661075a565b5b6109618254610729565b61096c8282856108a8565b600060209050601f83116001811461099f576000841561098d578287015190505b6109978582610919565b8655506109ff565b601f1984166109ad86610789565b60005b828110156109d5578489015182556001820191506020850194506020810190506109b0565b868310156109f257848901516109ee601f8916826108fb565b8355505b6001600288020188555050505b505050505050565b82818337600083830152505050565b6000610a22838561055b565b9350610a2f838584610a07565b610a3883610596565b840190509392505050565b60006040820190508181036000830152610a5e818587610a16565b9050610a6d60208301846105e0565b949350505050565b7f4e487b7100000000000000000000000000000000000000000000000000000000600052601160045260246000fd5b6000610aaf826104ac565b91507fffffffffffffffffffffffffffffffffffffffffffffffffffffffffffffffff8203610ae157610ae0610a75565b5b600182019050919050565b7f4d65737361676520646f6573206e6f7420657869737400000000000000000000600082015250565b6000610b2260168361055b565b9150610b2d82610aec565b602082019050919050565b60006020820190508181036000830152610b5181610b15565b905091905056fea26469706673582212203f8e1142ac2cc3a0f860578118a72d9874c7647b6f307635048b4a38f254686964736f6c63430008190033",
  "linkReferences": {},
  "deployedLinkReferences": {}
}